:040000006F00300D50
:100004000000000000000000E6050000E805000014
:1000140000000000D0080000000000000000000004
:10002400D0080000D008000000000000000000001C
:10003400328E0000000000000002000000000000FA
:10004400D0080000D0080000D0080000D00800004C
:10005400D0080000D0080000D0080000D00800003C
:10006400D0080000D0080000D0080000D00800002C
:10007400D0080000D0080000D0080000D00800001C
:10008400D0080000D0080000D0080000D00800000C
:10009400D0080000D0080000D0080000D0080000FC
:1000A400D0080000D0080000D0080000D0080000EC
:1000B400D0080000D0080000D0080000D0080000DC
:1000C400D0080000D0080000D0080000D0080000CC
:1000D400D0080000D0080000D0080000D0080000BC
:1000E400D0080000D0080000D0080000D0080000AC
:1000F400D0080000D0080000D0080000D00800009C
:1001040000000000D0080000D0080000D008000063
:10011400D0080000D0080000D0080000D00800007B
:10012400D0080000D0080000D0080000D00800006B
:10013400D0080000B2AE0000D0080000D0080000D3
:10014400D0080000D0080000D0080000D00800004B
:10015400D0080000D0080000D0080000D00800003B
:10016400D0080000D0080000D0080000D00800002B
:10017400D0080000D0080000D0080000D00800001B
:10018400D0080000D0080000D0080000D00800000B
:10019400D0080000D0080000D0080000D0080000FB
:1001A400000000000000000000000000000000004B
:0C01B4000000000000000000000000003F
:10020000130181F806C216C41AC61EC822CA26CC1B
:100210002ACE2ED032D236D43AD63ED842DA46DC76
:100220004ADECEC0D2C2D6C4DAC6DEC8E2CAE6CC46
:10023000EACEEED0F2D2F6D4FAD6FED8F3220030CF
:1002400096DA83A2C19523A02200F32510342EC094
:100250009305000273A0458003A14184EF90B06F25
:1002600003A3C19503210300824273901234D65236
:10027000739002309240A2423243C2435244E2445D
:10028000724582551256A2563257C2575258E258FA
:1002900072598649164AA64A364BC64B564CE64C0E
:1002A000764D865D165EA65E365FC65F13018107DA
:1002B0007300203013000000130000001300000042
:1002C00013000000130000001300000013000000E2
:1002D00013000000130000001300000013000000D2
:1002E00013000000130000001300000013000000C2
:1002F00013000000130000001300000013000000B2
:1003000083A24184938202E07390023403A1C195D9
:10031000024182403243C2435244E2447245825514
:100320001256A2563257C2575258E258725986494D
:10033000164AA64A364BC64B564CE64C764D865D61
:10034000165EA65E365FC65FD652A102739002307B
:100350009302800873A00280A24213018107828069
:100360001300000013000000130000001300000041
:100370001300000013000000130000001300000031
:100380001300000013000000130000001300000021
:100390001300000013000000130000001300000011
:1003A0001300000013000000130000001300000001
:1003B00013000000130000001300000013000000F1
:1003C00013000000130000001300000013000000E1
:1003D00013000000130000001300000013000000D1
:1003E00013000000130000001300000013000000C1
:1003F00013000000130000001300000013000000B1
:10040000F322003093F272FF130380781203B3E2F9
:100410006200711523205500130585FA10C12115BE
:10042000232005009302000063870200711523203A
:100430000500FD12D5BF71150CC1828000000000BF
:1004400000000000000000000000000000000000AC
:10045000000000000000000000000000000000009C
:10046000000000000000000000000000000000008C
:10047000000000000000000000000000000000007C
:10048000000000000000000000000000000000006C
:10049000000000000000000000000000000000005C
:1004A000000000000000000000000000000000004C
:1004B000000000000000000000000000000000003C
:1004C000000000000000000000000000000000002C
:1004D0000000000000000000000000000000397172
:1004E00001436EC619A0397141536AC866CA62CC0D
:1004F0005ECE19A0397101535AD056D252D44ED67D
:100500004AD826DA22DC06DE3301614082824111BC
:100510004AC026C222C406C68282B24D4101024DA3
:10052000924C224CB24B4101024B924A224AB249B0
:100530004101024992442244B240410182803D433C
:100540002A876373C3029377F700BDEFADE5937617
:1005500006FF3D8ABA960CC34CC30CC74CC7410773
:10056000E36BD7FE11E28280B306C3408A0697028E
:10057000000096966780A6002307B700A306B70081
:100580002306B700A305B7002305B700A304B700EF
:100590002304B700A303B7002303B700A302B700E7
:1005A0002302B700A301B7002301B700A300B700DF
:1005B0002300B700828093F5F50F93968500D58DC3
:1005C00093960501D58D61B7939627009702000099
:1005D00096968682E78086FA9680C1171D8F3E9692
:1005E000E374C3F8A5B701A037C5000013050535AE
:1005F000EFA0F03CB707EFBE37E700E093870708AE
:100600003CC701A0EFF2BFF0EF0010650145EF908D
:10061000C06D05B7EFF2BFEF37C500001305C53C4D
:10062000EFA0B02801A0EFF29FEE0945112D952A09
:10063000716513050520EFA0D00DB707002083A535
:10064000070837C5000013050536EFA01026192E40
:10065000AA8537C5000013050537EFA01025B7C5DB
:10066000000037C500009385053813058538EFA0D5
:10067000D023B7C5000037C500009385853A130520
:10068000053BEFA09022B7C5000037050000814769
:1006900015478146130600189385453C13054560B0
:1006A000EF908046EF90E06F01A0B71702409843AB
:1006B000B706FFF041111367170098C3D8433706F8
:1006C0000200758FD8C39843B706F7FEFD16758FE5
:1006D00098C39843B706FCFFFD16758F98C3D8439F
:1006E000B70601FFFD16758FD8C39843B70600EC17
:1006F000FD16758F98C33707FF0098C723A607021A
:1007000002C402C69843C166558F98C3B71602400B
:1007100005679C42F18F3EC6A24785073EC4B2479B
:1007200081E7A247E397E7FEB71702409C43139780
:10073000E7006356070685473EC632478547631E76
:10074000F704B7170240D843B706C1FFFD16D8C358
:10075000D843D8C3D84313670740D8C3D843758F4D
:10076000D8C3D843C166558FD8C39843B706000194
:10077000558F98C3984393166700E3DD06FED84370
:10078000B7160240719BD8C3D84313672700D8C35C
:100790002147DC42B18BE39EE7FE4101828002C625
:1007A00069BFB7160240D842B70700201146318B07
:1007B000938707086305C70021466308C7023717F8
:1007C0007A001307072098C3371702405843118354
:1007D0009376F70037070020130707003697142396
:1007E00098433357D70098C38280D842D442416699
:1007F00049833D8BF18E1306270015CF3D47630FCC
:10080000E6024147630FE602454781456313E60070
:100810004146A1E23747024003270780418B0DC7BD
:1008200037177A00130707203306C70290C3C9DDC4
:100830009843058349BF81454946E1BF8545354613
:10084000C9BF81453D46F1B737173D0013070790F3
:10085000E1BF3715024058559316F700585563DF2E
:10086000060411833D8B9306170037177A00130790
:1008700007203357D70298C35455A182BD8A8DE211
:1008800095463307D702058398C337170240585758
:1008900094433D8B050733D7E60298C3984369B765
:1008A00005456394A600E546E9BF3D456396A6006D
:1008B000D1463387E602C9BF8906E5BF3D8B930663
:1008C000170037177A00130707203357D702F1B7FD
:1008D00001A0970100209381E1FA17F10020130194
:1008E000617217E50000130565C397F5FF1F938537
:1008F00065711386018563FAC5008322050023A074
:10090000550011059105E3EAC5FE17F5FF1F130514
:10091000657C979500209385A57B6377B5002320A0
:1009200005001105E36DB5FEFD42739002BCFD426A
:1009300073904280B78200009382028073900230ED
:1009400097F2FFFF9382426C93E232007390523031
:10095000EFF0BFD597020000938222CD739012343E
:1009600073002030B7F7FF1F03A547708280EFF2B6
:100970001FBA85451165ED2981451165D52955BEFB
:10098000411102C6B78602409C4A41672E057D1779
:10099000F18B798D9A055D8D93F5057CC98D93E575
:1009A0001500B70750008CCAF917324705073AC639
:1009B000984A058B01C73247E3F9E7FE3247B7078C
:1009C0005000FD1701456307F700B7870240C84B89
:1009D00042054181410182804111B787024002C630
:1009E000984BC166FD162E05758D718B9A05598D34
:1009F00093F5057CC98DD0CB93E535008CCBB7073B
:100A00000500B7860240F917324705073AC6984AEB
:100A1000058B01C73247E3F9E7FE3245B70705000A
:100A2000FD173335F50041018280378702401C43B2
:100A300009C593E787001CC38280DD9BEDBF378724
:100A400002401C4309C593E747001CC38280ED9B0D
:100A5000EDBFB707002023AAA70C2A878147B70854
:100A600010401303405F130EF6FF6396C700B7975D
:100A7000024088CB8280B3866702232017012A8830
:100A8000AE9614C79306070163F3C7013688232681
:100A9000070185073687D1BFB7070020916623A8D5
:100AA000A70C0147AA87370300809386465F130E81
:100AB000405F930EF6FF6316C700B7970240C8C7A2
:100AC00082803308C70323A06700D4C3AA882E9866
:100AD00023A40701138807016373D701C28823A6E3
:100AE00017010507C287C1BF379702401C4393E730
:100AF00017001CC38280B7970240C8CB828037970B
:100B000002401C4FB7061000D58F1CCF8280EFF239
:100B10001FA0378402401C4093E787001CC0C537E4
:100B20001C40896693E747001CC0B7970240984F66
:100B3000558F98CF984F1367270098CFDDBA99C586
:100B4000379702405C4F5D8D48CF8280B797024057
:100B5000D84F1345F5FF798DC8CF82809C4513F798
:100B6000070113F8F70001C7D8413368E8008E2168
:100B700013F7F50F39C318418146854E3D4F930F4A
:100B8000800293028004214E3396DE00B3F8C50044
:100B9000631116039398260033131F011343F3FFC9
:100BA0003377E300B318180133E7E800639FF705D4
:100BB00050C98506E39AC6FD18C11307F00F637587
:100BC000B70454412146854E3D4F930F8002930256
:100BD0008004414EB398CE0033F715016392E802CA
:100BE0001317260001173313EF001343F3FFB376F7
:100BF000D3003317E800D98E639DF701232A15012E
:100C00000506E319C6FD54C18280E39457FA10C962
:100C10004DB7E39757FE23281501DDB709C93707FC
:100C200001405C43B7068000D58F5CC38280B70665
:100C30000140DC42370780FF7D17F98FDCC28280DC
:100C4000B707002023ACA70C8280371702405C4313
:100C50009146B18B6385D700A1466382D706B7174B
:100C60007A00938707201CC1371602405C42370781
:100C70000020130707019183BD8BBA9794231C4171
:100C8000B3D7D7005CC15442A1829D8ABA96942200
:100C9000B3D6D70014C55442AD829D8A3697182327
:100CA000B3D7E7005CC55842398393763700138782
:100CB000418036971823B3D7E7021CC982805C4372
:100CC0005843C166C983758FB7F6FF1F83A6C670E8
:100CD000BD8B89071396160163480600C546014679
:100CE0006392D702C94739A88946638FD702BD46A8
:100CF000638ED702C146638ED702C5460146639311
:100D0000D700C1471DEF3747024003270780418BBB
:100D100005C737177A0013070720B307F7021CC16E
:100D200021D61C41858381B701466DBF0546B54775
:100D3000D1BF0146BD47F9B737173D0013070790EC
:100D4000E9BFB7150240D8559316F700D85563DFB1
:100D5000060411833D8B9306170037177A0013079B
:100D600007203357D70218C1D455A182BD8A8DE21E
:100D700095463307D702058318C1371702405857E5
:100D800014413D8B050733D7E60218C1184171B7EE
:100D900085456394B600E546E9BFBD456396B60058
:100DA000D1463387E602C9BF8906E5BF3D8B93066E
:100DB000170037177A00130707203357D702F1B708
:100DC00099C5371702405C4B5D8D48CB8280B717C1
:100DD0000240D84B1345F5FF798DC8CB828099C569
:100DE000371702401C4F5D8D08CF8280B717024035
:100DF000984F1345F5FF798D88CF82809357550022
:100E000005476399E700B71702409C4333D5A70015
:100E10000589828009476396E700B71702409C5313
:100E2000F5B7B7170240DC53D5B7371702405C5708
:100E300093F7F7F05D8D48D78280B7160240DC56F5
:100E400045777D17F98F5D8DC8D6828009C9371720
:100E500002401C43B7060010D58F1CC38280B71612
:100E600002409C42370700F07D17F98F9CC28280B8
:100E700099C5371702401C575D8D08D78280B71778
:100E8000024098571345F5FF798D88D78280EFF29D
:100E90000FE81A29F577FD17F98FFA2179712A845D
:100EA000D98F1EA99A25DE2156252EC6D98FBA259F
:100EB000D98F7D771307379F758FD98F5EA55E29F0
:100EC000DA25C207C18393F7F7CFD98F5EA96808E7
:100ED000AD3BB747014093870780B2456311F404E7
:100EE000A2576547B387E7029841130640060A07F1
:100EF000B3D7E702B3D6C702B3F7C7029206139778
:100F00004700930727031307F063637CF700938779
:100F10000601C207C1831EA445616FF08FE192579D
:100F2000C9B7B3D7C702D58FEDB791C55E2509679D
:100F3000D98F5EA582805A25F977FD17F98FD5BF25
:100F400093F5F51F4EA182800A216D8D3335A000E7
:100F500082808280EFF2AFDBEF80506D06056FF08C
:100F60004FDDEFF2CFDAEF70107005456FF06FDCF8
:100F7000EFF2EFD9EF7070706FF0AFDBEFF22FD9B7
:100F800001EDB7C5000037C500009385054813057E
:100F90000549EFA0801101A02A841145EF80403A55
:100FA00008C0133515003305A0406FF08FD8EFF25D
:100FB0000FD601EDB7C5000037C500009385054881
:100FC00013050549EFA0600E01A0084101EDB7C56A
:100FD000000037C500009385054513050549EFA0BE
:100FE000C00C01A0FD55EF80D0108547630DF500C2
:100FF000B7C5000037C50000938545461305054970
:10100000EFA0A00A01A06FF0CFD2EFF24FD001ED18
:10101000B7C5000037C5000093850548130505498D
:10102000EFA0A00801A0084101EDB7C5000037C539
:1010300000009385054513050549EFA0000701A0B1
:10104000EF80E0328547630DF500B7C5000037C576
:1010500000009385854A13050549EFA0000501A00E
:101060006FF02FCDEFF2AFCA2A8401EDB7C50000B3
:1010700037C500009385853F13050549EFA0E002C1
:1010800001A02E85634DB000B7C5000037C5000034
:101090009385854013050549EFA0200101A0014675
:1010A0009145EF80200908C0133515003305A04095
:1010B0006FF02FC8EFF2AFC541112EC601EDB7C5D5
:1010C000000037C500009385853F13050549EF9063
:1010D000D07D01A0084101EDB7C5000037C5000073
:1010E0009385454113050549EF90307C01A0814669
:1010F00001466C00EF80C00A8547630EF50005C10C
:10110000B7C5000037C500009385C54313050549E1
:10111000EF90B07901A0014541016FF08FC17D557D
:10112000E5BFEFF2CFBE411101EDB7C5000037C5F5
:1011300000009385853F13050549EF90107701A0C6
:10114000084101EDB7C5000037C500009385454152
:1011500013050549EF90707501A02E8491E16000A0
:101160001DE27D56A285EF80804785476306F50422
:10117000B7C5000037C500009385453E13050549F6
:10118000EF90B07201A00582A285EF80404519E57D
:10119000232004007D5541016FF0AFB98547630DF1
:1011A000F500B7C5000037C500009385453E13051F
:1011B0000549EF90906F01A00545F1BFEFF22FB503
:1011C0004111634DD000B7C5000037C500009385BD
:1011D000454C13050549EF90506D01A02A882E85D6
:1011E00093D52600B286139605017C004182C28504
:1011F000EF8090118547630DF500B7C5000037C536
:1012000000009385854D13050549EF90106A01A0F4
:10121000324541016FF0EFB1EFF2CFAD83D98500D8
:101220009307405F7D5563E237032E84EF901010E3
:101230002A8915E1B707002003A5070EE545EF80D1
:10124000005085476305F50051556FF0EFADEF9005
:10125000F00D2A8975D9814432244C403305990018
:10126000EF9090593E240040BE94C204C1806DF4BA
:101270004E85EF90F00C0145C9BFEFF24FA90D4626
:101280008145054537040020EF70D06A1304C40D72
:1012900008C00D4681450545EF70D069B7070020AD
:1012A00023A0A70E1C4095E39307800873B0078026
:1012B00037C6000037C50000130606509305E0024C
:1012C0001305C551EF90705E01A015E193078008EA
:1012D00073B0078037C6000037C5000013060650FC
:1012E0009305F0021305C551EF90305C01A06FF03B
:1012F0004FA4EFF2CFA1B707002003A5C70D4111FE
:101300006C0002C6EF80E01DB24791C7B7E700E06E
:10131000116723A0E72041016FF0AFA1EFF22F9FEB
:10132000B707002003A5070E41116C0002C6EF802D
:10133000401BB24791C7B7E700E0116723A0E72041
:1013400041016FF00F9FEFF28F9CB7070020AA8436
:1013500003A5C70D41119545EF80603E1305E100DF
:10136000EF9020762A8905C12C87130620180145A5
:10137000EF30E01D2A8409C53087CA85EF308065CB
:10138000EF90207901E441016FF0AF9A9C48A68567
:101390002285829761D52285EF304011C1B711EDCA
:1013A000EFF2EF96B7C5000037C500009385054FF3
:1013B00013050549EF90704F01A0B73700009387E0
:1013C00067FB5CC9B7170000938787211CCD930783
:1013D000C05D7EB18967938767A07EB59D6793875F
:1013E00057E61EB901458280EFF2CF90AA840144EE
:1013F000B749000037C90000B74A000037CB0000EA
:1014000026859137EF90807883C7019B93F7F70F7C
:1014100085C37DF4014693852A2B2685EF70E0462F
:10142000EF90807513054B5DEF9070590544C9BF6F
:1014300061D801469385A92E2685EF7000451305D6
:10144000095EEF90D057014465BFEFF24F8C2945FC
:10145000EF9060666FF0EF8DEFF26F8BB7C71B11E7
:101460004111938747F03EC48D67938727327C866E
:1014700029352800EF90207D3717000037C5000080
:101480001307A74481460546954513050554EF907B
:10149000405419C92A84EF8070192A860147814671
:1014A00085452285EF90005A81450145EF70E05F48
:1014B000B707E800B7050020938797EA23A4F50E45
:1014C000C16737060020FD172326F60EB707E8CBC5
:1014D000B7060020938797EA23A2F60EA24713844B
:1014E000419D1CD43C86379800009385850E5EB4E0
:1014F000B7170000130808A09387E73901479386C0
:10150000460E1306C60E1385419DEF708034AA85E2
:1015100011C937C500001305C554EF9010394101BA
:101520006FF02F81B745000001469385852713850D
:10153000419DEF708035B745000001469385252811
:101540001385419DEF70603413054400EF20203077
:10155000AA8537C5000013054556EF90103503489E
:10156000D4028347C4020347B4028346A40203465D
:1015700094028345840237C5000013054557EF9058
:10158000D032B7C500003715000081471547938654
:10159000419D130600209385055A1305853EEF8073
:1015A000A05685476308F50037C500001305855A26
:1015B000EF90F04037C500001305455CEF903040D8
:1015C000B9BFEFE2DFF43A25B9472A8463F7E704AD
:1015D0007C352E8989E783C7250385077CB548407C
:1015E00044355C25A204DD8C1C2113F7170019CFAC
:1015F00005476398E7021C3191EB38219307E0051A
:101600006316F7005C3493E707015CB4A147638479
:10161000F402930780606380F4042285EF20106950
:1016200005A8194693850182EF90D01A65F15C34C4
:1016300093E78700D9BF8347F902A18BF9DFB9454A
:101640002285EF20305F71F9CA852285EF10505F47
:1016500001456FE01FEE8347F902A18BDDDFB9453D
:101660002285EF20305D55F9CA852285EF10805222
:10167000C5B7EFE23FE84111AA843A852E89B289C5
:1016800036C6EF20E01D2A84B9454A85EF20B059BF
:1016900021E983274900B2461946C0A72180C0B777
:1016A000B6853E85EF9050151946CE851905EF9009
:1016B000B01483C7E4021944638D8700B7C50000E6
:1016C00037C500009385C55E13050549EF90F01DF1
:1016D00001A09C4CCA852685829741016FE0DFE41A
:1016E0007955E5BF5C316387B7004CB12303050032
:1016F000231405008280EFE29FE193071500C207E3
:101700003387A500C183FD5614A3BE95130730048B
:10171000637BF7009385070FC205C1813285EF20F7
:10172000307A6FE01FE18507C20723800500C1837F
:101730008505F9BFEFE2BFDD0051AA84A1452285EE
:10174000553701469305C4012685EF10406D7C2076
:101750001307F00F6384E70085077CA085471EA46C
:101760006FE03FDDEFE2BFDA411111E937C500005C
:1017700013050562EF90701341016FE09FDB00518C
:10178000AA8411E437C500001305C563E5B71C54EE
:10179000231904007D576380E702F90737073C00EF
:1017A00063FBE7081307C003B3D7E70213970701EA
:1017B0004183C9C75AA85C547D576382E702F90781
:1017C00037073C0063FFE7061307C003B3D7E70200
:1017D000139707014183ADCB3AA43E247EA41C5845
:1017E0007D576382E702F90737073C0063F1E7069C
:1017F0001307C003B3D7E702139707014183B9CB9F
:101800005AA45E241EA85E243A246365F70099C397
:10181000231504007C30B1C31C503EC45C502285AB
:10182000A9453EC6C135740030009305C401268524
:10183000EF20500C91B741677D17ADBF85475EA87B
:101840009DBF41677D1749BF85473EA479B7416772
:101850007D177DB785475EA46DB75C2C1397870114
:101860006187634507009307F00F45BF1307F00B2F
:101870006376F700B7070001FD1745B7C167EDBFF5
:10188000130725009307400463FFE700EFE23FC81A
:10189000B7C5000037C500009385C57E130505490F
:1018A000EF90B00001A0B387A5009356860094A3E3
:1018B00093071500C207C183BE951315070190A1B8
:1018C0004181828093872600AA9713074004637F93
:1018D000F700EFE2DFC3B7C5000037C5000093850E
:1018E000457313050549EF90407C01A0B387A5001F
:1018F00090A393071500C207C1830905BE95420551
:1019000094A141818280EFE29FC0B7C5000037C536
:1019100000009385857713050549EF90007901A0B4
:10192000130745009307400463FFE700EFE23FBE63
:10193000B7C5000037C500009385057B1305054931
:10194000EF90A07601A0B387A5009356860194A3DB
:1019500093071500C207C183AE979356060194A35F
:1019600093072500C207C183AE979356860094A3C0
:1019700093073500C207C183BE951315070190A1D7
:1019800041818280EFE2BFB8B70400209387840FC3
:10199000BC3323200502232205022A849384840F6A
:1019A00081C783A741A11CD5DC20B1C783A781A132
:1019B0005CD4DC30A1C783A7C1A11CD898399C296D
:1019C00022075D8FBC29C2075D8FBC39E207D98F22
:1019D0005CCCFC2095CB03A501A2EF105069854794
:1019E00008D07CB0FC3091C703A541A2EF1030684D
:1019F00048D06FE01FB41C5485835DBF18549D47C9
:101A0000B387E7028D8355BFA3030400E1BFEFE274
:101A10001FB0370700201307470F1C2381EFB7C5FE
:101A2000000037C500009385456D13050549EF900B
:101A3000C06701A0FD1793F7F70F1CA391EB3704C4
:101A400000201304040F0840EF60705423200400AA
:101A50006FE03FAEEFE2BFABB704002083C7440F97
:101A60009384440FA5E3370400201304040F1C40A3
:101A700081CFB7C5000037C500009385856F13057A
:101A80000549EF90806201A0EF60705408C07D5757
:101A900015CD1835130640041367070218B5938552
:101AA0004183EF6010210840130630049385418381
:101AB000EF60D0450840B72500000146938545F703
:101AC000EF60304B9C20014785079CA03A856FE072
:101AD0005FA6EFE23FA219E937C50000130545658F
:101AE000EF90A05C01494A856FE01FA42E8A91E522
:101AF00037C5000013054567E5B7AA84B289930589
:101B000040131306002813056003B68AEF20302423
:101B10002A8971D93A259307301363EDE700B7C5D9
:101B2000000037C500009385456913050549EF900E
:101B3000C05701A08D476396F90083475A00639F01
:101B4000370183476A00370400201304041081E73B
:101B5000EF90A06708C01C402320FA00032449002E
:101B60001306401381452285EFE07F9D85471CA029
:101B70001CB083C7E4023CA003250A00EF10304FDD
:101B80009357850048A05CB09357050161817CA004
:101B900068B091476383F902938799FF93F7F70F32
:101BA0000547637CF7008D476391F90283475A002C
:101BB000F11793F7F70F636AF700DC205CA4DC30C1
:101BC0005CB4FC207CA4FC307CB4938784021307B3
:101BD000C4019384E402942385070507A30FD7FE6D
:101BE000E39BF4FE930730062306F40E130720F858
:101BF000A307F40E93075003A306E40E2308F40E84
:101C0000130730058547A308F40E2307E40E2309C4
:101C1000340F8D472390FA00F9B5EFE2BF8D4111E3
:101C200001ED37D500001305C583EF9000484154FE
:101C3000228541016FE05F8F0451AA8989E837D579
:101C4000000013058585EF9040466954D5B785455A
:101C50002685EFF03FA99306E1000D46A6854E8547
:101C60008D3D2A89630E050E40412887894613045D
:101C7000040F13069003A285B13103D66902A28531
:101C80006887FD3E914613062003A28568871D39AB
:101C90002A8A6887C84CEF10903D2A86A285528513
:101CA0004131914613066003A285688721392A8A4B
:101CB0006887884CEF10B03B2A86A28552858D310B
:101CC0008D4613067003A2856887ED3E688701473D
:101CD00013083004938601830D463C876373F80034
:101CE0001D31B385E6008C21138517004205A297AC
:101CF00041818CA368870507E311C7FEA2854A8648
:101D0000EFF07F9F370500200325050F9387418360
:101D10004E879306300413868183CA85EF60700472
:101D20002A844A85EF208078FC201307F00F638413
:101D3000E7008507FCA0F820954763E5E7028547A3
:101D4000B397E7001307803EB387E702C207C1835A
:101D50009387371F1307401FB3C7E7029EA4C9BD6F
:101D60007D54D9B7BD67938707A6DDB7EFE28FF83B
:101D700004514111AA898D452685EFF0BF9693063F
:101D8000E1000D46A6854E85A9336304050E40414A
:101D90002A8928871304040F894613069003A28515
:101DA000EFF05FB213060024A2856887EFF05FAD05
:101DB000914613062003A2856887EFF0BFB02A8AF8
:101DC0006887C84CEF10B02A2A86A2855285EFF0AA
:101DD0003FB58D4613067003A2856887EFF09FAE6E
:101DE0006887014713083004938601830D463C87BA
:101DF0006374F800EFF03FB1B385E6008C211385E2
:101E000017004205A29741818CA368870507E3105C
:101E1000C7FEA2854A86EFF01F8EB707002003A5F4
:101E2000070F4E879306300413868183CA85EF60BF
:101E300030072A844A85EF206067FC201307F00FE3
:101E40006384E7008507FCA0FC2025476365F70253
:101E50001307803EB387E702C207C1831307401F01
:101E60009387371FB3C7E70222859EA441016FE025
:101E7000AFEB7D54D9B7896793870771C5B7EFE298
:101E80006FE700514111AA8999452285232E04004C
:101E9000EFF05F859306E1000546A2854E85153972
:101EA00059C544412A8928879384040F894613061B
:101EB0009003A685EFF01FA103D66902A685688767
:101EC000EFF01F9C8D4613067003A6856887EFF020
:101ED0007F9F6887014713083004938601830D466E
:101EE0003C876374F800EFF01FA2B385E6008C21F5
:101EF000138517004205A69741818CA368870507C3
:101F0000E310C7FE4A86A685EFF0EFFE37050020F6
:101F10000325050F938741834E879306300413866C
:101F20008183CA85EF60E0634A85EF2020587C20DA
:101F30001307F00F6384E70085077CA0782095479E
:101F400063E6E7028547B397E7001307803EB38750
:101F5000E702C207C1831307401F9387371FB3C728
:101F6000E70201451EA441016FE00FDCBD679387C6
:101F700007A6D5B7EFE2AFD603A9C1B20111B28966
:101F8000832B090263890B0A83C74B00CDC73A260E
:101F90009307B00263F1E70A5C4209479423639C0C
:101FA000E6080346E902014799469375F70F63F483
:101FB000C5006318D706C833D8232205598DF823E6
:101FC0004207498FE8336205598DEF10500A83A705
:101FD0000B006312F506370800209307880F23A231
:101FE000070003D7A90023A007009307B002130836
:101FF000880F63F2E704C16A83DD89009387DAFF03
:10200000014B130C000F3EC4138A81A0CE8C628456
:1020100083D7AC006377F40283A74C00914A3EC299
:10202000B5A2B305E90005073385E70083C585023E
:10203000283DE30CB5F64E85EF20404705616FE083
:10204000CFCD83AC0C001D8CB38DFD404204C20D7E
:10205000418093DD0D01E39D0CFAF1BF930624004E
:10206000C206C182E3E986FC83D5AC0013061400E6
:102070006357B6021833930540036384B70A63E7D6
:10208000F50285456387B704F1CB0D466380C70829
:10209000130630036381C708FD54014D3DA803A713
:1020A0000C00630B072658431823F1B7130660038F
:1020B000638BC70863E2C7081306A003638BC708D6
:1020C0001306B003E39AC7FCE31757F7114D954485
:1020D00029A0E31257F7114D9944A2473A94E3CC53
:1020E00087F43384E60042044180630C0D0602CE7F
:1020F0009D4763F9970EB7D5000037C5000093855B
:10210000858213050549EF80507A01A0E3F5E7F2D7
:102110009D44114DD9B7E31057F3114D8D4475BF50
:1021200001478547E319F7F09307000FE315FCF02B
:10213000054D81445DB701478547E31EF7EE054D28
:10214000854461BF0147E31857EF114D894471B7CA
:102150000147E31257EF114D914441B713140601A3
:10216000418083D7AC006363F4021D8CB38DFD40C6
:102170004204C20D418093DD0D01E37EB4EB83ACDC
:102180000C00E38A0CEA83A74C003EC2637AB401D8
:1021900092479306F00F338787001C23E390D7EC18
:1021A00083470800D1EF63170B0A83471800E384C5
:1021B00007E8938781A0D823954683A54900631833
:1021C000D70C83C75B0005476395E70A032509021F
:1021D000EFF04FFB8347F9024A85A18BD5C7EFF09B
:1021E0006FD591BDB30798009C23A5FF93170D01F0
:1021F000C1833E866C0866853EC6EF206075B24797
:10220000E39BA7E2B70700201388870F63135D03E2
:102210007245EF10C065B70700202ACE1388870FDC
:10222000B3079800054798A3F2478A04D2949CC04C
:102230000DBF8547E311FDE08347C1013ECECDB719
:1022400083270A00230008000547638FE70009473A
:102250006398E700014B930DC006130CC0027DB3D9
:102260000D47E392E7F4054B930DC00E130CC00627
:1022700071BBF51793F7F70F0947E36EF7DA0325FC
:102280000902EFF02FF04A85EFF0CFCD6DB39946FC
:102290006310D70403C75B0089469307D7FF93F702
:1022A000F70F63F5F6008547E317F7D80325090212
:1022B000B145EFF02FC393864183138641834A854E
:1022C00093854183EF1010634A85EFF05FBBA5B3A0
:1022D0000946E312C7D603C75B00E31ED7D4034702
:1022E0002800E30A07D40324090288472EC22314D6
:1022F0000400EF10C057924508CC4A8598399C29B4
:1023000022075D8FBC29C2075D8FBC39E207D98FD8
:102310005CCCEFF09F9005B313074003E382E7E046
:102320006360F7020547E388E7D0E38907E20D47DA
:10233000E383E7D013073003E38FE7CE0147A9BB60
:1023400013076003E380E7E0E3E7E7DE1307A0039A
:10235000E380E7E01306B0030147ADB3185139C776
:10236000EFE2EF9A5C33954663E4F6028D4663F440
:10237000D70295C7B14663F6F602B7C5000037C568
:1023800000009385057213050549EF80105201A0E6
:10239000A946E391D7FE23030700EFF03F9D6FE0CE
:1023A0004F9923030700EFF09FADD5BF8280EFE286
:1023B0006F94411111E937C500001305054FEF80F7
:1023C000D04E41016FE04F960051AA897DD8583018
:1023D000A147E318F7FE98415C4CE314F7FEB145C2
:1023E0002285EFF02FB09306E1001146A2854E85BD
:1023F000EFF02FEEAA8421CD0329450028879146CE
:102400001309090F13062003CA85EFF0AFCB2A8A00
:102410006887484CEF10A0452A86CA855285EFF0A0
:102420002FD02686CA856887EFF0EFAC37050020ED
:102430000325050F938741834E8793063004138647
:102440008183A685EF60E0112685EF2020067C20A1
:102450001307F00F6384E70085077CA0D1471EA413
:102460008DB7EFE22F8900514111AA899545228548
:10247000EFF04FA79306E1000D46A2854E85EFF0E1
:102480004FE571C144412A8928879384040F894606
:1024900013069003A685EFF0EFC203D66902A68566
:1024A0006887EFF0EFBD8D4613067003A685688739
:1024B000EFF04FC16887014713083004938601830A
:1024C0000D463C876374F800EFF0EFC3B385E60078
:1024D0008C21138517004205A69741818CA368873C
:1024E0000507E310C7FEA6854A86EFF0CFA0B70721
:1024F000002003A5070F4E879306300413068401BE
:10250000CA85EF60E019AA844A85EF10307A7C20F2
:102510001307F00F6384E70085077CA07C20254724
:102520006365F7021307007DB387E702C207C18323
:102530001307401F9387371FB3C7E70226851EA4E2
:1025400041016FD07FFEFD54D9B79567938707E2AD
:10255000C5B705C11C51014591CFDC33294705455D
:102560006386E7001385C7FF133525001375F50F44
:10257000828001458280EFD2FFF70051411161C096
:102580005C30D5CF1C4C232E0400232C04002320C8
:102590000402232204022328040223260402232403
:1025A00004022317040023280400231A0400AA8429
:1025B0003EC64537814559C52285EFF0AF92930657
:1025C000A1001D46A2852685EFF0AFD02A8929C932
:1025D00083294500288591469389090F13066003D6
:1025E000CE85EFF02FAE2A8A68853245EF1020287D
:1025F0002A86CE855285EFF0AFB24A86CE856885B1
:10260000EFF06F8FB707002003A5070F268793060B
:1026100030047000CA85EF60A0084A85EF10106989
:102620009386418313864183268593854183EF10EA
:10263000702C5C2089C7EFF08FBD2302040041019C
:102640006FD09FEE2285EFF0EF89E5B7EFD23FEC38
:1026500019E937C500001305054FEF8010254154D7
:1026600022856FD01FED8347F502AA84858B91E701
:1026700037D500001305858ACDB77A319307F0234B
:102680000329050263E4E7007D54D9BF631F0902F3
:1026900013054003EF1080742A897DD588D0130676
:1026A000400381454A85EFD09FE9EFF0AFBA2A8415
:1026B00061FD85472302F90083C7F402918B81EF06
:1026C00089454A85EFF00F8261BF83474900E1DB0E
:1026D000EFF0EFB3E9B72685EFF06FFA2A8449D11E
:1026E0002685513D55B7EFD21FE0B707002083A4E0
:1026F000C7148969411193890971138A0183B70A43
:10270000002081E441016FD09FE1805005C0583026
:1027100011CF562891CE3E288507C207C1833EA817
:102720006398F6002685813D26850D378440D1BF0C
:102730001E28638F070E9386F7FF16A885466399B8
:10274000D70EA947E3E4E7FE9307204333D7E7001A
:10275000058B69DF91452285EFE0DFF89306E10004
:102760000D46A2852685EFF0CFB6AA8B41C103297D
:102770004500288789461309090F13069003CA8567
:10278000EFF04F94F230CA856887EFF06F8F8D4677
:10279000CA85130670036887EFF0CF9268870147F8
:1027A000930530048D463C8763F4F500EFF0AF9558
:1027B0003306EA001022138517004205CA974181AB
:1027C00090A368870507E310D7FE5E86CA85EFE011
:1027D0009FF203A50A0F2687930630041386818390
:1027E000DE85EF50F06B5E85EF10504C7C201307B8
:1027F000F00F6384E70085077CA07820A546CE878C
:1028000063E8E6009307803EB307F702C207C1837F
:102810001307401F9387371FB3C7E7023A281EA448
:102820005E28998F0547E353F7F085871EA8FDBD05
:102830007E24E38D07EE9386F7FF76A48546E39723
:10284000D7EE9376B70F6385F600A947E310F7EE4E
:102850002685EFF01FC13A285E24998F0547E3577C
:10286000F7EC85877EA4D9B5EFD2DFC8B707002083
:1028700003A4C714854431499949214A8D4A154B0F
:1028800019E06FD07FCA1C5091C79A2763F6E40005
:102890007D179AA70040EDB7E31E97FED833239427
:1028A000070063042701631637012285EFF02FDD4F
:1028B000D5B7631F9700FC2322856365FB00EFF00B
:1028C000CFB5C9BFEFF03FCB2285EFF03FD8D9B7E6
:1028D000631C4701FC23228563E5F400EFE09FE5DC
:1028E00055BFEFE03FE87DB7E31657FBFC23228599
:1028F000E3EEF4FAEFF08FC771BFEFD25FC1AA84A5
:1029000061473387E402938781A24111138481A236
:10291000BA978C43A1C1C84103A9050001EDB7D501
:10292000000037C500009385059113050549EF8028
:10293000C07701A02EC6EF107037B2452145EF10C9
:10294000606BCA85E31909FCE147B387F402A297DB
:1029500023A0070061453385A4021946938581822F
:102960002295230A050023190500232405002322AC
:1029700005003105EF80406841016FD09FBBEFD269
:102980007FB7938681A28142814F014FA94EA9480A
:10299000294429478147938481A22943854303CE53
:1029A0004601631D6702630C0E0801CD0329050073
:1029B00003A846006317090155CA03A886006307E8
:1029C000C80A03D8260163177E0603AE0600630E0D
:1029D0000E046367E801428FBE8E19A0E3170EFC58
:1029E0008507139807011358080193170801E1069A
:1029F000C187E31668FA8547639AF504B2892A8984
:102A0000631D6706630FE402E147B307F402A6976C
:102A10009C43ADC3B7D5000037C500009385C58C76
:102A200013050549EF80606801A0E36BF8FBC28FD6
:102A3000BE887DB7E36658FAC2823E8455B73E87AA
:102A400045B763988802768463961E03FD5739A8BC
:102A50006305090083260900D4C3E147B307F702E1
:102A6000BE942399040023A43401BA873E856FD015
:102A7000BFAB4684228551352287E147B307F70271
:102A8000A697D42BF1D6B7D5000037C500009385A3
:102A9000458E13050549EF80406101A0EFD2BFA428
:102AA000411101EDB7C5000037C500009385054F02
:102AB00013050549EF80605F01A02A892E8AB28A3A
:102AC000F145130600283945B68CBA8B3E8C428BF3
:102AD00046C6EF10D027AA8445CD3A25ED47B24827
:102AE00063EDE700B7D5000037C500009385C59CAE
:102AF00013050549EF80605B01A040414685EF006A
:102B0000305668A0218168B08349E9029947638DF6
:102B1000F900B7D5000037C50000938505A013055F
:102B20000549EF80805801A01946E6851305840009
:102B3000EF80804C1946E28513052401EF80C04BDD
:102B40001146DE851305E400EF80004B1146DA855F
:102B500013058401EF80404A85471CB0A1473CA083
:102B6000056791475CB013076780D6865286A685B5
:102B700023000400A3010400230234014A85EFE08E
:102B80005FAF2685EF109012014541016FD03F994C
:102B90007D55E5BFEFD23F95411191E937C5000062
:102BA0001305054FEF80605041016FD05F9744419E
:102BB000AA899C309820A207D98F1307001063912F
:102BC000E702D8209947631DF700D8309147631971
:102BD000F700BC30B820A207D98F21476386E700F1
:102BE0004E85EF10B00CC9B72E8411469385E400D2
:102BF0002800EF8060401146938584016800EF80D3
:102C0000A03F5C4081C732476384E702814A09499B
:102C10000347E40299476300F702B7D5000037C5C0
:102C200000009385059413050549EF80004801A035
:102C3000854A0549F1BF2245138A840015E1FC301D
:102C4000F820A207D98F13070010638DE708130738
:102C50000020E397E7F82C002285EFF04FF549B705
:102C6000A285EF00B03161FDA2471307000E93F774
:102C7000070FE386E7FC2286CA852800EFF03FD0E5
:102C8000E34F05FAE147B307F502138781A28946AE
:102C90001946D285056B130C8402130B0B80330984
:102CA000F700B107230AD900232489003305F70070
:102CB000EF8080342319090083250900C9D19C4184
:102CC00083AB450021452320F900EF10A0325A873D
:102CD000D2866286DE852285EFE0BF995E85EF10A1
:102CE000E07CD9BFE38E0AEE93068402894813087C
:102CF0008100D287130744005286B6852285EFF003
:102D0000FFD9F9BDEFD2BF80930685022E88854892
:102D1000938781821307450013860182B685EFF001
:102D2000FFD76FD01F81EFD20FFC138481A28144A3
:102D3000130AB012854A0D4B1149894B114CA94910
:102D4000582819CF3E288507C207C1833EA863666D
:102D5000FA00631D57016375F9022685EFF0FFB98C
:102D600085046104E39E34FD6FD06FFB631567013A
:102D7000230A8401F5B7E31527FF230A7401CDB7B1
:102D8000084493054400BD3FE1BFEFD2AFF6E147F1
:102D90003306F6022E8A938581A20547B384C500C7
:102DA000DC28636DF700B7D5000037C500009385B8
:102DB000059713050549EF80402F01A01304C600B5
:102DC00009472A892E9493098502639DE700BE284E
:102DD0001307C0116373F7021106B295253719E185
:102DE0008D47DCA8056713070780A2864E86D2852B
:102DF0004A85EFE01F886FD02FF31307D010E373DD
:102E0000F7FE11063388C500854893878182130732
:102E10004500CE862286CE85EFF05FC8C9B7EFD2D7
:102E20006FED2E8AAA89AA8503250A0041113284F2
:102E3000EF00D0146313051483270A001307000E54
:102E400093F6070F638BE612638907124E8685455A
:102E50005285EFF0DFB2AA846357050062056185F1
:102E600041016FD06FEC9307E00763DDA700B7D592
:102E7000000037C500009385059A13050549EF80CA
:102E8000C02201A061473307E502938781A213891D
:102E900081A2BA97D82B631B07100547D8AB23A490
:102EA0003701854AD2854E85EFF0DFE509EDE14730
:102EB000B387F4020547CA97D42B6396E600639460
:102EC0000A002399070049DCE146B386D402B30720
:102ED000D900D82B854763F2E702B1060567B7072B
:102EE000002013070780CA9613868902A2854E85A3
:102EF00023829710EFE0EFF7A5B7E313F7F6A28769
:102F0000B6279A27639FE600984301CFB7D5000004
:102F100037C500009385059B13050549EF80E01830
:102F200001A0D8271377070439EB9C43F1FB2285D6
:102F3000EF101004A9A8850736871443EDFE08C3D7
:102F400009476367F700014521BF2E878547F5B71D
:102F5000E147B384F4029C41C8412EC62699232040
:102F6000F900EF10A054B2452145EF10A008E1BFD1
:102F70002285EF10A0537D55E5B54155D5B5228684
:102F8000930500283945EF10702E2A846DD5214510
:102F9000EF10200371DDE147B387F4022320050021
:102FA00040C1CA978C43D5F188C371BF7D55E31DDD
:102FB00004F0814AC5BDEFD28FD5411101EDB7C5EF
:102FC000000037C500009385054F13050549EF80C4
:102FD000C00D01A02E8981EDB7D5000037C50000D6
:102FE0009385459613050549EF80200C01A0B28416
:102FF00001EEB7D5000037C5000093850592130593
:103000000549EF80800A01A02A84AA850842EF00C2
:10301000E07669ED9C401307000E93F6070F639A64
:10302000E60285477C849307E0055C859C3034008C
:1030300093F7F707DC85BC205C86BC30DC8605672F
:103040001307078013068402CA852285EFE06FE22A
:10305000B9A8584014443D8F758F09CFC207416706
:10306000C183130797EA6387E7005C447155A1C3E6
:103070009304C400B706002003C64610E145B3051B
:10308000B602138781A293864610938781A22E975A
:10309000482B854563F0A5020C47639D85008C4055
:1030A00058436399E500CA852285EFF01FCE4101A0
:1030B0006FD02FC8014685452947C82B63FCA50062
:1030C00088476319850003A80400C8436314A80057
:1030D00090A2D1BF05061376F60FE107E31FE6FCC9
:1030E0004A86A6852285EFF09FD3D1B793860182C9
:1030F000B9B7EFD22FC0138781B2032B87004D479A
:103100002A8483490B0093F9F9008A09637837050B
:1031100036250D476374D704584114232147639F14
:10312000E602938A81B203A54A011307000E937643
:10313000050F6385E602AE8483A581B2812519ED72
:103140001A249D4763FCE70091C4DE3013974701C2
:10315000635B07002285EF00B00711C52285EF10E1
:10316000E0346FD06FBC138AE90013990901D2854E
:10317000228513590901EF10002B630805121E2444
:10318000B3852701C205C181E3EAF5FC13060028D7
:103190003945EF10C03B2A8A71D13A2593878900BF
:1031A0006375F700EF10803055BF4841DA854E86D1
:1031B000EF709064CE855285EF10C02701CDB7D552
:1031C000000037C50000938505A713050549EF707A
:1031D000D06D01A0A2855285EF10607519C152858E
:1031E000D1B72285EF10802C5284CE852285032A08
:1031F0004400EF1040233DF183C74A018329440076
:103200002386F90083C75A01A386F90083C76A01A0
:103210002387F90083C77A01A387F90083C70A01CE
:103220002388F90083C71A01A388F90083C72A01FC
:103230002389F90083C73A01A389F90023000A0012
:1032400081C4DE30A18BC1C783473A0003472A00FF
:10325000A207D98F41675D176379F706A507C207F3
:10326000C1832301FA00A183A301FA00FD5723843F
:10327000F90023850900A385090081C4DE30858B10
:1032800091CBCA854E85EF0060732385A90021810B
:10329000A385A9002688854701479306F00F0146BC
:1032A0009385C1B322856D2955BDD2852285EF1046
:1032B000601805DDB7D5000037C50000938585AAE5
:1032C00013050549EF70705E01A0A10749BF2301F6
:1032D0000A00A3010A0059BFEFD2CFA1835985008C
:1032E000ED4701112A842E8A63F33701F1491389CE
:1032F00089009315090113060028C18113052002D6
:10330000EF10E024AA844DC13E2563FD2701B7D507
:10331000000037C50000938545A413050549EF70EB
:10332000D05801A00329440040418D474E861CA07F
:10333000CA85A300440123020400A302040023035E
:103340000400A303040013058400EF70F04A034750
:10335000D9008347C900680822075D8F8347E900C9
:10336000C2075D8F8347F900E207D98F3ECE8528DB
:103370002A8805C95E3123010400A3010400A18B42
:1033800089CBAE242AC62285152D324828A021815A
:1033900028B0854701479306F00F700881452685C0
:1033A000C1262685EF10801005616FD0EF97834707
:1033B000F502858B95C35841AA85014505C383A7AE
:1033C000C1B30545630CF700EFD26F943E857D26AF
:1033D0003335A0006FD0EF95014582808280B7071A
:1033E000002083A7C71495E7370700200327871419
:1033F00019CF8346F7021546958A639AC60054434F
:1034000099C610219306F0076303D600BA873E855C
:10341000828083C6F70213F716000DC313D7260068
:10342000058B09CFD84319CB10418C47318F6D8F55
:1034300079DF898A81E6D847E30BE6FC9C4365B7D0
:10344000EFD24F8B40419147AA89834A040013D79A
:103450004A006308F7004E85EF10400501456FD024
:10346000AF8C3C302820AE84A2075D8DD52E93FA18
:10347000FA0083D789008A0A13990A0113590901AE
:103480002A8A6376F500AA854E85EF10602383D7DC
:10349000A900E3E227FD83D78900E3EE47FBCD4790
:1034A000E3FB27FB89C4DE3093F7071089C7CA8581
:1034B000228529234DF118381C2822075D8F3C28CE
:1034C000138681B2138981B2C2075D8F3C38E2074F
:1034D000D98F5CCA5434582493F7070FA206D98EAB
:1034E00078244207D98E78346207558F18CA13079B
:1034F000000E6395E70883C7F402858B99E71834BB
:10350000C5476309F70A014A21A0DC40EDDB268AA2
:103510000325090101CDA685952415FD8327090101
:103520001307000E93F7070FE387E7F2E3050AF2AC
:103530007C20783093F7F7032207D98FE39D07F0BB
:1035400023A441B323229900232489001C20D6857B
:103550004E85BD8B8A072316F900EF00B06D1C3431
:1035600019476387E70845476383E706054763967E
:10357000E708A6854E85EFF0DFB7B1A82685EFF006
:103580001FE31DE5034749019307F007E309F7F639
:10359000B707002003AAC714E3030AF663159A00CD
:1035A000032A0A00D5BF5285EFF07FE075D98DB7A9
:1035B000B9FCB1B7330754013C3334231167A20778
:1035C000D58F13070740E390E7F4268A85B7A685D1
:1035D0004E85EF40305223A401B223220900232458
:1035E00009002316090023280900232A0900BDB574
:1035F000A6854E85EF20D07CF9BF03254901D285F1
:10360000B52A0DE1832749011307000E93F7070F31
:10361000638AE700D6854E85EF00906789454E8521
:10362000EFF09FCB4E85EF00706875B7EFC29FEC4F
:10363000AE8A6C25328905460111638DC500B7D568
:10364000000037C500009385C5AD13050549EF702F
:10365000D02501A03EC63AC436C2AA84C289630EF0
:10366000090CD145EF00305C92462247B24709C5AC
:10367000795505616FC05FEBAE244D46636DB600B2
:10368000B7D5000037C50000938585AE1305054901
:10369000EF70B02101A0C040370A0020130A6A1061
:1036A00014A41CB4834709001CA8834719001CB844
:1036B000834729003CA88347390018B03CB89307DA
:1036C00050041CA08A24692A28A0218128B003550F
:1036D0000A0023030400A3030400592283570A00AD
:1036E00048A02181850748B02310FA0063940A049A
:1036F00083A7418313D787005CA458B413D707016D
:10370000E18378A47CB423050400A3050400638648
:10371000090083D74902858B99C7D1452285792C29
:1037200028A4218128B483A749014A86A6854E850D
:10373000829781B783A70A0075BF3A25CD47E3F981
:10374000E7F254411309C101983A9C2A22075D8F80
:10375000BC2AC2075D8FBC3AE207D98F3ECEE1B7E3
:10376000EFC2FFDA01CA89C583A805006394080087
:1037700093054800EFF09FEB6FC0BFDB9306F5FFAA
:103780007557AA876366D70203C7F5020145098BFF
:103790000DC3D841630FF70094453D8F758F11EB32
:1037A00093C6F6FF33F5F600158D133515008280AC
:1037B000054582801C414111AE8E3EC60145740014
:1037C000294FA5429303F00F930FE00203C80600B0
:1037D00081473373E80393080101BE98138E1700E5
:1037E000137EFE0F3357E80313030303238C68FE95
:1037F0001377F70F63E7020398A22A8876870505F7
:10380000639477026353C8042300F70185061C08FC
:10381000930E1700E39CF6FA230007002E85410162
:1038200082803A88F28775B79388F7FF93F8F80F8C
:10383000635DC80013080101C29783C787FF0507AE
:103840002A88A30FF7FEC6875DBF0145C9BFEFC237
:103850001FCC4146938581B1EFF0DFF56FC07FCD7E
:103860009317850021815D8D420541818280135728
:10387000850193178501D98FB706FF0013178500BF
:10388000758FD98F4167130707F02181798D5D8D81
:1038900082804111231701009376150099C6635663
:1038A000B0001C21FD150505DC8781470547634EE7
:1038B000B7026394E50018215887288741677D1770
:1038C0003E9593570501798DAA9713D50701F98F76
:1038D0003E9581CA9317850021817D8F1375F50F61
:1038E000598D420541814101828009050356E5FF5A
:1038F000F915B2976DBFEFC2FFBF18439442C1677D
:10390000FD173374F70041833A9433F7F6003A9485
:10391000C182A29613D40601FD8EA29613D406018D
:10392000FD8EAA892E8A32893694814ABE84639696
:103930000904638B0A004167931784007D17218077
:10394000F98F1374F40F5D8C5285EFF07FF1AA8428
:103950004A85EFF0FFF02695C167FD172A941355AD
:1039600004017D8C2A94135504017D8C2A941345FF
:10397000F4FF420541816FC03FBB83D5A90003A579
:103980004900EFF01FF12A9493570401658C3E948F
:1039900083D7A900858B91CB931784002180E58F75
:1039A0001374F40F93CA1A005D8C83A9090041B700
:1039B000EFC2FFB5EFF03FF46FC0BFB7EFC23FB546
:1039C000EFF03FED1345F5FF420541816FC07FB633
:1039D000EFC25FB24169AA84814901447D1995E033
:1039E000638B09004167931784007D172180F98F4D
:1039F0001374F40F5D8C1345F4FF420541816FC0D1
:103A0000BFB2AE24C840EFF0DFE82A949357040118
:103A1000337424013E94BE24858B99CB9317840084
:103A20002180B3F727011374F40F93C919005D8C3B
:103A3000844075B7EFC2BFADEFD0AFD119289D2339
:103A40004D2DEF40B009EF10600CEF40E07A6FC0F1
:103A50005FAEEFC2DFABB70700209387373CF19B27
:103A6000370700202328F71009679306078094C3BF
:103A700037060020BE96232AD610B72600183E9798
:103A800023820700938606802320D78037050020F5
:103A900085462302D7801305C5103707002023244D
:103AA000F710EFD0AFCD01CDB7D5000037C500007E
:103AB000938585BE13050549EF70205F01A06FC097
:103AC0005FA763080518EFC2FFA2937735002A8429
:103AD00081CFB7D5000037C50000938585B11305A8
:103AE0000549EF70805C01A0B70900209389091196
:103AF00083A70900930485FF63ECF400B707002057
:103B000083A647111307C5001389471163FDE6001B
:103B1000B7D5000037C500009385C5B31305054927
:103B2000EF70A05801A0370A00201305CA10EFD08B
:103B30000FC88347C4FF81EFB7D5000037C5000029
:103B4000938585B513050549EF70205601A083576D
:103B500084FF096713070780636AF7028356A4FF8F
:103B60006366D70203A709003386E4404206418218
:103B70006306D600BA969622639AC600832509008A
:103B8000BA976380B702B623638DC600B7D500002D
:103B900037C50000938505B813050549EF70E0505F
:103BA00001A0B706002003A58610230E04FE93860D
:103BB000861063F3A40084C263FDE400B7D500005F
:103BC00037C50000938545BB13050549EF70E04DEF
:103BD00001A063EDB400B7D5000037C500009385A0
:103BE000C5BC13050549EF70404C01A06385F40284
:103BF000C82315E16381B7028C426393B70084C286
:103C00008E23231CB4FE9E238965938505806384DF
:103C1000B700BA97B2A30356A4FFB307C7006384E3
:103C2000F402CC238DE18C426393B4009CC2835692
:103C300084FF96A3835684FF8967938707806384F4
:103C4000F600369732A31305CA10EFD00FBC6FC031
:103C5000BF8D8280EFC21F8A1384350071984204A1
:103C60004180AD47AA8463F98700896793870780FD
:103C700063F587008144EDA83144E36DB4FEB709D4
:103C800000209389091103A7090063E8E400B7073E
:103C9000002083A7471163EDF400B7D5000037C5B6
:103CA0000000938505C813050549EF70004001A089
:103CB000938784FF03D984FF998F139A0701135ABE
:103CC0000A01611933094941420913590901637D08
:103CD0008900B7D5000037C50000938585C9130555
:103CE0000549EF70803C01A063048908B70A0020F1
:103CF0001385CA10EFD0AFAB83D684FF83A709002A
:103D00003386D700582225EB896593850580639D0E
:103D1000B600B7D5000037C50000938585CB1305E5
:103D20000549EF70803801A0B706002013078A000C
:103D3000938686103A9403A80600420441800E221E
:103D4000338787006313C80098C2230207000EA3BD
:103D500023114701239C84FE1A23896693860680DB
:103D60006304D7003E9722A31385CA10EFD0EFA9B2
:103D700026856FC06FFB13074401E367E9FE130755
:103D80008A003A9409664204130606804180639DC6
:103D9000C600B7D5000037C50000938585CB130555
:103DA0000549EF70803001A0370600201306861009
:103DB0000C42338787006373B70018C216A323022F
:103DC000070023114701239C84FE1A2389669386EA
:103DD0000680E30BD7F8BA97A2A379B76303051659
:103DE000EFC2EFF213043500719842044180AD47F1
:103DF00063FA870089679387078063F68700014528
:103E00006FC02FF33144E36CA4FEB7040020138588
:103E1000C410EFD0CF99B70600203707002083A742
:103E20008610032E07110966130606803387C741E3
:103E300042074183268593888610B30586406153E7
:103E40006367B7001305C510EFD02F9C4DBFB304B7
:103E5000EE00D42003D80400FDE2B306E340C2968E
:103E600063EF860C9305440163EFB6069306840066
:103E7000BA96C206C182639DC600B7D5000037C599
:103E80000000938585CB13050549EF70002201A042
:103E9000B305DE0023900501BAA123820500054782
:103EA00096A0D8A09A216304C700729736A3370959
:103EB000002013094911639E970283260900D82325
:103EC00019C36395F60223A0F8006384F60215C3B4
:103ED000B7D5000037C50000938545C013050549D7
:103EE000EF70A01C01A00547D8A0D1B79E23F29780
:103EF000F9B71305C510EFD04F91832709002104AE
:103F0000269463FD8700B7D5000037C50000938570
:103F100005C213050549EF70401901A093F734005D
:103F200013858400E38E07ECB7D5000037C5000089
:103F3000938505C513050549EF70201701A0428739
:103F400001B701458280EFC28FDC2A84EFD06F81F8
:103F50001C4080430DC0184098C39377340081CF34
:103F6000B7D5000037C500009385C5CC13050549BA
:103F7000EF70A01301A0EFC0BFFF22856FC06FDB01
:103F80001C45544572218D0723A00600F19B014773
:103F90006343C70082808C4205078CC34E219CC2BC
:103FA000AE97FDB7EFC2AFD635641304C4E09304F7
:103FB000040308401104EFF0BFFCE31C94FE6FC043
:103FC0004FD7EFC2CFD4AD4763FBA70037D5000072
:103FD0001305C5DEEF70600D01456FC08FD59317D7
:103FE000250035651305C5E03E9508413105EFF024
:103FF0009FF5E5B7EFC2AFD1AD47411163FBA70015
:1040000037D50000130505DBEF70200A41016FC0B2
:104010004FD2EDDD93F7350081CFB7D5000037C51E
:1040200000009385C5DC13050549EF70000801A069
:104030009317250035651305C5E03E9500412EC652
:10404000EFC03FF25C44B245984398C18CC3EFC0C7
:104050003FF26DBF51558280EFC26FCB01EDB7D5F6
:10406000000037C500009385C5F513050549EF70BD
:10407000C00301A00347F502954613765700631C61
:10408000D600858989C9544199C6218B09C79305F2
:104090004500EFE03FC76FC0CFC9EFC24FC7011166
:1040A00081EDB7D5000037C500009385C5F4130531
:1040B0000549EF60907F01A05C4198412A84AE845D
:1040C00001456305F7021CC232856C083ACE32C640
:1040D000EF00106E32466C083285EF4060719C40F4
:1040E000228585455CC0EFF03FF7054505616FC04F
:1040F0004FC48280EFC2AFC10111AA8432892E84DD
:1041000099E113844183631409001389418399E27F
:10411000938641831C4099C3814709A87008A285F2
:10412000268536C6EFF07FF7B2468547032709009C
:1041300090446303C70098C49842D4446303D700F3
:10414000D8C491E77008A2852685EFF01FF50561B8
:104150006FC02FBEEFC2AFBB41112A8419E937D51A
:104160000000130585ECEF605074228541016FC09B
:104170004FBC89EB37D50000130545EEEF60F072B8
:104180000144E5B799E19385418319E213864183A0
:1041900099E293864183B704002037450000130558
:1041A000450558CC03C7041548C841657D1548D05E
:1041B0002309E40223280401228523220400232466
:1041C000040023260400A307040223000402A30022
:1041D000040223010402A30104023EC6EFF09FF192
:1041E000B247228593840415829759F9B7070020B6
:1041F00083A5C7141387C7141305F00F834724033F
:104200006394A70023090402AE871306001099EFF8
:10421000834724031306E00F81466385C7008507A3
:1042200093F6F70F0CC094A000C381B7631DF40090
:10423000B7D5000037C50000938585F01305054903
:10424000EF60B06601A07D1601EEB7D5000037C55E
:1042500000009385C5F113050549EF60106501A0C5
:104260000348240383C627036396060185062309B2
:10427000D40269B79C4361BFB707002023A4A714E9
:104280008280EFC2CFA809E937D50000130585FC6D
:10429000EF60B0616FC0EFA98347F50293F6170096
:1042A000F5FA93E71700A307F5028D45EFF0DFDA83
:1042B000D5B7EFC2CFA509E937D50000130545FAF8
:1042C000EF60B05E6FC0EFA68347F5022A8413F754
:1042D00047006DFB93E74700A307F502EFE00F8867
:1042E0008D452285EFF05FD7F1BF19E9EFC22FA20C
:1042F00037D50000130505F8EF60305B6FC06FA382
:104300008347F50213F7470009C7ED9BA307F502A2
:1043100082808280814711C5B707002083A7C71418
:1043200099E33E85828003C7270305071377F70FBC
:10433000E309A7FE9C43EDB7EFC26F9DEFC07FC2BC
:10434000B7070020A3880714EFC09FC2B70700205B
:1043500003A5471509C53C5D89C7EF00101D6FC057
:104360004F9D4845C5BF11EDEFC26F9AB7C500001C
:1043700037C500009385856813050549EF60F05245
:1043800001A04167AA87054563F6E5040145B9C167
:104390009A2793960501C1823697420741830545C6
:1043A000636AD7020385C700635B0500D0430545F8
:1043B000B305B6401386070163F8C5008280054542
:1043C00011CAD043B305B640B227CCC39AA7B29660
:1043D000B6A701458280EFC28F931374F6FB854721
:1043E0004111630DF400B7D5000037C50000938577
:1043F000450313050549EF60504B01A0AA842945E8
:1044000032C62EC4EFF0FFBB01CDA24532462320B9
:10441000050044C10EA52EA550A5A306050062A562
:1044200041016FC00F91EFC28F8E0146EFF0BFF3D5
:104430006FC02F90EFC2AF8D01EDB7C5000037C53B
:1044400000009385856813050549EF60104601A0BB
:104450004167AA87054563F1E502014591CDBA2779
:1044600093960501C182637BD70037D50000130501
:10447000052AEF60904305456FC0AF8B158FD04381
:10448000BAA79A27B295CCC3158F9AA70145EDB765
:10449000EFC2EF8763D80500B305B040EFF09FF996
:1044A0006FC02F890546EFF01FECDDBFEFC28F8490
:1044B000411115C5AA858144094985492EC6EFC019
:1044C0005FAAB245E0251DE4B7D5000037C500005E
:1044D0009385452113050549EF60303D01A0B7C51F
:1044E000000037C500009385856813050549EF6016
:1044F000D03B01A07D141374F40FE0A52EC6EFC0CD
:104500003FA715E0B2452D45DC258041BD8B638575
:104510002701639E37012945EFF0DFAD850493F451
:10452000F40FA28541FC268541016FB0FFFF89E7AA
:104530002E85EFF00FD9DDB7B7D5000037C50000E5
:104540009385C52213050549EF60303601A0EFB20F
:104550007FFA9307100441116306F60863E0C7026F
:1045600085476301F608B7D5000037C5000093857D
:10457000850113050549EF60503301A013140501AF
:104580009307201841806307F60693070028E31C71
:10459000F6FC0D04938735007198F19B3E9442041C
:1045A00041802A891305040142052EC641816364B6
:1045B000F40A6362F50AEFF07F82AA8405C9420912
:1045C00013590901B2452A994D09C1671379C9FFE9
:1045D0009387070823200500232225010EA52EA579
:1045E0005CC529A00145EFF01FDFAA8426854101A3
:1045F0006FB09FF3416981498144130A0020130978
:104600002908930A00202D452EC6EFF09F9BB24546
:1046100029E53704002013041415EFC09F940349C3
:10462000040085471CA01379F90FEFC07F94631035
:10463000090237450000814513058533EF40A03E50
:1046400019C5EFC01F9223000400EFC07F9281C400
:104650002685EFF0BFE5814451BF130734009377FF
:10466000C7FFB307FA40BE86C207C18363F3F500F4
:10467000AE862A944D047198939706012320050075
:1046800040C10EA536A523262501719BC183631D5C
:104690005701B7D5000037C50000938545FE1305C7
:1046A0000549EF60902001A091C823A0A9009D8D2D
:1046B000C205C1810144AA89B9F50DBFAA84C5BF4D
:1046C000EFB2FFE401EDB7D5000037C500009385D8
:1046D000052413050549EF60501D01A01E252A84FD
:1046E00063FDF506AE84B387F5402E2463EC950296
:1046F0005C24BD8BB9EB638A95044C402285818D87
:10470000A695C205C181EFF0EFD42A841DEDB7D57F
:10471000000037C500009385052713050549EF60A4
:10472000D01801A01A248D8CC2043E971AA4004010
:10473000C18045FCB7D5000037C5000093858525AD
:1047400013050549EF60701601A0084026A406A4D1
:1047500019C1EFF0BFD5232004006FB09FDD814762
:1047600019E13E8582808507C207C1830841CDBF1C
:1047700015C9EFB2DFD92A84EFC0AFFE7C248507CC
:104780007CA4EFC0EFFE7C2481EFB7D5000037C5D5
:1047900000009385C52813050549EF60101101A09D
:1047A0006FB03FD98280EFB29FD611C189ED37D566
:1047B000000013058504EF60500F6FB09FD796255A
:1047C00036971AA53E851C411A25F5FB3E25638DBB
:1047D000E700B7D5000037C500009385050813052D
:1047E0000549EF60900C01A09A250CC1BA971EA54F
:1047F000E9B7EFB2DFD12E84EFF0FFFA2285EFF0B8
:104800003FF76FB01FD3EFB2FFCE411191C59E2588
:104810002E84328963FCC70037D50000130545128A
:10482000EF60B008415541016FB01FD0AA8419C58F
:104830001A25B387C60081496357F70037D50000B2
:1048400013058515F1BFBE243A24958F33073741F0
:104850006373F700BA874A8A6366F900139A0701FF
:10486000135A0A01C8404C4052863695CE9536C63A
:10487000EF608078B246BE24330949414209D2969E
:10488000D2991359090163FDD700B7D5000037C588
:1048900000009385851813050549EF60100101A0FC
:1048A0003A24637D3701B7D5000037C500009385F2
:1048B000051A13050549EF60407F01A0631637070D
:1048C0000040814935E06305090437D50000130530
:1048D000C51BB9B799C4BA249E246314F7009C4041
:1048E00091EFE31209F601453DBF81466DD4814643
:1048F0003A241E24E310F7FE1C40E9DF37D5000000
:104900001305C51DEF60607A695531BF6DF0E1BFD9
:10491000CA89E392D7FC8440E9F8E30909FE37D558
:1049200000001305C51CEDBDE394D7FCEDB7EFB255
:104930001FBE91E937D500001305450CEF60E07606
:1049400041556FB01FBF92258146EFF0DFEBD5BF19
:10495000EFB25FBA19E937D500001305050EEF6015
:10496000C074014422856FB03FBC2A892E8AB2846C
:10497000014495E137D5000013050510EF60E072A2
:10498000D5B78355A90081CE63EBB6008D8EC206E4
:10499000C18203290900F9D4E31509FEE1B7958D19
:1049A000C205C181AE8963F3B400A689832549009D
:1049B000C20993D90901B69533058A004E864E94F3
:1049C000B3843441EF6040634204C2044180C1803B
:1049D0008146C1B7EFB21FB211E937D50000130508
:1049E000052CEF60806C41556FB01FB4AE8A91E525
:1049F00037D500001305852DEDB71E252A84328A90
:104A0000B284814963F5C70437D500001305452FEB
:104A1000EF60A0697D55C9BF01ECB7D5000037C56F
:104A200000009385453113050549EF60006801A03A
:104A30000359A40063F3240126894840B3853A0151
:104A40004A86EF60605B0040B3842441CA99E9F470
:104A50000145E38B49F9B7D5000037C500009385C0
:104A6000C53213050549EF60406401A0EFB23FAACB
:104A7000B2842E868E24EFF09FAD2A8405C1A685D0
:104A8000EFF0FFEA01CDB7D5000037C500009385F0
:104A9000050B13050549EF60406101A022856FB049
:104AA0005FA9EFB2DFA601EDB7D5000037C5000062
:104AB0009385454113050549EF60205F01A05849E2
:104AC00091472A846309F7009D476303F7028D46E7
:104AD0008147631CD700EF20704BAA8705E19547FB
:104AE0005CC82285EF20907C81473E856FB07FA413
:104AF000EF20D049AA8719E1A547DDB77D57E39696
:104B0000E7FE7E2C93E787007EACF9BFEFB23FA0B3
:104B1000EF60A06B4A05F17749813E952396A1800D
:104B20006FB03FA1EFB2BF9E58498547631DF700A4
:104B3000B7D5000037C500009385854413050549A6
:104B4000EF60A05601A0AA850545EFF0AFCA6FB08F
:104B50005F9EEFB2DF9B01EDB7D5000037C50000C7
:104B60009385C57C13050549EF60205401A0AA87F1
:104B70004E3514591055FA3B3385D5401308004083
:104B800032956374E80013070040420741833307FE
:104B9000E54063450700EEB76FB0BF993307D640D5
:104BA0006356E000239707020145FDB7918E4167E8
:104BB00063EDE600B7D5000037C500009385057F9B
:104BC00013050549EF60604E01A0F6B7F1BFEFB2E3
:104BD0001F9409E937D500001305455AEF60E04CF2
:104BE0006FB03F95584985472A84631DF700B7D5B4
:104BF000000037C500009385C55B13050549EF60CC
:104C0000C04A01A05A35856793870780BA95C205C7
:104C1000C18163E4B70063F3E500BE854EB422852D
:104C2000EFF03FF39307F01FE3FCA7FA7E2C2285F9
:104C300093E727007EACEF2070675DB70DC1EFB240
:104C40001F8DAA854841411109C52EC6EFF01F8668
:104C5000B2450D45EFF00FBA41016FB09F8D8280D4
:104C600011E18280EFB2BF8A0041EFF03FFD228563
:104C700065FC6FB01F8CEFB29F89411101EDB7D574
:104C8000000037C500009385455E13050549EF60B8
:104C9000C04101A02AC60D45EFF0AFB22A8401C978
:104CA000B2455146EF6040354840EFF07FAC228579
:104CB00041016FB01F8811EDEFB27F85B7D50000BD
:104CC00037C500009385054913050549EF60E03DB0
:104CD00001A0938781803707002088430327471668
:104CE0003A9588C3828011EEEFB27F82B7D500007B
:104CF00037C500009385054213050549EF60E03A8A
:104D000001A09DC1FE318DC393068002014763FA65
:104D1000F600938787FDC207C1833E876373F50062
:104D20002A8713150701418182803C5D99CBEFB240
:104D30000FFE2A843E85EFF0BFF2232C04066FB0ED
:104D40004FFF8280EFB2AFFC09E937D500001305B1
:104D5000C54BEF6080356FB0CFFD5C4905472A84B5
:104D6000E37BF7FE2947E388E7FE685D09C5EFF0BE
:104D7000EFF3232E04063C5C81C72285EFF0FFFA97
:104D80002858FD575EB8EFF0BFED6858EFF05FEDC3
:104D900023280406232A0406231604066DBFEFB257
:104DA0000FF781EDB7D5000037C500009385854D1D
:104DB00013050549EF60602F01A001EDB7D5000094
:104DC00037C500009385454F13050549EF60E02D79
:104DD00001A01C412E84639DF502DC451CC12326E5
:104DE00004002285EFF01FF65C4829476399E7022B
:104DF0003C58A1EF7C58ADC7B7D5000037C50000BF
:104E00009385C55213050549EF60202A01A0BA8792
:104E1000F9D7D847E31DE4FE5844D8C7C9B785443D
:104E2000638F97007E2C13F7170079D393E7270041
:104E30007EAC2285EF2090475C48E39B97FA232ABB
:104E40000400231D04006FB0CFEEB7D5000037C5B6
:104E500000009385455113050549EF60002501A029
:104E60003C5CF1DFB7D5000037C500009385855461
:104E700013050549EF60602301A0EFB2CFE609E911
:104E800037D5000013054534EF6020226FB02FE9BD
:104E90005C49854B2A84639D7701B7D5000037C5EF
:104EA00000009385053613050549EF60002001A039
:104EB0002947639DE700AA85370500201305C5161D
:104EC000EFF0FFED2285EFF0FFC5C9B7832A450556
:104ED000032B850283294509032A0501262DB5EBFD
:104EE000014991CC370700201307C7151C43639B6A
:104EF000A7045C451CC3232604008144014968586B
:104F000019C1EFF0FFD5285819C1EFF07FD5285C03
:104F100019C1EFF0FFD4630D09000358C401A6873F
:104F200013074400A2865A86D6852285EF20702A70
:104F30002285EFF03FBFE38B09F4CD55528582996E
:104F4000B1B7BA87CDDBD847E31D87FE5844D8C731
:104F50005DB72E89AA853705002013054515EFF0AA
:104F60001FE4B7070020238C771551BFEFB22FDA6B
:104F70008545EFF09FF06FB0CFDBEFB24FD92A84B9
:104F80000DE5B7D5000037C500009385C54513056D
:104F90000549EF60801101A098411C40C44563158C
:104FA000F7002E85EFF09FFCA685FDF56FB06FD85A
:104FB00031C5EFB2CFD518412A841DC7B7070020ED
:104FC000AE8483A54715EFF05FFBB707002083A5EC
:104FD000C7152285EFF07FFA81C89C4091C7B707BB
:104FE000002083A7071699E36FB0AFD4944318400D
:104FF0006394E600984098C3DC47F5B78280B70712
:1050000000203707002083A7471583254716014650
:10501000814691EB8DC6EFB28FCF81453685EFF09B
:10502000DFE56FB00FD1D84B6319A700D853338792
:10503000E5406364C7003A86BE86DC47D9BF8280FC
:10504000EFB2EFCC2A840545EFE0BFF7AA872DE940
:1050500037090020032549151309491569EDB707DC
:10506000002083A7C716B704002003A64416814674
:1050700093844416639C070C19C1EFF03FEF05457C
:10508000EFE03FF4AA870DED2545EFF05FF705450A
:10509000EFE03FF3AA870DE52145EFF05FF6054508
:1050A000EFE03FF2AA8709ED131784016187634897
:1050B000070A22875DE40545EFE0BFF0AA872DC906
:1050C0003E851306000A8145EFB06FC705671307D9
:1050D00007802314E506371700081307078058D503
:1050E0007D5738B519472312E5042311E504370726
:1050F00001027D1758D93707002003274716AA87D2
:1051000000AD58D137070020034797162301E50269
:1051100037070008050778C537570000130707341D
:105120002324E50837E76D00130707D0232CE50893
:105130003E856FB00FC07E2D444513F7870009C729
:10514000DD9B7EADEFF0FF95268509BFD853330771
:10515000E6406364D700BA863E85DC4721BF13076B
:10516000F0078326090003A804007D171377F70FC3
:10517000014691E6A9D33E85EFF05FDF2DBF8C2E6F
:1051800063E9E500639CE500C8523305A840636706
:10519000C500D0522E87B6873306C840D446D1BF4B
:1051A000EFB2EFB601EDB7D5000037C5000093852B
:1051B000C53B13050549EF50506F01A02A845C4997
:1051C000D1C911476385E7001D476395E708785CFF
:1051D00009E75A341307078035CF7E2CC18B81EF46
:1051E000B7D5000037C500009385C53D13050549B7
:1051F000EF50B06B01A03E2C0358C40110546C4812
:1052000013074400A2862285EF20A07C2285EFF0C0
:105210007FB337070020130747151C4363958702A8
:105220005C441CC3B70700200547238CE71483A701
:1052300041902326040063978704EF10D074014542
:105240006FB02FAFBA87F9DFD847E31D87FE584408
:10525000D8C7C9BF85446383970481CB0947638D51
:10526000E7082285EFF0FF83E1BF3E2C81CF3707AF
:1052700000201307C7151C43639B87005C441CC3B5
:10528000232604002285EFF0FF8955BFBA87EDDBA6
:10529000D847E31D87FE5844D8C7DDB7B567938765
:1052A000C74A9386C700D843184315EB9107E39C80
:1052B000D7FE37050020A28513050516EFF03FAE97
:1052C000584885476315F702B7D5000037C5000079
:1052D0009385853F13050549EF50305D01A00326F6
:1052E00007086314C4002320070858477DBFA28520
:1052F0000945EFE03FD0A1B737050020A28513058F
:105300004515EFF0DFA9B7070020238C97149DBF48
:10531000EFB2EF9F11E937D500001305453AEF5082
:10532000D05841556FB0EFA0584985476306F70044
:105330007E2D93E707017EAD8545EFF07FE6DDB773
:10534000EFB2EF9C411181ED37D500001305855870
:10535000EF50B055C1573E8541016FB08F9D2E85EE
:1053600019CA0E2632C6EFF09F8632463285EFF01C
:10537000EF938147CDB78147F9FEEFF07FF9AA8718
:10538000D9BFEFB22F9719E937D50000130505569D
:10539000EF50B051C15426856FB00F990329C5074E
:1053A000832785082A848349D900232E0506814650
:1053B0004A86AA8585CF08498297AA8405ED93F984
:1053C0000902E38A09FC5E341387078019C3850745
:1053D0005EB483278408E1D3084881460146A2854C
:1053E0008297CD57E319F5FACD5475B70145EFF023
:1053F0003FF5E1B7CD57E309F5FE232E2407ED5421
:1054000059BFEFB22F8FB7040020138794161C23C7
:1054100093849416370A002085071CA3B70A00203E
:1054200003244A1519E06FB02F909C2003472402F3
:10543000630AF7042301F4027E2C13F7170011CB43
:1054400093E727007EAC2285EF2040667E2CF19BFF
:105450007EAC7E2C13F7870011C7DD9B7EAC2285C6
:10546000EFF02FE47C5C0329C40099CB93898A1563
:10547000228523800900EFF0DFF083C70900CDF318
:105480004A844DB70329C400E5BFEFB24F85370901
:105490000020130749161C43B70A0020B56B850787
:1054A0001CC313879A161C23411185071CA31309DB
:1054B0004916938A9A16B70C0020938B4B39138C9C
:1054C000C183B7090020375B0A0003A44915014ACC
:1054D00093894915054D130B8BCB19ECB7090020A7
:1054E00083A4C916294A9389C916930A000F6399A0
:1054F000043841016FB06F825C4881EFB7D500007E
:1055000037C500009385056013050549EF50F03954
:1055100001A0639DA701B7D5000037C500009385A2
:10552000C56213050549EF50503801A02947639D16
:10553000E700B7D5000037C50000938585651305E2
:105540000549EF50903601A003C70A0083462402A4
:105550006397E600832DC400228A6E84BDBF2301B9
:10556000E4028946034764046395D700954763ECDA
:10557000E7208D4763E9E7208344D409638C041452
:10558000785801CFB7D5000037C5000093858568EE
:1055900013050549EF50703101A0385801EFB7D518
:1055A000000037C500009385C56B13050549EF5012
:1055B000D02F01A00347E40963E7E71CE29403C787
:1055C000F4FF8347C40963EEE70083554406E5C54D
:1055D0002285EF10106C65E52285EF20204D09C96A
:1055E000F9A8850793F7F70F230EF408E3FFE7FC0C
:1055F00081445C4819476390E7027A2C418B01CFC4
:10560000545003270900158F9306800263F5E600C6
:10561000850493F4F40F1834814D218B0DCB114781
:105620006385E7001D476394E70283258409130619
:10563000401F03270900B3866501B3D6C6025C503C
:105640001D8F63F4E614850493F4F40F854D3C5CE0
:1056500099CF5C500327090099461D8F8317440496
:10566000B387D7026365F7002285EFF00FEC5C4843
:105670000D476394E714585083270900998F130747
:1056800080026364F700638A041A22858324440934
:10569000EFF04FEB83A7090063000A186319F412B7
:1056A000B7D5000037C500009385456F1305054940
:1056B000EF50B01F01A02285EF20F00C15F98347B1
:1056C000D409230E04081947E364F7F28507A30EF3
:1056D000F40839BF8317440363C0070A21677D17A5
:1056E000639AE7082285EF20A01119C57C58E39141
:1056F00007F03C58E38E07EE58488947630DF702E0
:105700008317040403172404B1468D87BA9703470F
:10571000640463F3E60031471377F70F5E971823AD
:10572000B397E70021679306E7FF63D4F60093077A
:10573000F7FF2312F4040357C40483574406231AC3
:1057400004026373F700BA877638C207C1831397E0
:105750001600858342072317F404418363F4E700AE
:105760002317E4042316D404231704062285EF200C
:10577000007641B585075EB80317440383174404D8
:10578000E348F7E685B78544ADB58347F409C966B4
:105790009386864FB387D702814DAE97B3D7C702A2
:1057A000E3F7E7EA2285EF20C078E31205EA8347B2
:1057B000F4098507A30FF40859BD2547E395E7ECE5
:1057C000585083270900998F1307000F5DBD5C4473
:1057D0002326FA00638D0D000358C4013E2C10549B
:1057E0006C4813074400A2862285EF20801E1C48C7
:1057F000832DC400228513848C153EC6EFF08FB232
:105800002300040081C8B247CD553E8582941C20F8
:10581000E39907CA528489B3630DF400B7D5000039
:1058200037C500009385057213050549EF50F00751
:1058300001A05C4423A0F90071BF83470402034721
:105840001402832DC400850793F7F70F2300F40299
:10585000E3E4E7D08327040993848C152300040232
:105860002380040089E72285EF204024F5B1084811
:10587000A28582979C20E39607C4E31F05CCE5B779
:10588000DC48638D4701B7D5000037C5000093851C
:10589000C57413050549EF50500101A08327090085
:1058A000D850998F63F5FA022685EFF0AFC91DE055
:1058B00083A709006388F404B7D5000037C500004A
:1058C0009385457A13050549EF50207E01A0268473
:1058D000C44431B983A70900639DF400B7D5000023
:1058E00037C500009385C57713050549EF50E07B68
:1058F00001A0DC445CC403ABC4002685EFF08FA29A
:10590000DA84F5B6DC4423A0F900F5B7EFA23FC076
:10591000EFF03FAF37070020130787161C238507DA
:1059200093F7F70F1CA3858B99C3EFF01FB66FA0F9
:105930005FC0138781901E239386170016A303A7C9
:10594000419109C783D6019163F7D70003A7C1909E
:10595000BA97C82B8280958F93F7F70FBA97882351
:105960008280EFA23FB901EDB7E5000037C5000026
:105970009385C5A713050549EF50207301A01C4965
:10598000AA842E89C827DC37A2075D8DEFD05FED92
:10599000058929E5630809040327090103A6019085
:1059A0009E2454334C23B297A206D58D7423C2068D
:1059B000CD8E6C33E205D58D83568900AE96B386C5
:1059C000D74063D506028D8F635EF000918DC205CE
:1059D000C840C1818EA4EFE0BFCE29A04A85EFF078
:1059E0002FA8014923A024016FA01FB45C374827CA
:1059F000A2075D8DEFD0DFE6058905C19C48C03761
:105A0000C8272204498C0545EFD09FE59C48418D6D
:105A100042054181C8A72181C8B7032409004A85EE
:105A2000EFF0CFA12289BDB7EFA2FFAB01EDB7E543
:105A3000000037C50000938545AA13050549EF50BE
:105A4000C06601A003D981916300090223940190EB
:105A5000AA8993848190054A854A094B914B130C7E
:105A6000F01F9E2063E427016FA07FABEFF07FEC77
:105A7000E30945FF93178501E187FDD763106505AD
:105A8000EFF03FEBE31275FF9E208507E3DE27FD75
:105A9000EFF03FEA2205131405014180EFF07FE9A2
:105AA000418D420541819307F5FFC207C1836374AD
:105AB000FC0013050020239BA90265B7EFF07FE7E8
:105AC000E3F4AAFA9E20F917AA979EA059BFEFA265
:105AD0001FA401EDB7E5000037C50000938545A57B
:105AE00013050549EF50605C01A0B707002083C78C
:105AF000C7172A840145C18B8DC77E2CC18B99E7BE
:105B00008327440981C70848C55582973705002077
:105B1000A28513054515EFF08FA82285EFF08F8041
