:040000006F00300D50
:100004000000000000000000E6050000E805000014
:1000140000000000D0080000000000000000000004
:10002400D0080000D008000000000000000000001C
:10003400868D0000000000000002000000000000A7
:10004400D0080000D0080000D0080000D00800004C
:10005400D0080000D0080000D0080000D00800003C
:10006400D0080000D0080000D0080000D00800002C
:10007400D0080000D0080000D0080000D00800001C
:10008400D0080000D0080000D0080000D00800000C
:10009400D0080000D0080000D0080000D0080000FC
:1000A400D0080000D0080000D0080000D0080000EC
:1000B400D0080000D0080000D0080000D0080000DC
:1000C400D0080000D0080000D0080000D0080000CC
:1000D400D0080000D0080000D0080000D0080000BC
:1000E400D0080000D0080000D0080000D0080000AC
:1000F400D0080000D0080000D0080000D00800009C
:1001040000000000D0080000D0080000D008000063
:10011400D0080000D0080000D0080000D00800007B
:10012400D0080000D0080000D0080000D00800006B
:10013400D008000048B40000D0080000D008000037
:10014400D0080000D0080000D0080000D00800004B
:10015400D0080000D0080000D0080000D00800003B
:10016400D0080000D0080000D0080000D00800002B
:10017400D0080000D0080000D0080000D00800001B
:10018400D0080000D0080000D0080000D00800000B
:10019400D0080000D0080000D0080000D0080000FB
:1001A400000000000000000000000000000000004B
:0C01B4000000000000000000000000003F
:10020000130181F806C216C41AC61EC822CA26CC1B
:100210002ACE2ED032D236D43AD63ED842DA46DC76
:100220004ADECEC0D2C2D6C4DAC6DEC8E2CAE6CC46
:10023000EACEEED0F2D2F6D4FAD6FED8F3220030CF
:1002400096DA83A2419523A02200F32510342EC014
:100250009305000273A0458003A18184EF9030557F
:1002600003A3419503210300824273901234D652B6
:10027000739002309240A2423243C2435244E2445D
:10028000724582551256A2563257C2575258E258FA
:1002900072598649164AA64A364BC64B564CE64C0E
:1002A000764D865D165EA65E365FC65F13018107DA
:1002B0007300203013000000130000001300000042
:1002C00013000000130000001300000013000000E2
:1002D00013000000130000001300000013000000D2
:1002E00013000000130000001300000013000000C2
:1002F00013000000130000001300000013000000B2
:1003000083A28184938202E07390023403A1419519
:10031000024182403243C2435244E2447245825514
:100320001256A2563257C2575258E258725986494D
:10033000164AA64A364BC64B564CE64C764D865D61
:10034000165EA65E365FC65FD652A102739002307B
:100350009302800873A00280A24213018107828069
:100360001300000013000000130000001300000041
:100370001300000013000000130000001300000031
:100380001300000013000000130000001300000021
:100390001300000013000000130000001300000011
:1003A0001300000013000000130000001300000001
:1003B00013000000130000001300000013000000F1
:1003C00013000000130000001300000013000000E1
:1003D00013000000130000001300000013000000D1
:1003E00013000000130000001300000013000000C1
:1003F00013000000130000001300000013000000B1
:10040000F322003093F272FF130380781203B3E2F9
:100410006200711523205500130585FA10C12115BE
:10042000232005009302000063870200711523203A
:100430000500FD12D5BF71150CC1828000000000BF
:1004400000000000000000000000000000000000AC
:10045000000000000000000000000000000000009C
:10046000000000000000000000000000000000008C
:10047000000000000000000000000000000000007C
:10048000000000000000000000000000000000006C
:10049000000000000000000000000000000000005C
:1004A000000000000000000000000000000000004C
:1004B000000000000000000000000000000000003C
:1004C000000000000000000000000000000000002C
:1004D0000000000000000000000000000000397172
:1004E00001436EC619A0397141536AC866CA62CC0D
:1004F0005ECE19A0397101535AD056D252D44ED67D
:100500004AD826DA22DC06DE3301614082824111BC
:100510004AC026C222C406C68282B24D4101024DA3
:10052000924C224CB24B4101024B924A224AB249B0
:100530004101024992442244B240410182803D433C
:100540002A876373C3029377F700BDEFADE5937617
:1005500006FF3D8ABA960CC34CC30CC74CC7410773
:10056000E36BD7FE11E28280B306C3408A0697028E
:10057000000096966780A6002307B700A306B70081
:100580002306B700A305B7002305B700A304B700EF
:100590002304B700A303B7002303B700A302B700E7
:1005A0002302B700A301B7002301B700A300B700DF
:1005B0002300B700828093F5F50F93968500D58DC3
:1005C00093960501D58D61B7939627009702000099
:1005D00096968682E78086FA9680C1171D8F3E9692
:1005E000E374C3F8A5B701A037D50000130505894A
:1005F000EFB0C010B707EFBE37E700E093870708FA
:100600003CC701A0EFF2BFF0EF0010590145EF9099
:10061000405305B7EFF2BFEF37D500001305C59083
:10062000EFA0907C01A0EFF29FEE0945E123952A0F
:10063000716513050520EFA0B061B707002083A501
:10064000070837D500001305058AEFA0F079192EA9
:10065000AA8537D500001305058BEFA0F078B7D534
:10066000000037D500009385058C1305858CEFA01D
:10067000B077B7D5000037D500009385858E130578
:10068000058FEFA07076B7D50000370500008147D1
:10069000154781461306001893854590130545605C
:1006A000EF90002CEF90605501A0B71702409843DF
:1006B000B706FFF041111367170098C3D8433706F8
:1006C0000200758FD8C39843B706F7FEFD16758FE5
:1006D00098C39843B706FCFFFD16758F98C3D8439F
:1006E000B70601FFFD16758FD8C39843B70600EC17
:1006F000FD16758F98C33707FF0098C723A607021A
:1007000002C402C69843C166558F98C3B71602400B
:1007100005679C42F18F3EC6A24785073EC4B2479B
:1007200081E7A247E397E7FEB71702409C43139780
:10073000E7006356070685473EC632478547631E76
:10074000F704B7170240D843B706C1FFFD16D8C358
:10075000D843D8C3D84313670740D8C3D843758F4D
:10076000D8C3D843C166558FD8C39843B706000194
:10077000558F98C3984393166700E3DD06FED84370
:10078000B7160240719BD8C3D84313672700D8C35C
:100790002147DC42B18BE39EE7FE4101828002C625
:1007A00069BFB7160240D842B70700201146318B07
:1007B000938707086305C70021466308C7023717F8
:1007C0007A001307072098C3371702405843118354
:1007D0009376F70037070020130707003697142396
:1007E00098433357D70098C38280D842D442416699
:1007F00049833D8BF18E1306270015CF3D47630FCC
:10080000E6024147630FE602454781456313E60070
:100810004146A1E23747024003270780418B0DC7BD
:1008200037177A00130707203306C70290C3C9DDC4
:100830009843058349BF81454946E1BF8545354613
:10084000C9BF81453D46F1B737173D0013070790F3
:10085000E1BF3715024058559316F700585563DF2E
:10086000060411833D8B9306170037177A00130790
:1008700007203357D70298C35455A182BD8A8DE211
:1008800095463307D702058398C337170240585758
:1008900094433D8B050733D7E60298C3984369B765
:1008A00005456394A600E546E9BF3D456396A6006D
:1008B000D1463387E602C9BF8906E5BF3D8B930663
:1008C000170037177A00130707203357D702F1B7FD
:1008D00001A0970100209381E1FA17F10020130194
:1008E000617217E500001305A51597F5FF1F9385A5
:1008F00065711386018563FAC5008322050023A074
:10090000550011059105E3EAC5FE17F5FF1F130514
:10091000657C979500209385A57C6377B50023209F
:1009200005001105E36DB5FEFD42739002BCFD426A
:1009300073904280B78200009382028073900230ED
:1009400097F2FFFF9382426C93E232007390523031
:10095000EFF0BFD597020000938222CD739012343E
:1009600073002030B7F7FF1F03A547708280EFF2B6
:100970001FBA854511657D2181451165652155BEEB
:10098000411102C6B78602409C4A41672E057D1779
:10099000F18B798D9A055D8D93F5057CC98D93E575
:1009A0001500B70750008CCAF917324705073AC639
:1009B000984A058B01C73247E3F9E7FE3247B7078C
:1009C0005000FD1701456307F700B7870240C84B89
:1009D00042054181410182804111B787024002C630
:1009E000984BC166FD162E05758D718B9A05598D34
:1009F00093F5057CC98DD0CB93E535008CCBB7073B
:100A00000500B7860240F917324705073AC6984AEB
:100A1000058B01C73247E3F9E7FE3245B70705000A
:100A2000FD173335F50041018280B707002023AA66
:100A3000A70C2A878147B70810401303405F130EA5
:100A4000F6FF6396C700B797024088CB8280B386D3
:100A50006702232017012A88AE9614C79306070160
:100A600063F3C70136882326070185073687D1BF80
:100A7000B7070020916623A8A70C0147AA87370370
:100A800000809386465F130E405F930EF6FF631659
:100A9000C700B7970240C8C782803308C70323A0A6
:100AA0006700D4C3AA882E9823A4070113880701DE
:100AB0006373D701C28823A617010507C287C1BF88
:100AC000379702401C4393E717001CC38280B797F7
:100AD0000240C8CB8280379702401C4FB7061000F7
:100AE000D58F1CCF8280EFF29FA2378402401C403A
:100AF00093E787001CC0C5371C40896693E7470011
:100B00001CC0B7970240984F558F98CF984F1367E6
:100B1000270098CF39BC99C5379702405C4F5D8D4F
:100B200048CF8280B7970240D84F1345F5FF798DA3
:100B3000C8CF82809C4513F7070113F8F70001C75F
:100B4000D8413368E8008E2113F7F50F39C31841F7
:100B50008146854E3D4F930F800293028004214EC3
:100B60003396DE00B3F8C500631116039398260090
:100B700033131F011343F3FF3377E300B318180156
:100B800033E7E800639FF70550C98506E39AC6FD81
:100B900018C11307F00F6375B70454412146854E01
:100BA0003D4F930F800293028004414EB398CE00D4
:100BB00033F715016392E802131726000117331368
:100BC000EF001343F3FFB376D3003317E800D98E59
:100BD000639DF701232A15010506E319C6FD54C1DB
:100BE0008280E39457FA10C94DB7E39757FE232844
:100BF0001501DDB7B707002023ACA70C828037179B
:100C000002405C439146B18B6385D700A146638265
:100C1000D706B7177A00938707201CC13716024002
:100C20005C4237070020130707019183BD8BBA97F9
:100C300094231C41B3D7D7005CC15442A1829D8A42
:100C4000BA969422B3D6D70014C55442AD829D8A79
:100C500036971823B3D7E7005CC55842398393769B
:100C600037001387418036971823B3D7E7021CC992
:100C700082805C435843C166C983758FB7F6FF1FF6
:100C800083A6C670BD8B89071396160163480600BC
:100C9000C54601466392D702C94739A88946638F82
:100CA000D702BD46638ED702C146638ED702C546C2
:100CB00001466393D700C1471DEF37470240032722
:100CC0000780418B05C737177A0013070720B30742
:100CD000F7021CC121D61C41858381B701466DBF37
:100CE0000546B547D1BF0146BD47F9B737173D00A7
:100CF00013070790E9BFB7150240D8559316F700C0
:100D0000D85563DF060411833D8B93061700371710
:100D10007A00130707203357D70218C1D455A18290
:100D2000BD8A8DE295463307D702058318C1371770
:100D30000240585714413D8B050733D7E60218C1CE
:100D4000184171B785456394B600E546E9BFBD45D6
:100D50006396B600D1463387E602C9BF8906E5BF70
:100D60003D8B9306170037177A0013070720335778
:100D7000D702F1B799C5371702405C4B5D8D48CB60
:100D80008280B7170240D84B1345F5FF798DC8CB49
:100D9000828099C5371702401C4F5D8D08CF828035
:100DA000B7170240984F1345F5FF798D88CF8280A1
:100DB0009357550005476399E700B71702409C43D6
:100DC00033D5A7000589828009476396E700B717E6
:100DD00002409C53F5B7B7170240DC53D5B737171D
:100DE00002405C5793F7F7F05D8D48D78280B716C5
:100DF0000240DC5645777D17F98F5D8DC8D682801D
:100E000009C9371702401C43B7060010D58F1CC311
:100E10008280B71602409C42370700F07D17F98F99
:100E20009CC2828099C5371702401C575D8D08D738
:100E30008280B717024098571345F5FF798D88D700
:100E40008280EFF2CFEC1A29F577FD17F98FFA219E
:100E500079712A84D98F1EA99A25DE2156252EC69E
:100E6000D98FBA25D98F7D771307379F758FD98F83
:100E70005EA55E29DA25C207C18393F7F7CFD98F24
:100E80005EA96808AD3BB747014093870780B2452C
:100E90006311F404A2576547B387E702984113062C
:100EA00040060A07B3D7E702B3D6C702B3F7C702B3
:100EB000920613974700930727031307F063637C99
:100EC000F70093870601C207C1831EA445616FF036
:100ED0004FE69257C9B7B3D7C702D58FEDB791C5C3
:100EE0005E250967D98F5EA582805A25F977FD179F
:100EF000F98FD5BF93F5F51F4EA182800A216D8D24
:100F00003335A00082808280EFF26FE0EF8090574F
:100F100006056FF00FE2EFF28FDFEF70106A054504
:100F20006FF02FE1EFF2AFDEEF70706A6FF06FE0FD
:100F3000EFF2EFDD01EDB7D5000037D50000938566
:100F4000059C1305059DEFA0206A01A02A84114588
:100F5000EF80403408C0133515003305A0406FF012
:100F60004FDDEFF2CFDA01EDB7D5000037D5000045
:100F70009385059C1305059DEFA0006701A008411E
:100F800001EDB7D5000037D500009385059913050D
:100F9000059DEFA0606501A0FD55EF80007B8547B2
:100FA000630DF500B7D5000037D500009385459A4D
:100FB0001305059DEFA0406301A06FF08FD7EFF2FE
:100FC0000FD501EDB7D5000037D500009385059CFE
:100FD0001305059DEFA0406101A0084101EDB7D5C3
:100FE000000037D50000938505991305059DEFA0F6
:100FF000A05F01A0EF80E02C8547630DF500B7D519
:10100000000037D500009385859E1305059DEFA050
:10101000A05D01A06FF0EFD1EFF26FCF2A8401ED58
:10102000B7D5000037D50000938585931305059D3E
:10103000EFA0805B01A02E85634DB000B7D5000006
:1010400037D50000938585941305059DEFA0C05901
:1010500001A001469145EF80200308C0133515001B
:101060003305A0406FF0EFCCEFF26FCA41112EC6EE
:1010700001EDB7D5000037D50000938585931305A2
:10108000059DEFA0605601A0084101EDB7D5000015
:1010900037D50000938545951305059DEFA0C054F5
:1010A00001A0814601466C00EF80C0048547630EB5
:1010B000F50005C1B7D5000037D500009385C59769
:1010C0001305059DEFA0405201A0014541016FF0BD
:1010D0004FC67D55E5BFEFF28FC3411101EDB7D586
:1010E000000037D50000938585931305059DEFA07B
:1010F000A04F01A0084101EDB7D5000037D5000091
:10110000938545951305059DEFA0004E01A02E8403
:1011100091E160001DE27D56A285EF80C0318547D8
:101120006306F504B7D5000037D5000093854592D6
:101130001305059DEFA0404B01A00582A285EF801D
:10114000802F19E5232004007D5541016FF06FBE0B
:101150008547630DF500B7D5000037D500009385AE
:1011600045921305059DEFA0204801A00545F1BF5C
:10117000EFF2EFB94111634DD000B7D5000037D57C
:101180000000938545A01305059DEFA0E04501A053
:101190002A882E8593D52600B286139605017C00F9
:1011A0004182C285EF80C07B8547630DF500B7D5CE
:1011B000000037D50000938585A11305059DEFA09C
:1011C000A04201A0324541016FF0AFB6EFF28FB2FD
:1011D00003D985009307405F7D5563EA27032E847A
:1011E000EFA02011AA89515563830902814432245A
:1011F0004C4033859900EFA000343E240040BE945B
:10120000C204C1806DF44A85EFA0E00F01456FF084
:10121000AFB1EFF2CFAF4111AA841305E100EFA007
:10122000A0060DC92C872A89130620180145EF3026
:10123000C0252A8409C53087CA85EF30606DEFA0CC
:10124000A00909C89C48A6852285829701C52285E8
:10125000EF30801941016FF0CFAD11EDEFF22FAB00
:10126000B7D5000037D50000938505A31305059D6C
:10127000EFA0803701A0B7370000938727EF5CC944
:10128000B71700009387C71C1CCD9307C05D7EB1C4
:101290008967938767A07EB59D67938757E61EB9D8
:1012A00001458280EFF22FA439712A848144B74A24
:1012B000000037DB00001309850293094500B74B96
:1012C000000037DC00002285A937EF90F02283C7A9
:1012D000819A93F7F70FC9CFC1E801469385EB1EBA
:1012E0002285EF70C04FEFA0800561468145130550
:1012F0002101EFF0CFA4FD571946CA851305A100BF
:101300003EC27C84EFA02023930780602147FC80AD
:10131000230AE1008547130760401946CA85130573
:10132000A101A309F100F883A30CF100EFA0A02014
:101330001146CE850810EFA000201146CE8513057A
:10134000A102EFA0401F4946930550051305E10295
:10135000EFF0EF9E9305C0034800EF90906D1305EA
:101360004CADEFA0A03985440545EF80503EA1BFAC
:10137000E5DC014693856A222285EF70404613051D
:101380000BAEEFA0A0378144C5B7EFF24F982945C7
:10139000EF9000586FF0EF99EFF26F97B7C71B11FE
:1013A0004111938747F03EC48D6793872732280009
:1013B0007C86EFA060003717000037D500001307C8
:1013C000A738814605469545130505A4EF90E045ED
:1013D00019C92A84EF80100B2A860147814685456A
:1013E0002285EF90A04B81450145EF704061B70722
:1013F000E800B7050020938797EA23A0F50EC167A0
:1014000037060020FD172322F60EB707E8CBB706F4
:101410000020938797EA23AEF60CA2471384419EDF
:101420001CD43C86379800009385050E5EB4B71730
:101430000000130848959387A72501479386C60D9A
:101440001306460E1385419EEF70E035AA8511C93B
:1014500037D500001305C5A4EFA0001941016FF0B6
:101460004F8DB745000001469385451B1385419E6E
:10147000EF70E036B745000001469385E51B138504
:10148000419EEF70C03513054400EF200030AA855F
:1014900037D50000130545A6EFA000150348D40278
:1014A0008347C4020347B4028346A402034694025E
:1014B0008345840237D50000130545A7EFA0C0126D
:1014C000B7D5000037150000814715479386419E28
:1014D00013060020938505AA1305452AEF8040488E
:1014E00085476308F50037D50000130585AAEFA0EE
:1014F000E02037D50000130545ACEFA02020B9BF90
:10150000EFF2EF803A25B9472A8463F7E7047C3588
:101510002E8989E783C7250385077CB54840443574
:101520005C25A204DD8C1C2113F7170019CF054799
:101530006398E7021C3191EB38219307E0056316AD
:10154000F7005C3493E707015CB4A1476384F402BD
:10155000930780606380F4042285EF20F06805A87B
:10156000194693854182EF90D07A65F15C3493E718
:101570008700D9BF8347F902A18BF9DFB9452285DE
:10158000EF20105F71F9CA852285EF10305F0145A9
:101590006FE03FFA8347F902A18BDDDFB945228571
:1015A000EF20105D55F9CA852285EF106052C5B74E
:1015B000EFE25FF44111AA843A852E89B28936C6DA
:1015C000EF20C01D2A84B9454A85EF20905921E9B2
:1015D00083274900B2461946C0A72180C0B7B68507
:1015E0003E85EF9050751946CE851905EF90B07481
:1015F00083C7E4021944638D8700B7D5000037D54F
:1016000000009385C5AE1305059DEF90F07D01A008
:101610009C4CCA852685829741016FE0FFF0795581
:10162000E5BF5C316387B7004CB123030500231489
:1016300005008280EFE2BFED93071500C2073387F4
:10164000A500C183FD5614A3BE9513073004637B28
:10165000F7009385070FC205C1813285EF20107A0C
:101660006FE03FED8507C20723800500C183850534
:10167000F9BFEFE2DFE90051AA84A1452285553781
:1016800001469305C4012685EF10206D7C201307C9
:10169000F00F6384E70085077CA085471EA46FE0F8
:1016A0005FE9EFE2DFE6411111E937D500001305EC
:1016B00005B2EF90707341016FE0BFE70051AA845B
:1016C00011E437D500001305C5B3E5B71C54231941
:1016D00004007D576380E702F90737073C0063FB8E
:1016E000E7081307C003B3D7E70213970701418345
:1016F000C9C75AA85C547D576382E702F9073707C8
:101700003C0063FFE7061307C003B3D7E702139754
:1017100007014183ADCB3AA43E247EA41C587D57DB
:101720006382E702F90737073C0063F1E706130716
:10173000C003B3D7E702139707014183B9CB5AA47B
:101740005E241EA85E243A246365F70099C323151E
:1017500004007C30B1C31C503EC45C502285A945B6
:101760003EC6C135740030009305C4012685EF20C4
:10177000300C91B741677D17ADBF85475EA89DBF0F
:1017800041677D1749BF85473EA479B741677D17FB
:101790007DB785475EA46DB75C2C13978701618781
:1017A000634507009307F00F45BF1307F00B6376FF
:1017B000F700B7070001FD1745B7C167EDBF130775
:1017C00025009307400463FFE700EFE25FD4B7D53D
:1017D000000037D500009385C5CE1305059DEF9019
:1017E000B06001A0B387A5009356860094A3930729
:1017F0001500C207C183BE951315070190A1418151
:10180000828093872600AA9713074004637FF7001E
:10181000EFE2FFCFB7D5000037D50000938545C371
:101820001305059DEF90505C01A0B387A50090A320
:1018300093071500C207C1830905BE95420594A10F
:1018400041818280EFE2BFCCB7D5000037D50000E0
:10185000938585C71305059DEF90105901A01307C7
:1018600045009307400463FFE700EFE25FCAB7D586
:10187000000037D50000938505CB1305059DEF903B
:10188000B05601A0B387A5009356860194A3930791
:101890001500C207C183AE979356060194A3930720
:1018A0002500C207C183AE979356860094A3930781
:1018B0003500C207C183BE951315070190A1418170
:1018C0008280EFE2DFC4B70400209387040FBC33AB
:1018D00023200502232205022A849384040F81C752
:1018E00083A741A21CD5DC20B1C783A781A25CD409
:1018F000DC30A1C783A7C1A21CD898399C29220734
:101900005D8FBC29C2075D8FBC39E207D98F5CCCE3
:10191000FC2095CB03A501A3EF103069854708D0C3
:101920007CB0FC3091C703A541A3EF10106848D0EC
:101930006FE03FC01C5485835DBF18549D47B3873B
:10194000E7028D8355BFA3030400E1BFEFE23FBC74
:10195000370700201307C70E1C2381EFB7D50000FF
:1019600037D50000938545BD1305059DEF90D04701
:1019700001A0FD1793F7F70F1CA391EB370400208C
:101980001304840E0840EF60D055232004006FE05C
:101990005FBAEFE2DFB7B704002083C7C40E9384B9
:1019A000C40EA5E3370400201304840E1C4081CF2D
:1019B000B7D5000037D50000938585BF1305059D79
:1019C000EF90904201A0EF60D05508C07D5715CD33
:1019D0001835130640041367070218B593858183F1
:1019E000EF60702208401306300493858183EF6016
:1019F00030470840B72500000146938525EBEF608E
:101A0000904C9C20014785079CA03A856FE07FB2EF
:101A1000EFE25FAE19E937D50000130545B5EF9049
:101A2000B03C01494A856FE03FB02E8A91E537D539
:101A30000000130545B7E5B7AA84B28993054013A2
:101A40001306002813056003B68AEF2010242A89A4
:101A500071D93A259307301363EDE700B7D500003D
:101A600037D50000938545B91305059DEF90D03714
:101A700001A08D476396F90083475A00639F3701A1
:101A800083476A00370400201304840F81E7EF9036
:101A9000B04708C01C402320FA0003244900130665
:101AA000401381452285EFE09FA985471CA01CB00B
:101AB00083C7E4023CA003250A00EF10104F9357A0
:101AC000850048A05CB09357050161817CA068B097
:101AD00091476383F902938799FF93F7F70F0547BF
:101AE000637CF7008D476391F90283475A00F11731
:101AF00093F7F70F636AF700DC205CA4DC305CB47A
:101B0000FC207CA4FC307CB4938784021307C401BE
:101B10009384E402942385070507A30FD7FEE39B74
:101B2000F4FE930730062306F40E130720F8A307EC
:101B3000F40E93075003A306E40E2308F40E1307D4
:101B400030058547A308F40E2307E40E2309340F5C
:101B50008D472390FA00F9B5EFE2DF99411101EDCD
:101B600037D500001305C5D3EF90102841542285C6
:101B700041016FE07F9B0451AA8989E837D50000B5
:101B8000130585D5EF9050266954D5B78545268530
:101B9000EFF03FA99306E1000D46A6854E858D3DE9
:101BA0002A89630E050E4041288789461304040FD5
:101BB00013069003A285B13103D66902A285688716
:101BC000FD3E914613062003A28568871D392A8AA7
:101BD0006887C84CEF10703D2A86A2855285413136
:101BE000914613066003A285688721392A8A68878F
:101BF000884CEF10903B2A86A28552858D318D4608
:101C000013067003A2856887ED3E688701471308B5
:101C10003004938641830D463C876373F8001D3181
:101C2000B385E6008C21138517004205A2974181F8
:101C30008CA368870507E311C7FEA2854A86EFF0EB
:101C40007F9F370500200325850E938781834E876C
:101C5000930630041386C183CA85EF60D0052A84B9
:101C60004A85EF206078FC201307F00F6384E700BB
:101C70008507FCA0F820954763E5E7028547B39701
:101C8000E7001307803EB387E702C207C18393874B
:101C9000371F1307401FB3C7E7029EA4C9BD7D5479
:101CA000D9B7BD67938707A6DDB7EFE2BF840451BC
:101CB0004111AA898D452685EFF0BF969306E10074
:101CC0000D46A6854E85A9336304050E40412A8939
:101CD00028871304040F894613069003A285EFF0AA
:101CE0005FB213060024A2856887EFF05FAD9146CE
:101CF00013062003A2856887EFF0BFB02A8A6887A1
:101D0000C84CEF10902A2A86A2855285EFF03FB585
:101D10008D4613067003A2856887EFF09FAE688733
:101D2000014713083004938641830D463C87637452
:101D3000F800EFF03FB1B385E6008C211385170062
:101D40004205A29741818CA368870507E310C7FE6F
:101D5000A2854A86EFF01F8EB707002003A5870EE5
:101D60004E87930630041386C183CA85EF609008BE
:101D70002A844A85EF204067FC201307F00F638414
:101D8000E7008507FCA0FC2025476365F7021307E1
:101D9000803EB387E702C207C1831307401F9387C2
:101DA000371FB3C7E70222859EA441016FE0CFF73A
:101DB0007D54D9B7896793870771C5B7EFE28FF371
:101DC00000514111AA8999452285232E0400EFF084
:101DD0005F859306E1000546A2854E85153959C5F4
:101DE00044412A8928879384040F89461306900367
:101DF000A685EFF01FA103D66902A6856887EFF0DC
:101E00001F9C8D4613067003A6856887EFF07F9FA1
:101E10006887014713083004938641830D463C8749
:101E20006374F800EFF01FA2B385E6008C211385E0
:101E300017004205A69741818CA368870507E31028
:101E4000C7FE4A86A685EFF0EFFE37050020032582
:101E5000850E938781834E87930630041386C18352
:101E6000CA85EF6040654A85EF2000587C20130743
:101E7000F00F6384E70085077CA07820954763E630
:101E8000E7028547B397E7001307803EB387E70271
:101E9000C207C1831307401F9387371FB3C7E702E9
:101EA00001451EA441016FE02FE8BD67938707A697
:101EB000D5B7EFE2CFE203A9C1B30111B289832BF9
:101EC000090263890B0A83C74B00CDC73A269307E3
:101ED000B00263F1E70A5C4209479423639CE60879
:101EE0000346E902014799469375F70F63F4C5006D
:101EF0006318D706C833D8232205598DF823420723
:101F0000498FE8336205598DEF10300A83A70B0023
:101F10006312F506370800209307080F23A2070075
:101F200003D7A90023A007009307B0021308080FE6
:101F300063F2E704C16A83DD89009387DAFF014B0E
:101F4000130C000F3EC4138A81A1CE8C628483D708
:101F5000AC006377F40283A74C00914A3EC2B5A25D
:101F6000B305E90005073385E70083C58502283DF1
:101F7000E30CB5F64E85EF20204705616FE0EFD901
:101F800083AC0C001D8CB38DFD404204C20D41801A
:101F900093DD0D01E39D0CFAF1BF93062400C20608
:101FA000C182E3E986FC83D5AC00130614006357B5
:101FB000B6021833930540036384B70A63E7F5025A
:101FC00085456387B704F1CB0D466380C7081306C8
:101FD00030036381C708FD54014D3DA803A70C00E1
:101FE000630B072658431823F1B713066003638B6E
:101FF000C70863E2C7081306A003638BC70813066C
:10200000B003E39AC7FCE31757F7114D954429A095
:10201000E31257F7114D9944A2473A94E3CC87F461
:102020003384E60042044180630C0D0602CE9D47D6
:1020300063F9970EB7D5000037D50000938585D298
:102040001305059DEF90405A01A0E3F5E7F29D448A
:10205000114DD9B7E31057F3114D8D4475BF0147AA
:102060008547E319F7F09307000FE315FCF0054DE2
:1020700081445DB701478547E31EF7EE054D854472
:1020800061BF0147E31857EF114D894471B701470C
:10209000E31257EF114D914441B7131406014180EB
:1020A00083D7AC006363F4021D8CB38DFD40420402
:1020B000C20D418093DD0D01E37EB4EB83AC0C00D7
:1020C000E38A0CEA83A74C003EC2637AB4019247CC
:1020D0009306F00F338787001C23E390D7EC8347E8
:1020E0000800D1EF63170B0A83471800E38407E861
:1020F000938781A1D823954683A549006318D70CFF
:1021000083C75B0005476395E70A03250902EFF0E3
:102110004FFB8347F9024A85A18BD5C7EFF06FD5F6
:1021200091BDB30798009C23A5FF93170D01C183B0
:102130003E866C0866853EC6EF204075B247E39B3D
:10214000A7E2B70700201388070F63135D037245EA
:10215000EF10A065B70700202ACE1388070FB3073A
:102160009800054798A3F2478A04D2949CC00DBFFB
:102170008547E311FDE08347C1013ECECDB78327FC
:102180000A00230008000547638FE70009476398AA
:10219000E700014B930DC006130CC0027DB30D4741
:1021A000E392E7F4054B930DC00E130CC00671BB10
:1021B000F51793F7F70F0947E36EF7DA03250902DE
:1021C000EFF02FF04A85EFF0CFCD6DB39946631055
:1021D000D70403C75B0089469307D7FF93F7F70F30
:1021E00063F5F6008547E317F7D803250902B145E3
:1021F000EFF02FC393868183138681834A8593856D
:102200008183EF10F0624A85EFF05FBBA5B309460A
:10221000E312C7D603C75B00E31ED7D403472800E9
:10222000E30A07D40324090288472EC223140400BA
:10223000EF10A057924508CC4A8598399C2922076F
:102240005D8FBC29C2075D8FBC39E207D98F5CCC9A
:10225000EFF09F9005B313074003E382E7E063606C
:10226000F7020547E388E7D0E38907E20D47E383F8
:10227000E7D013073003E38FE7CE0147A9BB13076D
:102280006003E380E7E0E3E7E7DE1307A003E38012
:10229000E7E01306B0030147ADB3185139C7EFE2C9
:1022A0000FA75C33954663E4F6028D4663F4D702CC
:1022B00095C7B14663F6F602B7D5000037D50000E2
:1022C000938505C21305059DEF90003201A0A94634
:1022D000E391D7FE23030700EFF03F9D6FE06FA56A
:1022E00023030700EFF09FADD5BF8280EFE28FA000
:1022F000411111E937D50000130505A3EF90C02E59
:1023000041016FE06FA20051AA897DD85830A147E2
:10231000E318F7FE98415C4CE314F7FEB1452285C3
:10232000EFF02FB09306E1001146A2854E85EFF045
:102330002FEEAA8421CD0329450028879146130951
:10234000090F13062003CA85EFF0AFCB2A8A6887EE
:10235000484CEF1080452A86CA855285EFF02FD071
:102360002686CA856887EFF0EFAC37050020032585
:10237000850E938781834E87930630041386C1832D
:10238000A685EF6040132685EF2000067C2013070A
:10239000F00F6384E70085077CA0D1471EA48DB7AA
:1023A000EFE24F9500514111AA8995452285EFF042
:1023B0004FA79306E1000D46A2854E85EFF04FE54D
:1023C00071C144412A8928879384040F89461306E2
:1023D0009003A685EFF0EFC203D66902A685688751
:1023E000EFF0EFBD8D4613067003A6856887EFF00A
:1023F0004FC16887014713083004938641830D4617
:102400003C876374F800EFF0EFC3B385E6008C21DE
:10241000138517004205A69741818CA3688705079D
:10242000E310C7FEA6854A86EFF0CFA0B7070020CD
:1024300003A5870E4E879306300413068401CA85D0
:10244000EF60401BAA844A85EF10107A7C201307A6
:10245000F00F6384E70085077CA07C202547636537
:10246000F7021307007DB387E702C207C183130792
:10247000401F9387371FB3C7E70226851EA441017B
:102480006FE08F8AFD54D9B79567938707E2C5B788
:1024900005C11C51014591CFDC33294705456386B1
:1024A000E7001385C7FF133525001375F50F8280EC
:1024B00001458280EFE20F840051411161C05C3020
:1024C000D5CF1C4C232E0400232C0400232004020F
:1024D00023220402232804022326040223240402C4
:1024E0002317040023280400231A0400AA843EC6EC
:1024F0004537814559C52285EFF0AF929306A1007B
:102500001D46A2852685EFF0AFD02A8929C98329E7
:102510004500288591469389090F13066003CE85EF
:10252000EFF02FAE2A8A68853245EF1000282A8600
:10253000CE855285EFF0AFB24A86CE856885EFF042
:102540006F8FB707002003A5870E268793063004F8
:102550007000CA85EF60000A4A85EF10F068938624
:10256000818313868183268593858183EF10502C88
:102570005C2089C7EFF08FBD2302040041016FD0BA
:10258000BFFA2285EFF0EF89E5B7EFD25FF819E9DE
:1025900037D50000130505A3EF90000541542285AF
:1025A0006FD03FF98347F502AA84858B91E737D531
:1025B0000000130585DACDB77A319307F02303299C
:1025C000050263E4E7007D54D9BF631F09021305C8
:1025D0004003EF1060742A897DD588D0130640032C
:1025E00081454A85EFD0BFF5EFF0AFBA2A8461FD8F
:1025F00085472302F90083C7F402918B81EF894557
:102600004A85EFF00F8261BF83474900E1DBEFF0BD
:10261000EFB3E9B72685EFF06FFA2A8449D1268512
:10262000513D55B7EFD23FECB707002083A44714C4
:102630008969411193890971138A4183B70A00207E
:1026400081E441016FD0BFED805005C0583011CFFB
:10265000562891CE3E288507C207C1833EA86398BD
:10266000F6002685813D26850D378440D1BF1E2882
:10267000638F070E9386F7FF16A885466399D70EDA
:10268000A947E3E4E7FE9307204333D7E700058B30
:1026900069DF91452285EFE0DFF89306E1000D4602
:1026A000A2852685EFF0CFB6AA8B41C1032945004C
:1026B000288789461309090F13069003CA85EFF08E
:1026C0004F94F230CA856887EFF06F8F8D46CA85C8
:1026D000130670036887EFF0CF9268870147930570
:1026E00030048D463C8763F4F500EFF0AF95330678
:1026F000EA001022138517004205CA97418190A372
:1027000068870507E310D7FE5E86CA85EFE09FF273
:1027100003A58A0E2687930630041386C183DE85BF
:10272000EF50506D5E85EF10304C7C201307F00F9A
:102730006384E70085077CA07820A546CE8763E800
:10274000E6009307803EB307F702C207C183130771
:10275000401F9387371FB3C7E7023A281EA45E289D
:10276000998F0547E353F7F085871EA8FDBD7E24AA
:10277000E38D07EE9386F7FF76A48546E397D7EEC1
:102780009376B70F6385F600A947E310F7EE268529
:10279000EFF01FC13A285E24998F0547E357F7EC05
:1027A00085877EA4D9B5EFD2FFD4B707002003A454
:1027B0004714854431499949214A8D4A154B19E0FE
:1027C0006FD09FD61C5091C79A2763F6E4007D17FF
:1027D0009AA70040EDB7E31E97FED8332394070075
:1027E00063042701631637012285EFF02FDDD5B78B
:1027F000631E9700FC2322856365FB00EFF0CFB5D5
:10280000C9BFEFF03FCB22854933E1B7631C4701D5
:10281000FC23228563E5F400EFE0BFE55DBFEFE058
:102820005FE845BFE31757FBFC232285E3EFF4FA8B
:10283000EFF0AFC779BFEFD29FCDAA84614733874E
:10284000E402938781A34111138481A3BA978C4337
:10285000A1C1C84103A9050001EDB7D5000037D5D6
:102860000000938505E11305059DEF80F05701A059
:102870002EC6EF107037B2452145EF10606BCA8548
:10288000E31909FCE147B387F402A29723A00700EC
:1028900061453385A40219469385C1822295230A96
:1028A0000500231905002324050023220500310516
:1028B000EF80704841016FD0DFC7EFD2BFC393866E
:1028C00081A38142814F014FA94EA948294429473C
:1028D0008147938481A32943854303CE4601631D29
:1028E0006702630C0E0801CD0329050003A846000A
:1028F0006317090155CA03A886006307C80A03D8ED
:10290000260163177E0603AE0600630E0E0463679E
:10291000E801428FBE8E19A0E3170EFC85071398BD
:1029200007011358080193170801E106C187E31650
:1029300068FA8547639AF504B2892A89631D670698
:10294000630FE402E147B307F402A6979C43ADC3CB
:10295000B7D5000037D500009385C5DC1305059D6C
:10296000EF80904801A0E36BF8FBC28FBE887DB773
:10297000E36658FAC2823E8455B73E8745B76398EE
:102980008802768463961E03FD5739A86305090003
:1029900083260900D4C3E147B307F702BE94239905
:1029A000040023A43401BA873E856FD0FFB7468464
:1029B000228551352287E147B307F702A697D42B2A
:1029C000F1D6B7D5000037D50000938545DE130555
:1029D000059DEF80704101A0EFD2FFB0411101EDE4
:1029E000B7D5000037D50000938505A31305059DD5
:1029F000EF80903F01A02A892E8AB28AF145130602
:102A000000283945B68CBA8B3E8C428B46C6EF10F7
:102A1000D027AA8445CD3A25ED47B24863EDE700BB
:102A2000B7D5000037D500009385C5EC1305059D8B
:102A3000EF80903B01A040414685EF00305668A0F2
:102A4000218168B08349E9029947638DF900B7D5C0
:102A5000000037D50000938505F01305059DEF8034
:102A6000B03801A01946E68513058400EF80B02C2C
:102A70001946E28513052401EF80F02B1146DE850F
:102A80001305E400EF80302B1146DA85130584012D
:102A9000EF80702A85471CB0A1473CA0056791478D
:102AA0005CB013076780D6865286A6852300040093
:102AB000A3010400230234014A85EFE07FAF26859D
:102AC000EF109012014541016FD07FA57D55E5BF04
:102AD000EFD27FA1411191E937D50000130505A37D
:102AE000EF80903041016FD09FA34441AA899C3070
:102AF0009820A207D98F130700106391E702D8200E
:102B00009947631DF700D83091476319F700BC302F
:102B1000B820A207D98F21476386E7004E85EF10C2
:102B2000B00CC9B72E8411469385E4002800EF80CD
:102B300090201146938584016800EF80D01F5C408F
:102B400081C732476384E702814A09490347E402A7
:102B500099476300F702B7D5000037D50000938589
:102B600005E41305059DEF80302801A0854A05493D
:102B7000F1BF2245138A840015E1FC30F820A2073A
:102B8000D98F13070010638DE70813070020E39720
:102B9000E7F82C002285EFF06FF549B7A285EF002A
:102BA000B03161FDA2471307000E93F7070FE386CC
:102BB000E7FC2286CA852800EFF03FD0E34F05FAF4
:102BC000E147B307F502138781A389461946D285E9
:102BD000056B130C8402130B0B803309F700B1074C
:102BE000230AD900232489003305F700EF80B014AD
:102BF0002319090083250900C9D19C4183AB4500F5
:102C000021452320F900EF10A0325A87D286628630
:102C1000DE852285EFE0DF995E85EF10E07CD9BF8D
:102C2000E38E0AEE93068402894813088100D28756
:102C3000130744005286B6852285EFF0FFD9F9BD0F
:102C4000EFD2FF8C930685022E8885489387C18238
:102C50001307450013864182B685EFF0FFD76FD08A
:102C60005F8DEFD25F88138481A38144130AB01271
:102C7000854A0D4B1149894B114CA949582819CF48
:102C80003E288507C207C1833EA86366FA00631D1C
:102C900057016375F9022685EFF0FFB985046104D9
:102CA000E39E34FD6FD0BF8763156701230A84015B
:102CB000F5B7E31527FF230A7401CDB70844930540
:102CC0004400BD3FE1BFEFD2FF82E1473306F60289
:102CD0002E8A938581A30547B384C500DC28636DE4
:102CE000F700B7D5000037D50000938505E7130539
:102CF000059DEF80700F01A01304C60009472A89C3
:102D00002E9493098502639DE700BE281307C01126
:102D10006373F7021106B295253719E18D47DCA8D8
:102D2000056713070780A2864E86D2854A85EFE0A5
:102D30003F886FD06FFF1307D010E373F7FE1106C3
:102D40003388C50085489387C18213074500CE8626
:102D50002286CE85EFF05FC8C9B7EFD2AFF92E8AD1
:102D6000AA89AA8503250A0041113284EF00D014F4
:102D70006313051483270A001307000E93F6070F49
:102D8000638BE612638907124E8685455285EFF004
:102D9000DFB2AA84635705006205618541016FD0E7
:102DA000AFF89307E00763DDA700B7D5000037D57C
:102DB0000000938505EA1305059DEF80F00201A050
:102DC00061473307E502938781A3138981A3BA97EB
:102DD000D82B631B07100547D8AB23A43701854ABE
:102DE000D2854E85EFF0DFE509EDE147B387F402C8
:102DF0000547CA97D42B6396E60063940A0023998B
:102E0000070049DCE146B386D402B307D900D82BCA
:102E1000854763F2E702B1060567B707002013078D
:102E20000780CA9613868902A2854E85238E970E47
:102E3000EFE00FF8A5B7E313F7F6A287B6279A27B6
:102E4000639FE600984301CFB7D5000037D5000057
:102E5000938505EB1305059DEF80007901A0D82728
:102E60001377070439EB9C43F1FB2285EF10100424
:102E7000A9A8850736871443EDFE08C30947636791
:102E8000F700014521BF2E878547F5B7E147B38499
:102E9000F4029C41C8412EC626992320F900EF1068
:102EA000A054B2452145EF10A008E1BF2285EF10E4
:102EB000A0537D55E5B54155D5B52286930500282B
:102EC0003945EF10702E2A846DD52145EF1020036F
:102ED00071DDE147B387F4022320050040C1CA97A2
:102EE0008C43D5F188C371BF7D55E31D04F0814A41
:102EF000C5BDEFD2CFE1411101EDB7D5000037D507
:102F00000000938505A31305059DEF80E06D01A0EA
:102F10002E8981EDB7D5000037D50000938545E6B1
:102F20001305059DEF80406C01A0B28401EEB7D57A
:102F3000000037D50000938505E21305059DEF805D
:102F4000A06A01A02A84AA850842EF00E07669ED14
:102F50009C401307000E93F6070F639AE60285471D
:102F60007C849307E0055C859C30340093F7F70779
:102F7000DC85BC205C86BC30DC86056713070780D7
:102F800013068402CA852285EFE08FE2B9A8584073
:102F900014443D8F758F09CFC2074167C183130762
:102FA00097EA6387E7005C447155A1C39304C400AA
:102FB000B706002003C6C60FE145B305B602138766
:102FC00081A39386C60F938781A32E97482B8545AF
:102FD00063F0A5020C47639D85008C4058436399BC
:102FE000E500CA852285EFF01FCE41016FD06FD476
:102FF000014685452947C82B63FCA500884763190E
:10300000850003A80400C8436314A80090A2D1BFA0
:1030100005061376F60FE107E31FE6FC4A86A68550
:103020002285EFF09FD3D1B793864182B9B7EFD213
:103030006FCC138781B3032B87004D472A848349C4
:103040000B0093F9F9008A096378370536250D4797
:103050006374D704584114232147639FE602938A7F
:1030600081B303A54A011307000E9376050F63850C
:10307000E602AE8483A581B3812519ED1A249D470C
:1030800063FCE70091C4DE3013974701635B0700E0
:103090002285EF00B00711C52285EF10E0346FD014
:1030A000AFC8138AE90013990901D2852285135903
:1030B0000901EF10002B630805121E24B3852701B8
:1030C000C205C181E3EAF5FC130600283945EF107B
:1030D000C03B2A8A71D13A25938789006375F7002E
:1030E000EF10803055BF4841DA854E86EF80A0440E
:1030F000CE855285EF10C02701CDB7D5000037D55A
:103100000000938505F71305059DEF80E04D01A0B4
:10311000A2855285EF10607519C15285D1B72285FD
:10312000EF10802C5284CE852285032A4400EF10B4
:1031300040233DF183C74A01832944002386F900D7
:1031400083C75A01A386F90083C76A012387F90060
:1031500083C77A01A387F90083C70A012388F9008E
:1031600083C71A01A388F90083C72A012389F900BC
:1031700083C73A01A389F90023000A0081C4DE3025
:10318000A18BC1C783473A0003472A00A207D98F02
:1031900041675D176379F706A507C207C18323015D
:1031A000FA00A183A301FA00FD572384F9002385C7
:1031B0000900A385090081C4DE30858B91CBCA85C7
:1031C0004E85EF0060732385A9002181A385A900A6
:1031D0002688854701479306F00F01469385C1B4C1
:1031E00022856D2955BDD2852285EF10601805DD39
:1031F000B7D5000037D50000938585FA1305059DE6
:10320000EF80803E01A0A10749BF23010A00A3016E
:103210000A0059BFEFD20FAE83598500ED47011167
:103220002A842E8A63F33701F149138989009315A3
:10323000090113060028C18113052002EF10E024C4
:10324000AA844DC13E2563FD2701B7D5000037D5BF
:103250000000938545F41305059DEF80E03801A03B
:103260000329440040418D474E861CA0CA85A30017
:10327000440123020400A302040023030400A30367
:10328000040013058400EF80002B0347D900834717
:10329000C900680822075D8F8347E900C2075D8F78
:1032A0008347F900E207D98F3ECE85282A8805C9D1
:1032B0005E3123010400A3010400A18B89CBAE245D
:1032C0002AC62285152D324828A0218128B085479D
:1032D00001479306F00F700881452685C126268593
:1032E000EF10801005616FD02FA48347F502858B06
:1032F00095C35841AA85014505C383A7C1B40545B7
:10330000630CF700EFD2AFA03E857D263335A000D9
:103310006FD02FA2014582808280B707002083A74B
:10332000471495E7370700200327071419CF834672
:10333000F7021546958A639AC600544399C6102130
:103340009306F0076303D600BA873E85828083C662
:10335000F70213F716000DC313D72600058B09CF0C
:10336000D84319CB10418C47318F6D8F79DF898A13
:1033700081E6D847E30BE6FC9C4365B7EFD28F9715
:1033800040419147AA89834A040013D74A00630841
:10339000F7004E85EF10400501456FD0EF983C30A7
:1033A0002820AE84A2075D8DD52E93FAFA0083D72C
:1033B00089008A0A13990A01135909012A8A637636
:1033C000F500AA854E85EF10602383D7A900E3E2BC
:1033D00027FD83D78900E3EE47FBCD47E3FB27FBBF
:1033E00089C4DE3093F7071089C7CA85228529234F
:1033F0004DF118381C2822075D8F3C28138681B3B5
:10340000138981B3C2075D8F3C38E207D98F5CCA4C
:103410005434582493F7070FA206D98E7824420714
:10342000D98E78346207558F18CA1307000E63953A
:10343000E70883C7F402858B99E71834C547630909
:10344000F70A014A21A0DC40EDDB268A03250901A9
:1034500001CDA685952415FD832709011307000ECC
:1034600093F7070FE387E7F2E3050AF27C20783051
:1034700093F7F7032207D98FE39D07F023AC41B3FD
:1034800023229900232489001C20D6854E85BD8BDC
:103490008A072316F900EF00B06D1C3419476387C3
:1034A000E70845476383E70605476396E708A6856F
:1034B0004E85EFF0DFB7B1A82685EFF01FE31DE5DD
:1034C000034749019307F007E309F7F6B707002020
:1034D00003AA4714E3030AF663159A00032A0A00B5
:1034E000D5BF5285EFF07FE075D98DB7B9FCB1B784
:1034F000330754013C3334231167A207D58F1307D8
:103500000740E390E7F4268A85B7A6854E85EF400D
:10351000B05323AC01B2232209002324090023164F
:10352000090023280900232A0900BDB5A6854E8578
:10353000EF20907DF9BF03254901D285B52A0DE121
:10354000832749011307000E93F7070F638AE700EB
:10355000D6854E85EF00906789454E85EFF09FCB6D
:103560004E85EF00706875B7EFC2DFF8AE8A6C2544
:10357000328905460111638DC500B7D5000037D5E6
:1035800000009385C5FD1305059DEF80E00501A0B2
:103590003EC63AC436C2AA84C289630E090CD1451C
:1035A000EF00305C92462247B24709C57955056164
:1035B0006FC09FF7AE244D46636DB600B7D50000CF
:1035C00037D50000938585FE1305059DEF80C0016A
:1035D00001A0C040370A0020130AEA0F14A41CB44B
:1035E000834709001CA8834719001CB8834729009A
:1035F0003CA88347390018B03CB8930750041CA07E
:103600008A24692A28A0218128B003550A002303AF
:103610000400A3030400592283570A0048A0218113
:10362000850748B02310FA0063940A0483A78183B6
:1036300013D787005CA458B413D70701E18378A49B
:103640007CB423050400A30504006386090083D726
:103650004902858B99C7D1452285792C28A42181DF
:1036600028B483A749014A86A6854E85829781B7EB
:1036700083A70A0075BF3A25CD47E3F9E7F2544125
:103680001309C101983A9C2A22075D8FBC2AC20700
:103690005D8FBC3AE207D98F3ECEE1B7EFC23FE77C
:1036A00001CA89C583A805006394080093054800F2
:1036B000EFF09FEB6FC0FFE79306F5FF7557AA8702
:1036C0006366D70203C7F5020145098B0DC3D841D4
:1036D000630FF70094453D8F758F11EB93C6F6FF8E
:1036E00033F5F600158D133515008280054582806F
:1036F0001C414111AE8E3EC601457400294FA542C2
:103700009303F00F930FE00203C806008147337361
:10371000E80393080101BE98138E1700137EFE0F75
:103720003357E80313030303238C68FE1377F70F63
:1037300063E7020398A22A887687050563947702D7
:103740006353C8042300F70185061C08930E170075
:10375000E39CF6FA230007002E85410182803A8817
:10376000F28775B79388F7FF93F8F80F635DC80089
:1037700013080101C29783C787FF05072A88A30F93
:10378000F7FEC6875DBF0145C9BFEFC25FD841469E
:10379000938581B2EFF0DFF56FC0BFD99317850035
:1037A00021815D8D420541818280135785019317E8
:1037B0008501D98FB706FF0013178500758FD98F44
:1037C0004167130707F02181798D5D8D828041115A
:1037D000231701009376150099C66356B0001C218B
:1037E000FD150505DC8781470547634EB7026394E5
:1037F000E50018215887288741677D173E95935724
:103800000501798DAA9713D50701F98F3E9581CAD5
:103810009317850021817D8F1375F50F598D420512
:1038200041814101828009050356E5FFF915B297F0
:103830006DBFEFC23FCC18439442C167FD1733748C
:10384000F70041833A9433F7F6003A94C182A29686
:1038500013D40601FD8EA29613D40601FD8EAA890B
:103860002E8A32893694814ABE8463960904638B1A
:103870000A004167931784007D172180F98F137424
:10388000F40F5D8C5285EFF07FF1AA844A85EFF04A
:10389000FFF02695C167FD172A94135504017D8C0E
:1038A0002A94135504017D8C2A941345F4FF420594
:1038B00041816FC07FC783D5A90003A54900EFF000
:1038C0001FF12A9493570401658C3E9483D7A90075
:1038D000858B91CB931784002180E58F1374F40FAF
:1038E00093CA1A005D8C83A9090041B7EFC23FC299
:1038F000EFF03FF46FC0FFC3EFC27FC1EFF03FEDC9
:103900001345F5FF420541816FC0BFC2EFC29FBEA4
:103910004169AA84814901447D1995E0638B0900BE
:103920004167931784007D172180F98F1374F40F7A
:103930005D8C1345F4FF420541816FC0FFBEAE248C
:10394000C840EFF0DFE82A94935704013374240150
:103950003E94BE24858B99CB931784002180B3F7C6
:1039600027011374F40F93C919005D8C844075B757
:10397000EFC2FFB9EFD02FD919289D234D2DEF406D
:10398000300BEF10600CEF40607C6FC09FBAEFC24D
:103990001FB8B70700209387373DF19B37070020FA
:1039A0002324F71009679306078094C33706002085
:1039B000BE962326D610B72600183E97238207000E
:1039C000938606802320D780370500208546230272
:1039D000D78013054510370700202320F710EFD0BC
:1039E0002FD501CDB7D5000037D500009385850EC2
:1039F0001305059DEF70503F01A06FC09FB3630892
:103A00000518EFC23FAF937735002A8481CFB7D531
:103A1000000037D50000938585011305059DEF70E3
:103A2000B03C01A0B70900209389891083A7090041
:103A3000930485FF63ECF400B707002083A6C7104A
:103A40001307C5001389C71063FDE600B7D5000052
:103A500037D500009385C5031305059DEF70D03859
:103A600001A0370A002013054A10EFD08FCF8347FB
:103A7000C4FF81EFB7D5000037D5000093858505D9
:103A80001305059DEF70503601A0835784FF096729
:103A900013070780636AF7028356A4FF6366D702A1
:103AA00003A709003386E440420641826306D6003C
:103AB000BA969622639AC60083250900BA97638056
:103AC000B702B623638DC600B7D5000037D5000016
:103AD000938505081305059DEF70103101A0B70609
:103AE000002003A50610230E04FE9386061063F340
:103AF000A40084C263FDE400B7D5000037D5000000
:103B00009385450B1305059DEF70102E01A063ED05
:103B1000B400B7D5000037D500009385C50C130558
:103B2000059DEF70702C01A06385F402C82315E198
:103B30006381B7028C426393B70084C28E23231C37
:103B4000B4FE9E238965938505806384B700BA9788
:103B5000B2A30356A4FFB307C7006384F402CC23C7
:103B60008DE18C426393B4009CC2835684FF96A37C
:103B7000835684FF8967938707806384F6003697AE
:103B800032A313054A10EFD08FC36FC0FF99828014
:103B9000EFC25F9613843500719842044180AD47AF
:103BA000AA8463F9870089679387078063F5870094
:103BB0008144EDA83144E36DB4FEB7090020938938
:103BC000891003A7090063E8E400B707002083A772
:103BD000C71063EDF400B7D5000037D5000093851A
:103BE00005181305059DEF70302001A0938784FF11
:103BF00003D984FF998F139A0701135A0A01611997
:103C000033094941420913590901637D8900B7D538
:103C1000000037D50000938585191305059DEF70C9
:103C2000B01C01A063048908B70A002013854A105C
:103C3000EFD02FB383D684FF83A709003386D70044
:103C4000582225EB896593850580639DB600B7D51D
:103C5000000037D500009385851B1305059DEF7087
:103C6000B01801A0B706002013078A00938606103B
:103C70003A9403A80600420441800E22338787004D
:103C80006313C80098C2230207000EA32311470143
:103C9000239C84FE1A238966938606806304D700DA
:103CA0003E9722A313854A10EFD06FB126856FC0CF
:103CB000BF8713074401E367E9FE13078A003A94BC
:103CC00009664204130606804180639DC600B7D58D
:103CD000000037D500009385851B1305059DEF7007
:103CE000B01001A037060020130606100C423387DF
:103CF00087006373B70018C216A3230207002311BD
:103D00004701239C84FE1A23896693860680E30B71
:103D1000D7F8BA97A2A379B763030516EFC22FFFAE
:103D200013043500719842044180AD4763FA87005F
:103D300089679387078063F6870001456FC06FFF2F
:103D40003144E36CA4FEB704002013854410EFD087
:103D50004FA1B70600203707002083A70610032EC7
:103D600087100966130606803387C74142074183DF
:103D7000268593880610B305864061536367B700B4
:103D800013054510EFD0AFA34DBFB304EE00D42010
:103D900003D80400FDE2B306E340C29663EF860C4D
:103DA0009305440163EFB60693068400BA96C206F3
:103DB000C182639DC600B7D5000037D5000093854A
:103DC000851B1305059DEF70300201A0B305DE00D1
:103DD00023900501BAA123820500054796A0D8A02B
:103DE0009A216304C700729736A33709002013098C
:103DF000C910639E970283260900D82319C36395CF
:103E0000F60223A0F8006384F60215C3B7D50000BC
:103E100037D50000938545101305059DEF70C07CD4
:103E200001A00547D8A0D1B79E23F297F9B7130593
:103E30004510EFD0CF98832709002104269463FD15
:103E40008700B7D5000037D500009385051213050C
:103E5000059DEF70607901A093F73400138584000D
:103E6000E38E07ECB7D5000037D500009385051524
:103E70001305059DEF70407701A0428701B701450A
:103E80008280EFC2CFE82A84EFD0EF881C408043C5
:103E90000DC0184098C39377340081CFB7D5000088
:103EA00037D500009385C51C1305059DEF70C073C1
:103EB00001A0EFD02F8722856FC0AFE71C45544586
:103EC00072218D0723A00600F19B01476343C700C1
:103ED00082808C4205078CC34E219CC2AE97FDB7F1
:103EE000EFC2EFE235641304C430930404030840C6
:103EF0001104EFF0BFFCE31C94FE6FC08FE3EFC230
:103F00000FE1AD4763FBA70037D500001305C52EB1
:103F1000EF70806D01456FC0CFE1931725003565C7
:103F20001305C5303E9508413105EFF09FF5E5B723
:103F3000EFC2EFDDAD47411163FBA70037D50000AD
:103F40001305052BEF70406A41016FC08FDEEDDD78
:103F500093F7350081CFB7D5000037D500009385A2
:103F6000C52C1305059DEF70206801A0931725004F
:103F700035651305C5303E9500412EC6EFC0BFF92B
:103F80005C44B245984398C18CC3EFC0BFF96DBF84
:103F900051558280EFC2AFD701EDB7D5000037D5BC
:103FA00000009385C5451305059DEF70E06301A0F2
:103FB0000347F502954613765700631CD6008589A2
:103FC00089C9544199C6218B09C793054500EFE083
:103FD0003FC76FC00FD6EFC28FD3011181EDB7D5A8
:103FE000000037D500009385C5441305059DEF708B
:103FF000A05F01A05C4198412A84AE84014563051D
:10400000F7021CC232856C083ACE32C6EF00106E41
:1040100032466C083285EF40E0729C40228585452F
:104020005CC0EFF03FF7054505616FC08FD082801F
:10403000EFC2EFCD0111AA8432892E8499E1138455
:104040008183631409001389818399E293868183B4
:104050001C4099C3814709A87008A285268536C6E9
:10406000EFF07FF7B24685470327090090446303CA
:10407000C70098C49842D4446303D700D8C491E7DA
:104080007008A2852685EFF01FF505616FC06FCA25
:10409000EFC2EFC741112A8419E937D50000130593
:1040A000853CEF706054228541016FC08FC889EB59
:1040B00037D500001305453EEF7000530144E5B7C6
:1040C00099E19385818319E21386818399E293862E
:1040D0008183B704002037450000130505F958CC4B
:1040E00003C7841448C841657D1548D02309E402FC
:1040F00023280401228523220400232404002326EC
:104100000400A307040223000402A3000402230105
:104110000402A30104023EC6EFF09FF1B2472285DC
:1041200093848414829759F9B707002083A5471414
:10413000138747141305F00F834724036394A700E4
:1041400023090402AE871306001099EF8347240366
:104150001306E00F81466385C700850793F6F70FC6
:104160000CC094A000C381B7631DF400B7D5000054
:1041700037D50000938585401305059DEF70C04637
:1041800001A07D1601EEB7D5000037D5000093855C
:10419000C5411305059DEF70204501A00348240388
:1041A00083C627036396060185062309D40269B7EF
:1041B0009C4361BFB707002023A0A7148280EFC2F1
:1041C0000FB509E937D500001305854CEF70C041E4
:1041D0006FC02FB68347F50293F61700F5FA93E701
:1041E0001700A307F5028D45EFF0DFDAD5B7EFC270
:1041F0000FB209E937D500001305454AEF70C03EFC
:104200006FC02FB38347F5022A8413F747006DFB75
:1042100093E74700A307F502EFE02F888D4522853D
:10422000EFF05FD7F1BF19E9EFC26FAE37D50000ED
:1042300013050548EF70403B6FC0AFAF8347F502F1
:1042400013F7470009C7ED9BA307F5028280828020
:10425000814711C5B707002083A7471499E33E851E
:10426000828003C7270305071377F70FE309A7FE2B
:104270009C43EDB7EFC2AFA9EFC0FFC9B70700205D
:10428000A3840714EFC01FCAB707002003A5C714F3
:1042900009C53C5D89C7EF00101D6FC08FA9484557
:1042A000C5BF11EDEFC2AFA6B7D5000037D50000EE
:1042B000938585B81305059DEF70003301A0416714
:1042C000AA87054563F6E5040145B9C19A27939687
:1042D0000501C1823697420741830545636AD702CB
:1042E0000385C700635B0500D0430545B305B640B1
:1042F0001386070163F8C5008280054511CAD043C3
:10430000B305B640B227CCC39AA7B296B6A701456B
:104310008280EFC2CF9F1374F6FB85474111630D76
:10432000F400B7D5000037D5000093854553130539
:10433000059DEF70602B01A0AA84294532C62EC4CA
:10434000EFF0FFBB01CDA24532462320050044C15A
:104350000EA52EA550A5A306050062A541016FC0BC
:104360004F9DEFC2CF9A0146EFF0BFF36FC06F9C35
:10437000EFC2EF9901EDB7D5000037D50000938566
:1043800085B81305059DEF70202601A04167AA8717
:10439000054563F1E502014591CDBA2793960501E4
:1043A000C182637BD70037D500001305057AEF7013
:1043B000A02305456FC0EF97158FD043BAA79A2762
:1043C000B295CCC3158F9AA70145EDB7EFC22F94D4
:1043D00063D80500B305B040EFF09FF96FC06F954B
:1043E0000546EFF01FECDDBFEFC2CF90411115C5C0
:1043F000AA858144094985492EC6EFC0DFB1B2457F
:10440000E0251DE4B7D5000037D500009385457140
:104410001305059DEF70401D01A0B7D5000037D5ED
:104420000000938585B81305059DEF70E01B01A082
:104430007D141374F40FE0A52EC6EFC0BFAE15E0D7
:10444000B2452D45DC258041BD8B63852701639EE8
:1044500037012945EFF0DFAD850493F4F40FA28511
:1044600041FC268541016FC02F8C89E72E85EFF036
:104470000FD9DDB7B7D5000037D500009385C572D9
:104480001305059DEF70401601A0EFC2AF8693079C
:10449000100441116306F60863E0C7028547630113
:1044A000F608B7D5000037D5000093858551130570
:1044B000059DEF70601301A01314050193072018E8
:1044C00041806307F60693070028E31CF6FC0D0401
:1044D000938735007198F19B3E94420441802A896C
:1044E0001305040142052EC641816364F40A636228
:1044F000F50AEFF07F82AA8405C942091359090120
:10450000B2452A994D09C1671379C9FF93870708F6
:1045100023200500232225010EA52EA55CC529A078
:104520000145EFF01FDFAA84268541016FB0DFFF50
:10453000416981498144130A002013092908930A1B
:1045400000202D452EC6EFF09F9BB24529E537048C
:10455000002013049414EFC01F9C034904008547F6
:104560001CA01379F90FEFC0FF9B631009023745B8
:104570000000814513054527EF40204019C5EFC0D5
:104580009F9923000400EFC0FF9981C42685EFF0B6
:10459000BFE5814451BF130734009377C7FFB307CA
:1045A000FA40BE86C207C18363F3F500AE862A9443
:1045B0004D047198939706012320050040C10EA574
:1045C00036A523262501719BC183631D5701B7D5ED
:1045D000000037D500009385454E1305059DEF700B
:1045E000A00001A091C823A0A9009D8DC205C18192
:1045F0000144AA89B9F50DBFAA84C5BFEFB23FF146
:1046000001EDB7D5000037D500009385057413057B
:10461000059DEF60707D01A01E252A8463FDF506CF
:10462000AE84B387F5402E2463EC95025C24BD8BE9
:10463000B9EB638A95044C402285818DA695C2050D
:10464000C181EFF0EFD42A841DEDB7D5000037D536
:104650000000938505771305059DEF60F07801A0B4
:104660001A248D8CC2043E971AA40040C18045FCD8
:10467000B7D5000037D50000938585751305059DD6
:10468000EF60907601A0084026A406A419C1EFF0BF
:10469000BFD5232004006FB0DFE9814719E13E85D3
:1046A00082808507C207C1830841CDBF15C9EFB21B
:1046B0001FE62A84EFC03F867C2485077CA4EFC0D8
:1046C0007F867C2481EFB7D5000037D50000938525
:1046D000C5781305059DEF60307101A06FB07FE5CF
:1046E0008280EFB2DFE211C189ED37D500001305FA
:1046F0008554EF60706F6FB0DFE3962536971AA58B
:104700003E851C411A25F5FB3E25638DE700B7D594
:10471000000037D50000938505581305059DEF600F
:10472000B06C01A09A250CC1BA971EA5E9B7EFB2EB
:104730001FDE2E84EFF0FFFA2285EFF03FF76FB017
:104740005FDFEFB23FDB411191C59E252E84328998
:1047500063FCC70037D5000013054562EF60D068E1
:10476000415541016FB05FDCAA8419C51A25B38792
:10477000C60081496357F70037D5000013058565EA
:10478000F1BFBE243A24958F330737416373F70096
:10479000BA874A8A6366F900139A0701135A0A0115
:1047A000C8404C4052863695CE9536C6EF60B0581C
:1047B000B246BE24330949414209D296D2991359CF
:1047C000090163FDD700B7D5000037D500009385F8
:1047D00085681305059DEF60306101A03A24637D73
:1047E0003701B7D5000037D500009385056A13055A
:1047F000059DEF60705F01A0631637070040814997
:1048000035E06305090437D500001305C56BB9B75A
:1048100099C4BA249E246314F7009C4091EFE312DC
:1048200009F601453DBF81466DD481463A241E24D8
:10483000E310F7FE1C40E9DF37D500001305C56D16
:10484000EF60905A695531BF6DF0E1BFCA89E392BC
:10485000D7FC8440E9F8E30909FE37D500001305C9
:10486000C56CEDBDE394D7FCEDB7EFB25FCA91E93B
:1048700037D500001305455CEF60105741556FB008
:104880005FCB92258146EFF0DFEBD5BFEFB29FC63D
:1048900019E937D500001305055EEF60F0540144B7
:1048A00022856FB07FC82A892E8AB284014495E19F
:1048B00037D5000013050560EF601053D5B7835559
:1048C000A90081CE63EBB6008D8EC206C18203299A
:1048D0000900F9D4E31509FEE1B7958DC205C18140
:1048E000AE8963F3B400A68983254900C20993D930
:1048F0000901B69533058A004E864E94B38434413F
:10490000EF6070434204C2044180C1808146C1B758
:10491000EFB25FBE11E937D500001305057CEF60EB
:10492000B04C41556FB05FC0AE8A91E537D50000FD
:104930001305857DEDB71E252A84328AB28481490C
:1049400063F5C70437D500001305457FEF60D049F4
:104950007D55C9BF01ECB7E5000037D50000938550
:1049600045811305059DEF60304801A00359A4005F
:1049700063F3240126894840B3853A014A86EF60F3
:10498000903B0040B3842441CA99E9F40145E38B8C
:1049900049F9B7E5000037D500009385C5821305B6
:1049A000059DEF60704401A0EFB27FB6B2842E8601
:1049B0008E24EFF09FAD2A8405C1A685EFF0FFEAB3
:1049C00001CDB7D5000037D500009385055B1305F1
:1049D000059DEF60704101A022856FB09FB5EFB2D9
:1049E0001FB301EDB7E5000037D500009385459171
:1049F0001305059DEF60503F01A0584991472A8457
:104A00006309F7009D476303F7028D468147631CE6
:104A1000D700EF20B04CAA8705E195475CC82285F6
:104A2000EF20D07D81473E856FB0BFB0EF20104BA7
:104A3000AA8719E1A547DDB77D57E396E7FE7E2CEF
:104A400093E787007EACF9BFEFB27FACEF60D04B4D
:104A50004A05F17749813E952396A1806FB07FADDD
:104A6000EFB2FFAA58498547631DF700B7E500007C
:104A700037D50000938585941305059DEF60D036EA
:104A800001A0AA850545EFF0AFCA6FB09FAAEFB2AB
:104A90001FA801EDB7E5000037D500009385C5CC10
:104AA0001305059DEF60503401A0AA874E351459B7
:104AB0001055FA3B3385D540130800403295637496
:104AC000E80013070040420741833307E540634590
:104AD0000700EEB76FB0FFA53307D6406356E0007E
:104AE000239707020145FDB7918E416763EDE6000C
:104AF000B7E5000037D50000938505CF1305059D68
:104B0000EF60902E01A0F6B7F1BFEFB25FA009E908
:104B100037E50000130545AAEF60102D6FB07FA1A7
:104B2000584985472A84631DF700B7E5000037D54B
:104B300000009385C5AB1305059DEF60F02A01A029
:104B40005A35856793870780BA95C205C18163E4AA
:104B5000B70063F3E500BE854EB42285EFF03FF366
:104B60009307F01FE3FCA7FA7E2C228593E727002A
:104B70007EACEF20B0685DB70DC1EFB25F99AA853A
:104B80004841411109C52EC6EFF01F86B2450D45BB
:104B9000EFF00FBA41016FB0DF99828011E182809E
:104BA000EFB2FF960041EFF03FFD228565FC6FB04C
:104BB0005F98EFB2DF95411101EDB7E5000037D501
:104BC0000000938545AE1305059DEF60F02101A01F
:104BD0002AC60D45EFF0AFB22A8401C9B24551464D
:104BE000EF6070154840EFF07FAC228541016FB057
:104BF0005F9411EDEFB2BF91B7E5000037D500002B
:104C0000938505991305059DEF60101E01A09387FC
:104C100081803707002088430327C7153A9588C34A
:104C2000828011EEEFB2BF8EB7E5000037D50000ED
:104C3000938505921305059DEF60101B01A09DC192
:104C4000FE318DC393068002014763FAF600938715
:104C500087FDC207C1833E876373F5002A8713155A
:104C60000701418182803C5D99CBEFB25F8A2A8443
:104C70003E85EFF0BFF2232C04066FB09F8B82803D
:104C8000EFB2FF8809E937E500001305C59BEF6027
:104C9000B0156FB01F8A5C4905472A84E37BF7FE95
:104CA0002947E388E7FE685D09C5EFF0EFF3232E9F
:104CB00004063C5C81C72285EFF0FFFA2858FD57B7
:104CC0005EB8EFF0BFED6858EFF05FED2328040603
:104CD000232A0406231604066DBFEFB25F8381ED1D
:104CE000B7E5000037D500009385859D1305059D28
:104CF000EF60900F01A001EDB7E5000037D500008F
:104D00009385459F1305059DEF60100E01A01C4182
:104D10002E84639DF502DC451CC1232604002285F8
:104D2000EFF01FF65C4829476399E7023C58A1EF72
:104D30007C58ADC7B7E5000037D500009385C5A204
:104D40001305059DEF60500A01A0BA87F9D7D8472F
:104D5000E31DE4FE5844D8C7C9B78544638F970064
:104D60007E2C13F7170079D393E727007EAC2285BA
:104D7000EF20D0485C48E39B97FA232A0400231DC8
:104D800004006FB00FFBB7E5000037D50000938536
:104D900045A11305059DEF60300501A03C5CF1DFE6
:104DA000B7E5000037D50000938585A41305059D60
:104DB000EF60900301A0EFB20FF309E937E50000BF
:104DC00013054584EF6050026FB06FF55C49854B69
:104DD0002A84639D7701B7E5000037D500009385ED
:104DE00005861305059DEF60300001A02947639DEE
:104DF000E700AA853705002013054516EFF0FFED03
:104E00002285EFF0FFC5C9B7832A4505032B85022C
:104E100083294509032A0501262DB5EB014991CCCB
:104E200037070020130747151C43639BA7045C4505
:104E30001CC32326040081440149685819C1EFF0BE
:104E4000FFD5285819C1EFF07FD5285C19C1EFF0C4
:104E5000FFD4630D09000358C401A687130744005B
:104E6000A2865A86D6852285EF20B02B2285EFF0C8
:104E70003FBFE38B09F4CD5552858299B1B7BA870C
:104E8000CDDBD847E31D87FE5844D8C75DB72E89D0
:104E9000AA85370500201305C514EFF01FE4B707F6
:104EA00000202388771551BFEFB26FE68545EFF0FC
:104EB0009FF06FB00FE8EFB28FE52A840DE5B7E5FC
:104EC000000037D500009385C5951305059DEF605B
:104ED000A07101A098411C40C4456315F7002E85C0
:104EE000EFF09FFCA685FDF56FB0AFE431C5EFB2E2
:104EF0000FE218412A841DC7B7070020AE8483A59E
:104F0000C714EFF05FFBB707002083A54715228584
:104F1000EFF07FFA81C89C4091C7B707002083A7B4
:104F2000871599E36FB0EFE0944318406394E6006F
:104F3000984098C3DC47F5B78280B7070020370751
:104F4000002083A7C7148325C7150146814691EB2E
:104F50008DC6EFB2CFDB81453685EFF0DFE56FB070
:104F60004FDDD84B6319A700D8533387E5406364FE
:104F7000C7003A86BE86DC47D9BF8280EFB22FD900
:104F80002A840545EFE0BFF7AA872DE937090020FD
:104F90000325C9141309C91469EDB707002083A7B5
:104FA0004716B704002003A6C41581469384C41590
:104FB000639C070C19C1EFF03FEF0545EFE03FF4AC
:104FC000AA870DED2545EFF05FF70545EFE03FF3CC
:104FD000AA870DE52145EFF05FF60545EFE03FF2CA
:104FE000AA8709ED1317840161876348070A22879E
:104FF0005DE40545EFE0BFF0AA872DC93E851306A5
:10500000000A8145EFB0AFD305671307078023146B
:10501000E506371700081307078058D57D5738B5C0
:1050200019472312E5042311E504370701027D1710
:1050300058D9370700200327C715AA8700AD58D1D4
:1050400037070020034717162301E502370700083A
:10505000050778C537570000130707282324E508FC
:1050600037E76D00130707D0232CE5083E856FB0A6
:105070004FCC7E2D444513F7870009C7DD9B7EADDD
:10508000EFF0FF95268509BFD8533307E6406364E8
:10509000D700BA863E85DC4721BF1307F007832679
:1050A000090003A804007D171377F70F014691E666
:1050B000A9D33E85EFF05FDF2DBF8C2E63E9E500BD
:1050C000639CE500C8523305A8406367C500D05211
:1050D0002E87B6873306C840D446D1BFEFB22FC360
:1050E00001EDB7E5000037D500009385C58B1305AA
:1050F000059DEF60604F01A02A845C49C1CD114736
:105100006385E7001D476397E708785C09E75A3431
:105110001307078041C37E2CC18B81EFB7E50000E8
:1051200037D500009385C58D1305059DEF60C04BF5
:1051300001A03E2C0358C40110546C4813074400CE
:10514000A2862285EF20E07D2285EFF07FB337072E
:1051500000201307C7141C43639787025C441CC3D9
:10516000B707002005472388E714B707002083A767
:10517000C7172326040063978704EF10D0750145F5
:105180006FB02FBBBA87E9DFD847E31D87FE5844CD
:10519000D8C7F9B785446383970481CB0947638DEA
:1051A000E7082285EFF0BF83E1BF3E2C81CF3707B0
:1051B0000020130747151C43639B87005C441CC3F6
:1051C000232604002285EFF0BF8955BFBA87EDDBA7
:1051D000D847E31D87FE5844D8C7DDB7B967938722
:1051E000C79A9386C700D843184315EB9107E39CF1
:1051F000D7FE37050020A28513058515EFF0FFAD1A
:10520000584885476315F702B7E5000037D5000019
:105210009385858F1305059DEF60003D01A0032652
:1052200007086314C4002320070858477DBFA285E0
:105230000945EFE0FFCFA1B737050020A285130590
:10524000C514EFF09FA9B7070020238897149DBFCE
:10525000EFB2EFAB11E937E500001305458AEF60C7
:10526000A03841556FB0EFAC584985476306F70049
:105270007E2D93E707017EAD8545EFF03FE6DDB774
:10528000EFB2EFA8411181ED37E50000130585A8C5
:10529000EF608035C1573E8541016FB08FA92E85E3
:1052A00019CA0E2632C6EFF05F8632463285EFF01D
:1052B000AF938147CDB78147F9FEEFF07FF9AA8719
:1052C000D9BFEFB22FA319E937E50000130505A6F2
:1052D000EF608031C15426856FB00FA50329C50743
:1052E000832785082A848349D900232E0506814611
:1052F0004A86AA8585CF08498297AA8405ED93F945
:105300000902E38A09FC5E341387078019C3850705
:105310005EB483278408E1D3084881460146A2850C
:105320008297CD57E319F5FACD5475B70145EFF0E3
:105330003FF5E1B7CD57E309F5FE232E2407ED54E1
:1053400059BFEFB22F9BB7040020138714161C23FC
:1053500093841416370A002085071CA3B70A00207F
:105360000324CA1419E06FB02F9C9C200347240229
:10537000630AF7042301F4027E2C13F7170011CB04
:1053800093E727007EAC2285EF2040677E2CF19BBF
:105390007EAC7E2C13F7870011C7DD9B7EAC228587
:1053A000EFF0EFE37C5C0329C40099CB93890A15E5
:1053B000228523800900EFF0DFF083C70900CDF3D9
:1053C0004A844DB70329C400E5BFEFB24F913709B6
:1053D00000201307C9151C43B70A0020B96B8507C5
:1053E0001CC313871A161C23411185071CA313091C
:1053F000C915938A1A16B70C0020938B4B89138C0E
:105400000184B7090020375B0A0003A4C914014ACC
:105410009389C914054D130B8BCB19ECB7090020E8
:1054200083A44916294A93894916930A000F639960
:10543000043841016FB06F8E5C4881EFB7E5000022
:1054400037D50000938505B01305059DEF60C019A1
:1054500001A0639DA701B7E5000037D50000938543
:10546000C5B21305059DEF60201801A02947639D73
:10547000E700B7E5000037D50000938585B5130533
:10548000059DEF60601601A003C70A008346240251
:105490006397E600832DC400228A6E84BDBF23017A
:1054A000E4028946034764046395D700954763EC9B
:1054B000E7208D4763E9E7208344D409638C041413
:1054C000785801CFB7E5000037D50000938585B83F
:1054D0001305059DEF60401101A0385801EFB7E5B5
:1054E000000037D500009385C5BB1305059DEF600F
:1054F000A00F01A00347E40963E7E71CE29403C798
:10550000F4FF8347C40963EEE70083554406E5C50D
:105510002285EF10106D65E52285EF20204E09C928
:10552000F9A8850793F7F70F230EF408E3FFE7FCCC
:1055300081445C4819476390E7027A2C418B01CF84
:10554000545003270900158F9306800263F5E60087
:10555000850493F4F40F1834814D218B0DCB114742
:105560006385E7001D476394E702832584091306DA
:10557000401F03270900B3866501B3D6C6025C50FD
:105580001D8F63F4E614850493F4F40F854D3C5CA1
:1055900099CF5C500327090099461D8F8317440457
:1055A000B387D7026365F7002285EFF0CFEB5C4845
:1055B0000D476394E714585083270900998F130708
:1055C00080026364F700638A041A228583244409F5
:1055D000EFF00FEB83A7090063000A186319F412B8
:1055E000B7E5000037D50000938545BF1305059D3D
:1055F000EF50907F01A02285EF20300E15F98347F0
:10560000D409230E04081947E364F7F28507A30EB3
:10561000F40839BF8317440363C0070A21677D1765
:10562000639AE7082285EF20A01219C57C58E39100
:1056300007F03C58E38E07EE58488947630DF702A0
:105640008317040403172404B1468D87BA970347D0
:10565000640463F3E60031471377F70F5E9718236E
:10566000B397E70021679306E7FF63D4F60093073B
:10567000F7FF2312F4040357C40483574406231A84
:1056800004026373F700BA877638C207C1831397A1
:105690001600858342072317F404418363F4E7006F
:1056A0002317E4042316D404231704062285EF20CD
:1056B000407741B585075EB8031744038317440458
:1056C000E348F7E685B78544ADB58347F409C96675
:1056D0009386864FB387D702814DAE97B3D7C70263
:1056E000E3F7E7EA2285EF20007AE31205EA834731
:1056F000F4098507A30FF40859BD2547E395E7ECA6
:10570000585083270900998F1307000F5DBD5C4433
:105710002326FA00638D0D000358C4013E2C10545B
:105720006C4813074400A2862285EF20801F1C4886
:10573000832DC400228513840C153EC6EFF04FB2B2
:105740002300040081C8B247CD553E8582941C20B9
:10575000E39907CA528489B3630DF400B7E50000EA
:1057600037D50000938505C21305059DEF50D0671E
:1057700001A05C4423A0F90071BF834704020347E2
:105780001402832DC400850793F7F70F2300F4025A
:10579000E3E4E7D08327040993840C152300040273
:1057A0002380040089E72285EF204025F5B10848D1
:1057B000A28582979C20E39607C4E31F05CCE5B73A
:1057C000DC48638D4701B7E5000037D500009385BD
:1057D000C5C41305059DEF50306101A08327090062
:1057E000D850998F63F5FA022685EFF06FC91DE056
:1057F00083A709006388F404B7E5000037D50000EB
:10580000938545CA1305059DEF50105E01A02684BF
:10581000C44431B983A70900639DF400B7E50000D3
:1058200037D500009385C5C71305059DEF50D05BA4
:1058300001A0DC445CC403ABC4002685EFF04FA29A
:10584000DA84F5B6DC4423A0F900F5B7EFA23FCC2B
:10585000EFF03FAF37070020130707161C2385071B
:1058600093F7F70F1CA3858B99C3EFF01FB66FA0BA
:105870005FCC138701901E239386170016A303A7FE
:10588000C19009C783D6819063F7D70003A74190E1
:10589000BA97C82B8280958F93F7F70FBA97882312
:1058A0008280EFA23FC501EDB7E5000037D50000CB
:1058B0009385C5F71305059DEF50105301A01C49B2
:1058C000AA842E89C827DC37A2075D8DEFD01FED93
:1058D000058939E5B7090020630809040327090190
:1058E00003A689179E2454334C23B297A206D58D64
:1058F0007423C206CD8E6C33E205D58D83568900A4
:10590000AE96B386D74063D506028D8F635EF000F6
:10591000918DC205C840C1818EA4EFE03FCE29A081
:105920004A85EFF0AFA7014923A024016FA0DFBF94
:105930005C374827A2075D8DEFD05FE6058905C17A
:105940009C48C037C8272204498C0545EFD01FE585
:105950009C48418D42054181C8A72181C8B70324D5
:1059600009004A85EFF04FA12289BDB7EFA2BFB76A
:1059700001EDB7E5000037D50000938545FA130522
:10598000059DEF50704601A003D901916300090203
:1059900023900190AA8993840190054A854A094B76
:1059A000914B130CF01F9E2063E427016FA03FB7BB
:1059B000EFF03FECE30945FF93178501E187FDD741
:1059C00063106505EFF0FFEAE31275FF9E2085077F
:1059D000E3DE27FDEFF0FFE9220513140501418006
:1059E000EFF03FE9418D420541819307F5FFC20782
:1059F000C1836374FC0013050020239BA90265B7D3
:105A0000EFF03FE7E3F4AAFA9E20F917AA979EA0C9
:105A100059BFEFA2DFAF01EDB7E5000037D50000B9
:105A2000938545F51305059DEF50103C01A0B70780
:105A3000002083C747172A840145C18B8DC77E2C60
:105A4000C18B99E78327440981C70848C5558297C8
:105A500037050020A2851305C514EFF00FA8228595
:105A6000EFF00F8005456FA0DFACEFA2BFA82A8939
:105A7000328A2E84B7090020B70A002051C4184882
:105A800048335C2322055D8D7C23C207C98F6833B0
:105A900062055D8DEFD07FD11C482A8B0624C82774
:105AA000DC37A2075D8DEFD07FCF83A789160D89E4
:105AB0003335A0009D8CDA94AA9463489004484042
:105AC0000440EFE09FBD8357090063FDA700B7E5E1
:105AD000000037D500009385C5D21305059DEF5012
:105AE000B03001A0898F1387EA162310F90016231E
:105AF0001E242285B6971EA3EFF00F888357090056
:105B00009DC395E063060A00014422856FA0DFA1D2
:105B1000B7E5000037D50000938545D51305059DF1
