:040000006F00300D50
:100004000000000000000000E6050000E805000014
:1000140000000000D0080000000000000000000004
:10002400D0080000D008000000000000000000001C
:10003400E68D000000000000000200000000000047
:10004400D0080000D0080000D0080000D00800004C
:10005400D0080000D0080000D0080000D00800003C
:10006400D0080000D0080000D0080000D00800002C
:10007400D0080000D0080000D0080000D00800001C
:10008400D0080000D0080000D0080000D00800000C
:10009400D0080000D0080000D0080000D0080000FC
:1000A400D0080000D0080000D0080000D0080000EC
:1000B400D0080000D0080000D0080000D0080000DC
:1000C400D0080000D0080000D0080000D0080000CC
:1000D400D0080000D0080000D0080000D0080000BC
:1000E400D0080000D0080000D0080000D0080000AC
:1000F400D0080000D0080000D0080000D00800009C
:1001040000000000D0080000D0080000D008000063
:10011400D0080000D0080000D0080000D00800007B
:10012400D0080000D0080000D0080000D00800006B
:10013400D008000060B20000D0080000D008000021
:10014400D0080000D0080000D0080000D00800004B
:10015400D0080000D0080000D0080000D00800003B
:10016400D0080000D0080000D0080000D00800002B
:10017400D0080000D0080000D0080000D00800001B
:10018400D0080000D0080000D0080000D00800000B
:10019400D0080000D0080000D0080000D0080000FB
:1001A400000000000000000000000000000000004B
:0C01B4000000000000000000000000003F
:10020000130181F806C216C41AC61EC822CA26CC1B
:100210002ACE2ED032D236D43AD63ED842DA46DC76
:100220004ADECEC0D2C2D6C4DAC6DEC8E2CAE6CC46
:10023000EACEEED0F2D2F6D4FAD6FED8F3220030CF
:1002400096DA83A2C19523A02200F32510342EC094
:100250009305000273A0458003A18184EF90F06AAA
:1002600003A3C19503210300824273901234D65236
:10027000739002309240A2423243C2435244E2445D
:10028000724582551256A2563257C2575258E258FA
:1002900072598649164AA64A364BC64B564CE64C0E
:1002A000764D865D165EA65E365FC65F13018107DA
:1002B0007300203013000000130000001300000042
:1002C00013000000130000001300000013000000E2
:1002D00013000000130000001300000013000000D2
:1002E00013000000130000001300000013000000C2
:1002F00013000000130000001300000013000000B2
:1003000083A28184938202E07390023403A1C19599
:10031000024182403243C2435244E2447245825514
:100320001256A2563257C2575258E258725986494D
:10033000164AA64A364BC64B564CE64C764D865D61
:10034000165EA65E365FC65FD652A102739002307B
:100350009302800873A00280A24213018107828069
:100360001300000013000000130000001300000041
:100370001300000013000000130000001300000031
:100380001300000013000000130000001300000021
:100390001300000013000000130000001300000011
:1003A0001300000013000000130000001300000001
:1003B00013000000130000001300000013000000F1
:1003C00013000000130000001300000013000000E1
:1003D00013000000130000001300000013000000D1
:1003E00013000000130000001300000013000000C1
:1003F00013000000130000001300000013000000B1
:10040000F322003093F272FF130380781203B3E2F9
:100410006200711523205500130585FA10C12115BE
:10042000232005009302000063870200711523203A
:100430000500FD12D5BF71150CC1828000000000BF
:1004400000000000000000000000000000000000AC
:10045000000000000000000000000000000000009C
:10046000000000000000000000000000000000008C
:10047000000000000000000000000000000000007C
:10048000000000000000000000000000000000006C
:10049000000000000000000000000000000000005C
:1004A000000000000000000000000000000000004C
:1004B000000000000000000000000000000000003C
:1004C000000000000000000000000000000000002C
:1004D0000000000000000000000000000000397172
:1004E00001436EC619A0397141536AC866CA62CC0D
:1004F0005ECE19A0397101535AD056D252D44ED67D
:100500004AD826DA22DC06DE3301614082824111BC
:100510004AC026C222C406C68282B24D4101024DA3
:10052000924C224CB24B4101024B924A224AB249B0
:100530004101024992442244B240410182803D433C
:100540002A876373C3029377F700BDEFADE5937617
:1005500006FF3D8ABA960CC34CC30CC74CC7410773
:10056000E36BD7FE11E28280B306C3408A0697028E
:10057000000096966780A6002307B700A306B70081
:100580002306B700A305B7002305B700A304B700EF
:100590002304B700A303B7002303B700A302B700E7
:1005A0002302B700A301B7002301B700A300B700DF
:1005B0002300B700828093F5F50F93968500D58DC3
:1005C00093960501D58D61B7939627009702000099
:1005D00096968682E78086FA9680C1171D8F3E9692
:1005E000E374C3F8A5B701A037D500001305458A09
:1005F000EFB02012B707EFBE37E700E09387070898
:100600003CC701A0EFF2BFF0EF0050600145EF9052
:10061000006905B7EFF2BFEF37D50000130505926B
:10062000EFA0F07D01A0EFF29FEE0945E123952AAE
:10063000716513050520EFA01063B707002083A59F
:10064000070837D500001305458BEFA0507B192E06
:10065000AA8537D500001305458CEFA0507AB7D591
:10066000000037D500009385458D1305C58DEFA09B
:100670001079B7D5000037D500009385C58F1305D5
:100680004590EFA0D077B7D500003705000081472F
:10069000154781461306001893858591130545601B
:1006A000EF90C041EF90206B01A0B7170240984334
:1006B000B706FFF041111367170098C3D8433706F8
:1006C0000200758FD8C39843B706F7FEFD16758FE5
:1006D00098C39843B706FCFFFD16758F98C3D8439F
:1006E000B70601FFFD16758FD8C39843B70600EC17
:1006F000FD16758F98C33707FF0098C723A607021A
:1007000002C402C69843C166558F98C3B71602400B
:1007100005679C42F18F3EC6A24785073EC4B2479B
:1007200081E7A247E397E7FEB71702409C43139780
:10073000E7006356070685473EC632478547631E76
:10074000F704B7170240D843B706C1FFFD16D8C358
:10075000D843D8C3D84313670740D8C3D843758F4D
:10076000D8C3D843C166558FD8C39843B706000194
:10077000558F98C3984393166700E3DD06FED84370
:10078000B7160240719BD8C3D84313672700D8C35C
:100790002147DC42B18BE39EE7FE4101828002C625
:1007A00069BFB7160240D842B70700201146318B07
:1007B000938707086305C70021466308C7023717F8
:1007C0007A001307072098C3371702405843118354
:1007D0009376F70037070020130707003697142396
:1007E00098433357D70098C38280D842D442416699
:1007F00049833D8BF18E1306270015CF3D47630FCC
:10080000E6024147630FE602454781456313E60070
:100810004146A1E23747024003270780418B0DC7BD
:1008200037177A00130707203306C70290C3C9DDC4
:100830009843058349BF81454946E1BF8545354613
:10084000C9BF81453D46F1B737173D0013070790F3
:10085000E1BF3715024058559316F700585563DF2E
:10086000060411833D8B9306170037177A00130790
:1008700007203357D70298C35455A182BD8A8DE211
:1008800095463307D702058398C337170240585758
:1008900094433D8B050733D7E60298C3984369B765
:1008A00005456394A600E546E9BF3D456396A6006D
:1008B000D1463387E602C9BF8906E5BF3D8B930663
:1008C000170037177A00130707203357D702F1B7FD
:1008D00001A0970100209381E1FA17F10020130194
:1008E000617217E500001305A51897F5FF1F9385A2
:1008F00065711386018563FAC5008322050023A074
:10090000550011059105E3EAC5FE17F5FF1F130514
:10091000657C979500209385257D6377B50023201E
:1009200005001105E36DB5FEFD42739002BCFD426A
:1009300073904280B78200009382028073900230ED
:1009400097F2FFFF9382426C93E232007390523031
:10095000EFF0BFD597020000938222CD739012343E
:1009600073002030B7F7FF1F03A547708280EFF2B6
:100970001FBA854511657D2181451165652155BEEB
:10098000411102C6B78602409C4A41672E057D1779
:10099000F18B798D9A055D8D93F5057CC98D93E575
:1009A0001500B70750008CCAF917324705073AC639
:1009B000984A058B01C73247E3F9E7FE3247B7078C
:1009C0005000FD1701456307F700B7870240C84B89
:1009D00042054181410182804111B787024002C630
:1009E000984BC166FD162E05758D718B9A05598D34
:1009F00093F5057CC98DD0CB93E535008CCBB7073B
:100A00000500B7860240F917324705073AC6984AEB
:100A1000058B01C73247E3F9E7FE3245B70705000A
:100A2000FD173335F50041018280B707002023AA66
:100A3000A70C2A878147B70810401303405F130EA5
:100A4000F6FF6396C700B797024088CB8280B386D3
:100A50006702232017012A88AE9614C79306070160
:100A600063F3C70136882326070185073687D1BF80
:100A7000B7070020916623A8A70C0147AA87370370
:100A800000809386465F130E405F930EF6FF631659
:100A9000C700B7970240C8C782803308C70323A0A6
:100AA0006700D4C3AA882E9823A4070113880701DE
:100AB0006373D701C28823A617010507C287C1BF88
:100AC000379702401C4393E717001CC38280B797F7
:100AD0000240C8CB8280379702401C4FB7061000F7
:100AE000D58F1CCF8280EFF29FA2378402401C403A
:100AF00093E787001CC0C5371C40896693E7470011
:100B00001CC0B7970240984F558F98CF984F1367E6
:100B1000270098CF39BC99C5379702405C4F5D8D4F
:100B200048CF8280B7970240D84F1345F5FF798DA3
:100B3000C8CF82809C4513F7070113F8F70001C75F
:100B4000D8413368E8008E2113F7F50F39C31841F7
:100B50008146854E3D4F930F800293028004214EC3
:100B60003396DE00B3F8C500631116039398260090
:100B700033131F011343F3FF3377E300B318180156
:100B800033E7E800639FF70550C98506E39AC6FD81
:100B900018C11307F00F6375B70454412146854E01
:100BA0003D4F930F800293028004414EB398CE00D4
:100BB00033F715016392E802131726000117331368
:100BC000EF001343F3FFB376D3003317E800D98E59
:100BD000639DF701232A15010506E319C6FD54C1DB
:100BE0008280E39457FA10C94DB7E39757FE232844
:100BF0001501DDB7B707002023ACA70C828037179B
:100C000002405C439146B18B6385D700A146638265
:100C1000D706B7177A00938707201CC13716024002
:100C20005C4237070020130707019183BD8BBA97F9
:100C300094231C41B3D7D7005CC15442A1829D8A42
:100C4000BA969422B3D6D70014C55442AD829D8A79
:100C500036971823B3D7E7005CC55842398393769B
:100C600037001387418036971823B3D7E7021CC992
:100C700082805C435843C166C983758FB7F6FF1FF6
:100C800083A6C670BD8B89071396160163480600BC
:100C9000C54601466392D702C94739A88946638F82
:100CA000D702BD46638ED702C146638ED702C546C2
:100CB00001466393D700C1471DEF37470240032722
:100CC0000780418B05C737177A0013070720B30742
:100CD000F7021CC121D61C41858381B701466DBF37
:100CE0000546B547D1BF0146BD47F9B737173D00A7
:100CF00013070790E9BFB7150240D8559316F700C0
:100D0000D85563DF060411833D8B93061700371710
:100D10007A00130707203357D70218C1D455A18290
:100D2000BD8A8DE295463307D702058318C1371770
:100D30000240585714413D8B050733D7E60218C1CE
:100D4000184171B785456394B600E546E9BFBD45D6
:100D50006396B600D1463387E602C9BF8906E5BF70
:100D60003D8B9306170037177A0013070720335778
:100D7000D702F1B799C5371702405C4B5D8D48CB60
:100D80008280B7170240D84B1345F5FF798DC8CB49
:100D9000828099C5371702401C4F5D8D08CF828035
:100DA000B7170240984F1345F5FF798D88CF8280A1
:100DB0009357550005476399E700B71702409C43D6
:100DC00033D5A7000589828009476396E700B717E6
:100DD00002409C53F5B7B7170240DC53D5B737171D
:100DE00002405C5793F7F7F05D8D48D78280B716C5
:100DF0000240DC5645777D17F98F5D8DC8D682801D
:100E000009C9371702401C43B7060010D58F1CC311
:100E10008280B71602409C42370700F07D17F98F99
:100E20009CC2828099C5371702401C575D8D08D738
:100E30008280B717024098571345F5FF798D88D700
:100E40008280EFF2CFEC1A29F577FD17F98FFA219E
:100E500079712A84D98F1EA99A25DE2156252EC69E
:100E6000D98FBA25D98F7D771307379F758FD98F83
:100E70005EA55E29DA25C207C18393F7F7CFD98F24
:100E80005EA96808AD3BB747014093870780B2452C
:100E90006311F404A2576547B387E702984113062C
:100EA00040060A07B3D7E702B3D6C702B3F7C702B3
:100EB000920613974700930727031307F063637C99
:100EC000F70093870601C207C1831EA445616FF036
:100ED0004FE69257C9B7B3D7C702D58FEDB791C5C3
:100EE0005E250967D98F5EA582805A25F977FD179F
:100EF000F98FD5BF93F5F51F4EA182800A216D8D24
:100F00003335A00082808280EFF26FE0EF80506D79
:100F100006056FF00FE2EFF28FDFEF7010700545FE
:100F20006FF02FE1EFF2AFDEEF7070706FF06FE0F7
:100F3000EFF2EFDD01EDB7D5000037D50000938566
:100F4000459D1305459EEFA0806B01A02A841145A5
:100F5000EF80403A08C0133515003305A0406FF00C
:100F60004FDDEFF2CFDA01EDB7D5000037D5000045
:100F70009385459D1305459EEFA0606801A008413B
:100F800001EDB7D5000037D500009385459A1305CC
:100F9000459EEFA0C06601A0FD55EF80D0108547AB
:100FA000630DF500B7D5000037D500009385859B0C
:100FB0001305459EEFA0A06401A06FF08FD7EFF25C
:100FC0000FD501EDB7D5000037D500009385459DBD
:100FD0001305459EEFA0A06201A0084101EDB7D521
:100FE000000037D500009385459A1305459EEFA074
:100FF000006101A0EF80E0328547630DF500B7D5B1
:10100000000037D500009385C59F1305459EEFA0CE
:10101000005F01A06FF0EFD1EFF26FCF2A8401EDF6
:10102000B7D5000037D500009385C5941305459EBC
:10103000EFA0E05C01A02E85634DB000B7D50000A5
:1010400037D500009385C5951305459EEFA0205B1D
:1010500001A001469145EF80200908C01335150015
:101060003305A0406FF0EFCCEFF26FCA41112EC6EE
:1010700001EDB7D5000037D500009385C594130561
:10108000459EEFA0C05701A0084101EDB7D5000073
:1010900037D50000938585961305459EEFA0205611
:1010A00001A0814601466C00EF80C00A8547630EAF
:1010B000F50005C1B7D5000037D500009385059927
:1010C0001305459EEFA0A05301A0014541016FF01B
:1010D0004FC67D55E5BFEFF28FC3411101EDB7D586
:1010E000000037D500009385C5941305459EEFA0F9
:1010F000005101A0084101EDB7D5000037D500002F
:10110000938585961305459EEFA0604F01A02E8420
:1011100091E160001DE27D56A285EF808047854702
:101120006306F504B7D5000037D500009385859395
:101130001305459EEFA0A04C01A00582A285EF807B
:10114000404519E5232004007D5541016FF06FBE35
:101150008547630DF500B7D5000037D500009385AE
:1011600085931305459EEFA0804901A00545F1BF79
:10117000EFF2EFB94111634DD000B7D5000037D57C
:101180000000938585A11305459EEFA0404701A06F
:101190002A882E8593D52600B286139605017C00F9
:1011A0004182C285EF8090118547630DF500B7D568
:1011B000000037D500009385C5A21305459EEFA01A
:1011C000004401A0324541016FF0AFB6EFF28FB29B
:1011D00083D985009307405F7D5563E237032E84F2
:1011E000EF90106A2A8915E1B707002003A5070EC2
:1011F000E545EF80005085476305F50051556FF0D8
:10120000AFB2EF90F0672A8975D9814432244C40FF
:1012100033059900EFA080333E240040BE94C20401
:10122000C1806DF44E85EF90F0660145C9BFEFF2C5
:101230000FAE0D468145054537040020EF70D06A9A
:101240001304C40D08C00D4681450545EF70D069F3
:10125000B707002023A0A70E1C4095E39307800842
:1012600073B0078037D6000037D50000130646A5B7
:101270009305E002130505A7EFA0603801A015E172
:101280009307800873B0078037D6000037D5000079
:10129000130646A59305F002130505A7EFA0203617
:1012A00001A06FF00FA9EFF28FA6B707002003A5EA
:1012B000C70D41116C0002C6EF80E01DB24791C717
:1012C000B7E700E0116723A0E72041016FF06FA6A8
:1012D000EFF2EFA3B707002003A5070E41116C0042
:1012E00002C6EF80401BB24791C7B7E700E0116725
:1012F00023A0E72041016FF0CFA3EFF24FA1B70782
:101300000020AA8403A5C70D41119545EF80603EDA
:101310001305E100EF9030502A8905C12C87130690
:1013200020180145EF30E01D2A8409C53087CA85A1
:10133000EF308065EF90305301E441016FF06F9F13
:101340009C48A6852285829761D52285EF30401181
:10135000C1B711EDEFF2AF9BB7D5000037D5000054
:10136000938545A41305459EEFA0602901A0B737DA
:1013700000009387A7F65CC9B71700009387C71CC6
:101380001CCD9307C05D7EB18967938767A07EB54A
:101390009D67938757E61EB901458280EFF28F95CE
:1013A000AA840144B749000037D90000B74A0000B9
:1013B00037DB000026859137EF90007283C7019BD1
:1013C00093F7F70F85C37DF4014693856A2626853A
:1013D000EF70E046EF90904F13058BB2EFA06033B3
:1013E0000544C9BF61D801469385E9292685EF7078
:1013F0000045130549B3EFA0C031014465BFEFF2CA
:101400000F912945EF90806C6FF0AF92EFF22F9023
:10141000B7C71B114111938747F03EC48D6793876F
:1014200027327C8629352800EF90904B3717000033
:1014300037D500001307E73F81460546954513055C
:1014400045A9EF90405419C92A84EF8070192A8663
:101450000147814685452285EF90005A8145014527
:10146000EF70E05FB707E800B7050020938797EAC1
:1014700023A4F50EC16737060020FD172326F60EBC
:10148000B707E8CBB7060020938797EA23A2F60EAA
:10149000A2471384C19E1CD43C86379800009385D4
:1014A000850E5EB4B71700001308489B9387273555
:1014B00001479386460E1306C60E1385C19EEF7034
:1014C0008034AA8511C937D50000130505AAEFA0FD
:1014D000001341016FF0EF85B74500000146938589
:1014E000C5221385C19EEF708035B74500000146C7
:1014F000938565231385C19EEF7060341305440006
:10150000EF202030AA8537D50000130585ABEFA06A
:10151000000F0348D4028347C4020347B402834642
:10152000A402034694028345840237D500001305C4
:1015300085ACEFA0C00CB7D500003715000081477F
:1015400015479386C19E13060020938545AF13056A
:10155000C539EF80A05685476308F50037D50000F0
:101560001305C5AFEFA0E01A37D50000130585B10C
:10157000EFA0201AB9BFEFE29FF93A25B9472A84B4
:1015800063F7E7047C352E8989E783C72503850740
:101590007CB5484044355C25A204DD8C1C2113F742
:1015A000170019CF05476398E7021C3191EB3821EA
:1015B0009307E0056316F7005C3493E707015CB41A
:1015C000A1476384F402930780606380F40422855A
:1015D000EF20106905A8194693854182EF90D074D9
:1015E00065F15C3493E78700D9BF8347F902A18B8B
:1015F000F9DFB9452285EF20305F71F9CA85228570
:10160000EF10505F01456FE0DFF28347F902A18BD5
:10161000DDDFB9452285EF20305D55F9CA85228589
:10162000EF108052C5B7EFE2FFEC4111AA843A8572
:101630002E89B28936C6EF20E01D2A84B9454A8535
:10164000EF20B05921E983274900B2461946C0A7C7
:101650002180C0B7B6853E85EF90506F1946CE8584
:101660001905EF90B06E83C7E4021944638D8700BB
:10167000B7D5000037D50000938505B41305459E06
:10168000EF90F07701A09C4CCA8526858297410196
:101690006FE09FE97955E5BF5C316387B7004CB1D6
:1016A00023030500231405008280EFE25FE6930721
:1016B0001500C2073387A500C183FD5614A3BE954C
:1016C00013073004637BF7009385070FC205C181C0
:1016D0003285EF20307A6FE0DFE58507C20723808F
:1016E0000500C1838505F9BFEFE27FE20051AA84BE
:1016F000A1452285553701469305C4012685EF1083
:10170000406D7C201307F00F6384E70085077CA001
:1017100085471EA46FE0FFE1EFE27FDF411111E991
:1017200037D50000130545B7EF90706D41016FE0AC
:101730005FE00051AA8411E437D50000130505B914
:10174000E5B71C54231904007D576380E702F907AD
:1017500037073C0063FBE7081307C003B3D7E70272
:10176000139707014183C9C75AA85C547D57638208
:10177000E702F90737073C0063FFE7061307C003DA
:10178000B3D7E702139707014183ADCB3AA43E24B8
:101790007EA41C587D576382E702F90737073C0097
:1017A00063F1E7061307C003B3D7E70213970701F6
:1017B0004183B9CB5AA45E241EA85E243A246365F3
:1017C000F70099C3231504007C30B1C31C503EC4FC
:1017D0005C502285A9453EC6C13574003000930592
:1017E000C4012685EF20500C91B741677D17ADBF2E
:1017F00085475EA89DBF41677D1749BF85473EA4C9
:1018000079B741677D177DB785475EA46DB75C2CBE
:10181000139787016187634507009307F00F45BF62
:101820001307F00B6376F700B7070001FD1745B704
:10183000C167EDBF130725009307400463FFE7006E
:10184000EFE2FFCCB7D5000037D50000938505D473
:101850001305459EEF90B05A01A0B387A50093569B
:10186000860094A393071500C207C183BE95131584
:10187000070190A14181828093872600AA971307D0
:101880004004637FF700EFE29FC8B7D5000037D56B
:101890000000938585C81305459EEF90505601A022
:1018A000B387A50090A393071500C207C18309055C
:1018B000BE95420594A141818280EFE25FC5B7D514
:1018C000000037D500009385C5CC1305459EEF90E9
:1018D000105301A0130745009307400463FFE7007E
:1018E000EFE2FFC2B7D5000037D50000938545D0A1
:1018F0001305459EEF90B05001A0B387A500935605
:10190000860194A393071500C207C183AE9793562F
:10191000060194A393072500C207C183AE9793568F
:10192000860094A393073500C207C183BE951315A3
:10193000070190A141818280EFE27FBDB7040020C2
:101940009387840FBC3323200502232205022A84B7
:101950009384840F81C783A7C1A21CD5DC20B1C7A3
:1019600083A701A35CD4DC30A1C783A741A31CD803
:1019700098399C2922075D8FBC29C2075D8FBC392D
:10198000E207D98F5CCCFC2095CB03A581A3EF1097
:101990005069854708D07CB0FC3091C703A5C1A32E
:1019A000EF10306848D06FE0DFB81C5485835DBF0E
:1019B00018549D47B387E7028D8355BFA3030400E6
:1019C000E1BFEFE2DFB4370700201307470F1C2306
:1019D00081EFB7D5000037D50000938585C2130588
:1019E000459EEF90D04101A0FD1793F7F70F1CA380
:1019F00091EB370400201304040F0840EF6070548B
:101A0000232004006FE0FFB2EFE27FB0B7040020B4
:101A100083C7440F9384440FA5E3370400201304C5
:101A2000040F1C4081CFB7D5000037D50000938547
:101A3000C5C41305459EEF90903C01A0EF60705423
:101A400008C07D5715CD18351306400413670702EB
:101A500018B593858183EF60102108401306300488
:101A600093858183EF60D0450840B725000001468B
:101A7000938585F2EF60304B9C20014785079CA041
:101A80003A856FE01FABEFE2FFA619E937D50000FA
:101A9000130585BAEF90B03601494A856FE0DFA89B
:101AA0002E8A91E537D50000130585BCE5B7AA84D9
:101AB000B289930540131306002813056003B68A04
:101AC000EF2030242A8971D93A259307301363ED2A
:101AD000E700B7D5000037D50000938585BE130514
:101AE000459EEF90D03101A08D476396F900834762
:101AF0005A00639F370183476A00370400201304AC
:101B0000041081E7EF90B04108C01C402320FA0088
:101B1000032449001306401381452285EFE03FA2CC
:101B200085471CA01CB083C7E4023CA003250A0023
:101B3000EF10304F9357850048A05CB093570501D4
:101B400061817CA068B091476383F902938799FF14
:101B500093F7F70F0547637CF7008D476391F90210
:101B600083475A00F11793F7F70F636AF700DC20F9
:101B70005CA4DC305CB4FC207CA4FC307CB4938797
:101B800084021307C4019384E402942385070507A4
:101B9000A30FD7FEE39BF4FE930730062306F40E53
:101BA000130720F8A307F40E93075003A306E40ECF
:101BB0002308F40E130730058547A308F40E230706
:101BC000E40E2309340F8D472390FA00F9B5EFE2B4
:101BD0007F92411101ED37D50000130505D9EF9033
:101BE00010224154228541016FE01F940451AA89BB
:101BF00089E837D500001305C5DAEF905020695405
:101C0000D5B785452685EFF03FA99306E1000D463F
:101C1000A6854E858D3D2A89630E050E4041288795
:101C200089461304040F13069003A285B13103D62D
:101C30006902A2856887FD3E914613062003A285AE
:101C400068871D392A8A6887C84CEF10903D2A861C
:101C5000A28552854131914613066003A2856887AB
:101C600021392A8A6887884CEF10B03B2A86A285E2
:101C700052858D318D4613067003A2856887ED3E2F
:101C80006887014713083004938641830D463C87DB
:101C90006373F8001D31B385E6008C2113851700AE
:101CA0004205A29741818CA368870507E311C7FE0F
:101CB000A2854A86EFF07F9F370500200325050F98
:101CC000938781834E87930630041386C183CA8528
:101CD000EF6070042A844A85EF208078FC20130787
:101CE000F00F6384E7008507FCA0F820954763E5C3
:101CF000E7028547B397E7001307803EB387E70203
:101D0000C207C1839387371F1307401FB3C7E7027A
:101D10009EA4C9BD7D54D9B7BD67938707A6DDB71B
:101D2000EFE24FFD04514111AA898D452685EFF060
:101D3000BF969306E1000D46A6854E85A933630440
:101D4000050E40412A8928871304040F894613068B
:101D50009003A285EFF05FB213060024A285688786
:101D6000EFF05FAD914613062003A2856887EFF080
:101D7000BFB02A8A6887C84CEF10B02A2A86A2858D
:101D80005285EFF03FB58D4613067003A285688734
:101D9000EFF09FAE688701471308300493864183B4
:101DA0000D463C876374F800EFF03FB1B385E60061
:101DB0008C21138517004205A29741818CA3688767
:101DC0000507E310C7FEA2854A86EFF01F8EB7070E
:101DD000002003A5070F4E87930630041386C183A6
:101DE000CA85EF6030072A844A85EF206067FC20AF
:101DF0001307F00F6384E7008507FCA0FC2025474C
:101E00006365F7021307803EB387E702C207C18309
:101E10001307401F9387371FB3C7E70222859EA48D
:101E200041016FE06FF07D54D9B7896793870771DF
:101E3000C5B7EFE22FEC00514111AA8999452285DF
:101E4000232E0400EFF05F859306E1000546A2858E
:101E50004E85153959C544412A8928879384040F32
:101E6000894613069003A685EFF01FA103D66902E9
:101E7000A6856887EFF01F9C8D4613067003A68524
:101E80006887EFF07F9F68870147130830049386C7
:101E900041830D463C876374F800EFF01FA2B385C1
:101EA000E6008C21138517004205A69741818CA37B
:101EB00068870507E310C7FE4A86A685EFF0EFFEA8
:101EC000370500200325050F938781834E879306EE
:101ED00030041386C183CA85EF60E0634A85EF2032
:101EE00020587C201307F00F6384E70085077CA04F
:101EF0007820954763E6E7028547B397E700130725
:101F0000803EB387E702C207C1831307401F938750
:101F1000371FB3C7E70201451EA441016FE0CFE0C0
:101F2000BD67938707A6D5B7EFE26FDB03A941B47E
:101F30000111B289832B090263890B0A83C74B0005
:101F4000CDC73A269307B00263F1E70A5C4209471E
:101F50009423639CE6080346E9020147994693757A
:101F6000F70F63F4C5006318D706C833D8232205DA
:101F7000598DF8234207498FE8336205598DEF10D8
:101F8000500A83A70B006312F50637080020930759
:101F9000880F23A2070003D7A90023A007009307F7
:101FA000B0021308880F63F2E704C16A83DD890079
:101FB0009387DAFF014B130C000F3EC4138A01A272
:101FC000CE8C628483D7AC006377F40283A74C0085
:101FD000914A3EC2B5A2B305E90005073385E70083
:101FE00083C58502283DE30CB5F64E85EF204047BA
:101FF00005616FE08FD283AC0C001D8CB38DFD406A
:102000004204C20D418093DD0D01E39D0CFAF1BF46
:1020100093062400C206C182E3E986FC83D5AC00A6
:10202000130614006357B602183393054003638404
:10203000B70A63E7F50285456387B704F1CB0D4620
:102040006380C708130630036381C708FD54014D40
:102050003DA803A70C00630B072658431823F1B7CC
:1020600013066003638BC70863E2C7081306A00367
:10207000638BC7081306B003E39AC7FCE31757F74F
:10208000114D954429A0E31257F7114D9944A247E9
:102090003A94E3CC87F43384E60042044180630C35
:1020A0000D0602CE9D4763F9970EB7D5000037D5D0
:1020B00000009385C5D71305459EEF90405401A0BD
:1020C000E3F5E7F29D44114DD9B7E31057F3114DF5
:1020D0008D4475BF01478547E319F7F09307000F5B
:1020E000E315FCF0054D81445DB701478547E31ECC
:1020F000F7EE054D854461BF0147E31857EF114DD9
:10210000894471B70147E31257EF114D914441B72C
:1021100013140601418083D7AC006363F4021D8C65
:10212000B38DFD404204C20D418093DD0D01E37E7D
:10213000B4EB83AC0C00E38A0CEA83A74C003EC2EC
:10214000637AB40192479306F00F338787001C230C
:10215000E390D7EC83470800D1EF63170B0A83475E
:102160001800E38407E8938701A2D823954683A546
:1021700049006318D70C83C75B0005476395E70ADE
:1021800003250902EFF04FFB8347F9024A85A18B33
:10219000D5C7EFF06FD591BDB30798009C23A5FF7D
:1021A00093170D01C1833E866C0866853EC6EF20FD
:1021B0006075B247E39BA7E2B70700201388870F3B
:1021C00063135D037245EF10C065B70700202ACE88
:1021D0001388870FB3079800054798A3F2478A042E
:1021E000D2949CC00DBF8547E311FDE08347C10138
:1021F0003ECECDB783270A00230008000547638F32
:10220000E70009476398E700014B930DC006130CE4
:10221000C0027DB30D47E392E7F4054B930DC00E6A
:10222000130CC00671BBF51793F7F70F0947E36E60
:10223000F7DA03250902EFF02FF04A85EFF0CFCD52
:102240006DB399466310D70403C75B0089469307B3
:10225000D7FF93F7F70F63F5F6008547E317F7D835
:1022600003250902B145EFF02FC3938681831386BE
:1022700081834A8593858183EF1010634A85EFF04F
:102280005FBBA5B30946E312C7D603C75B00E31ED5
:10229000D7D403472800E30A07D403240902884758
:1022A0002EC223140400EF10C057924508CC4A8573
:1022B00098399C2922075D8FBC29C2075D8FBC39E4
:1022C000E207D98F5CCCEFF09F9005B31307400372
:1022D000E382E7E06360F7020547E388E7D0E3893C
:1022E00007E20D47E383E7D013073003E38FE7CE20
:1022F0000147A9BB13076003E380E7E0E3E7E7DEFC
:102300001307A003E380E7E01306B0030147ADB372
:10231000185139C7EFE2AF9F5C33954663E4F6028C
:102320008D4663F4D70295C7B14663F6F602B7D57A
:10233000000037D50000938545C71305459EEF90F3
:10234000002C01A0A946E391D7FE23030700EFF07C
:102350003F9D6FE00F9E23030700EFF09FADD5BFB9
:102360008280EFE22F99411111E937D50000130562
:1023700045A4EF90C02841016FE00F9B0051AA894E
:102380007DD85830A147E318F7FE98415C4CE31420
:10239000F7FEB1452285EFF02FB09306E10011461C
:1023A000A2854E85EFF02FEEAA8421CD03294500AA
:1023B000288791461309090F13062003CA85EFF0F9
:1023C000AFCB2A8A6887484CEF10A0452A86CA8579
:1023D0005285EFF02FD02686CA856887EFF0EFACE4
:1023E000370500200325050F938781834E879306C9
:1023F00030041386C183A685EF60E0112685EF20A7
:1024000020067C201307F00F6384E70085077CA07B
:10241000D1471EA48DB7EFE2EF8D00514111AA897B
:1024200095452285EFF04FA79306E1000D46A28562
:102430004E85EFF04FE571C144412A892887938486
:10244000040F894613069003A685EFF0EFC203D66A
:102450006902A6856887EFF0EFBD8D46130670030D
:10246000A6856887EFF04FC16887014713083004DD
:10247000938641830D463C876374F800EFF0EFC309
:10248000B385E6008C21138517004205A69741818C
:102490008CA368870507E310C7FEA6854A86EFF080
:1024A000CFA0B707002003A5070F4E87930630047F
:1024B00013068401CA85EF60E019AA844A85EF10EB
:1024C000307A7C201307F00F6384E70085077CA037
:1024D0007C2025476365F7021307007DB387E70279
:1024E000C207C1831307401F9387371FB3C7E70293
:1024F00026851EA441016FE02F83FD54D9B795674F
:10250000938707E2C5B705C11C51014591CFDC3364
:10251000294705456386E7001385C7FF1335250066
:102520001375F50F828001458280EFD2BFFC005108
:10253000411161C05C30D5CF1C4C232E0400232CEC
:102540000400232004022322040223280402232659
:102550000402232404022317040023280400231A5E
:102560000400AA843EC64537814559C52285EFF04F
:10257000AF929306A1001D46A2852685EFF0AFD04D
:102580002A8929C983294500288591469389090FFD
:1025900013066003CE85EFF02FAE2A8A6885324598
:1025A000EF1020282A86CE855285EFF0AFB24A86FA
:1025B000CE856885EFF06F8FB707002003A5070F62
:1025C0002687930630047000CA85EF60A0084A850C
:1025D000EF10106993868183138681832685938506
:1025E0008183EF10702C5C2089C7EFF08FBD230230
:1025F000040041016FD05FF32285EFF0EF89E5B76A
:10260000EFD2FFF019E937D50000130545A4EF809C
:10261000107F415422856FD0DFF18347F502AA84F1
:10262000858B91E737D500001305C5DFCDB77A312B
:102630009307F0230329050263E4E7007D54D9BF23
:10264000631F090213054003EF1080742A897DD5AA
:1026500088D01306400381454A85EFD05FEEEFF046
:10266000AFBA2A8461FD85472302F90083C7F402CB
:10267000918B81EF89454A85EFF00F8261BF8347D7
:102680004900E1DBEFF0EFB3E9B72685EFF06FFA31
:102690002A8449D12685513D55B7EFD2DFE4B707EB
:1026A000002083A4C7148969411193890971138A91
:1026B0004183B70A002081E441016FD05FE680507A
:1026C00005C0583011CF562891CE3E288507C20745
:1026D000C1833EA86398F6002685813D26850D3787
:1026E0008440D1BF1E28638F070E9386F7FF16A87C
:1026F00085466399D70EA947E3E4E7FE9307204395
:1027000033D7E700058B69DF91452285EFE0DFF8DD
:102710009306E1000D46A2852685EFF0CFB6AA8B81
:1027200041C103294500288789461309090F13066B
:102730009003CA85EFF04F94F230CA856887EFF0B6
:102740006F8F8D46CA85130670036887EFF0CF92AE
:1027500068870147930530048D463C8763F4F50094
:10276000EFF0AF953306EA001022138517004205FB
:10277000CA97418190A368870507E310D7FE5E865C
:10278000CA85EFE09FF203A50A0F2687930630045F
:102790001386C183DE85EF50F06B5E85EF10504CE1
:1027A0007C201307F00F6384E70085077CA0782066
:1027B000A546CE8763E8E6009307803EB307F7029D
:1027C000C207C1831307401F9387371FB3C7E702B0
:1027D0003A281EA45E28998F0547E353F7F08587B2
:1027E0001EA8FDBD7E24E38D07EE9386F7FF76A439
:1027F0008546E397D7EE9376B70F6385F600A94732
:10280000E310F7EE2685EFF01FC13A285E24998F7A
:102810000547E357F7EC85877EA4D9B5EFD29FCD66
:10282000B707002003A4C714854431499949214AB8
:102830008D4A154B19E06FD03FCF1C5091C79A2796
:1028400063F6E4007D179AA70040EDB7E31E97FEFC
:10285000D8332394070063042701631637012285C8
:10286000EFF02FDDD5B7631F9700FC23228563654A
:10287000FB00EFF0CFB5C9BFEFF03FCB2285EFF003
:102880003FD8D9B7631C4701FC23228563E5F400D8
:10289000EFE09FE555BFEFE03FE87DB7E31657FB5C
:1028A000FC232285E3EEF4FAEFF08FC771BFEFD27D
:1028B0001FC6AA8461473387E402938701A44111AC
:1028C000138401A4BA978C43A1C1C84103A9050090
:1028D00001EDB7D5000037D50000938545E6130517
:1028E000459EEF80D05101A02EC6EF107037B24543
:1028F0002145EF10606BCA85E31909FCE147B387F6
:10290000F402A29723A0070061453385A40219466B
:102910009385C1822295230A0500231905002324EB
:102920000500232205003105EF80504241016FD0A0
:102930005FC0EFD23FBC938601A48142814F014F1B
:10294000A94EA948294429478147938401A42943D2
:10295000854303CE4601631D6702630C0E0801CD5B
:102960000329050003A846006317090155CA03A8F7
:1029700086006307C80A03D8260163177E0603AEE4
:102980000600630E0E046367E801428FBE8E19A035
:10299000E3170EFC850713980701135808019317D6
:1029A0000801E106C187E31668FA8547639AF504D2
:1029B000B2892A89631D6706630FE402E147B30702
:1029C000F402A6979C43ADC3B7D5000037D50000ED
:1029D000938505E21305459EEF80704201A0E36BED
:1029E000F8FBC28FBE887DB7E36658FAC2823E8488
:1029F00055B73E8745B763988802768463961E0371
:102A0000FD5739A86305090083260900D4C3E147AF
:102A1000B307F702BE942399040023A43401BA87B4
:102A20003E856FD07FB04684228551352287E147AD
:102A3000B307F702A697D42BF1D6B7D5000037D548
:102A40000000938585E31305459EEF80503B01A070
:102A5000EFD27FA9411101EDB7D5000037D50000B5
:102A6000938545A41305459EEF80703901A02A89FE
:102A70002E8AB28AF145130600283945B68CBA8BE6
:102A80003E8C428B46C6EF10D027AA8445CD3A250E
:102A9000ED47B24863EDE700B7D5000037D5000039
:102AA000938505F21305459EEF80703501A04041E6
:102AB0004685EF00305668A0218168B08349E9025D
:102AC0009947638DF900B7D5000037D5000093858D
:102AD00045F51305459EEF80903201A01946E68525
:102AE00013058400EF8090261946E2851305240122
:102AF000EF80D0251146DE851305E400EF80102518
:102B00001146DA8513058401EF80502485471CB0F7
:102B1000A1473CA0056791475CB013076780D68644
:102B20005286A68523000400A30104002302340179
:102B30004A85EFE05FAF2685EF1090120145410115
:102B40006FD0FF9D7D55E5BFEFD2FF99411191E90F
:102B500037D50000130545A4EF80702A41016FD0DE
:102B60001F9C4441AA899C309820A207D98F130743
:102B700000106391E702D8209947631DF700D83011
:102B800091476319F700BC30B820A207D98F2147BD
:102B90006386E7004E85EF10B00CC9B72E8411464E
:102BA0009385E4002800EF80701A11469385840114
:102BB0006800EF80B0195C4081C732476384E70248
:102BC000814A09490347E40299476300F702B7D5F0
:102BD000000037D50000938545E91305459EEF8039
:102BE000102201A0854A0549F1BF2245138A8400BD
:102BF00015E1FC30F820A207D98F13070010638D70
:102C0000E70813070020E397E7F82C002285EFF090
:102C10004FF549B7A285EF00B03161FDA247130718
:102C2000000E93F7070FE386E7FC2286CA8528008B
:102C3000EFF03FD0E34F05FAE147B307F502138702
:102C400001A489461946D285056B130C8402130B27
:102C50000B803309F700B107230AD9002324890028
:102C60003305F700EF80900E231909008325090032
:102C7000C9D19C4183AB450021452320F900EF10C9
:102C8000A0325A87D2866286DE852285EFE0BF9920
:102C90005E85EF10E07CD9BFE38E0AEE93068402D6
:102CA000894813088100D287130744005286B685ED
:102CB0002285EFF0FFD9F9BDEFD27F85930685021B
:102CC0002E8885489387C182130745001386418269
:102CD000B685EFF0FFD76FD0DF85EFD2DF801384AA
:102CE00001A48144130AB012854A0D4B1149894B46
:102CF000114CA949582819CF3E288507C207C1831E
:102D00003EA86366FA00631D57016375F9022685C4
:102D1000EFF0FFB985046104E39E34FD6FD03F807E
:102D200063156701230A8401F5B7E31527FF230A1A
:102D30007401CDB7084493054400BD3FE1BFEFD215
:102D40006FFBE1473306F6022E8A938501A40547FF
:102D5000B384C500DC28636DF700B7D5000037D514
:102D60000000938545EC1305459EEF80500901A0B6
:102D70001304C60009472A892E9493098502639D8E
:102D8000E700BE281307C0116373F7021106B2955E
:102D9000253719E18D47DCA8056713070780A28650
:102DA0004E86D2854A85EFE01F886FD0EFF7130774
:102DB000D010E373F7FE11063388C500854893876A
:102DC000C18213074500CE862286CE85EFF05FC80C
:102DD000C9B7EFD22FF22E8AAA89AA8503250A0045
:102DE00041113284EF00D0146313051483270A00C5
:102DF0001307000E93F6070F638BE6126389071221
:102E00004E8685455285EFF0DFB2AA8463570500F0
:102E10006205618541016FD02FF19307E00763DD03
:102E2000A700B7D5000037D50000938545EF1305FF
:102E3000459EEF80C07C01A061473307E502938780
:102E400001A4138901A4BA97D82B631B0710054767
:102E5000D8AB23A43701854AD2854E85EFF0DFE554
:102E600009EDE147B387F4020547CA97D42B63966F
:102E7000E60063940A002399070049DCE146B38623
:102E8000D402B307D900D82B854763F2E702B10615
:102E90000567B707002013070780CA9613868902C3
:102EA000A2854E8523829710EFE0EFF7A5B7E313D5
:102EB000F7F6A287B6279A27639FE600984301CFCB
:102EC000B7D5000037D50000938545F01305459E22
:102ED000EF80E07201A0D8271377070439EB9C43F9
:102EE000F1FB2285EF101004A9A88507368714434B
:102EF000EDFE08C309476367F700014521BF2E8730
:102F00008547F5B7E147B384F4029C41C8412EC61A
:102F100026992320F900EF10A054B2452145EF1067
:102F2000A008E1BF2285EF10A0537D55E5B54155BE
:102F3000D5B52286930500283945EF10702E2A84D6
:102F40006DD52145EF10200371DDE147B387F40211
:102F50002320050040C1CA978C43D5F188C371BFB7
:102F60007D55E31D04F0814AC5BDEFD24FDA411112
:102F700001EDB7D5000037D50000938545A41305B2
:102F8000459EEF80C06701A02E8981EDB7D5000076
:102F900037D50000938585EB1305459EEF802066AD
:102FA00001A0B28401EEB7D5000037D500009385AB
:102FB00045E71305459EEF80806401A02A84AA8519
:102FC0000842EF00E07669ED9C401307000E93F68F
:102FD000070F639AE60285477C849307E0055C85CA
:102FE0009C30340093F7F707DC85BC205C86BC304E
:102FF000DC8605671307078013068402CA852285CD
:10300000EFE06FE2B9A8584014443D8F758F09CFA7
:10301000C2074167C183130797EA6387E7005C44EF
:103020007155A1C39304C400B706002003C646101F
:10303000E145B305B602138701A493864610938732
:1030400001A42E97482B854563F0A5020C47639D8C
:1030500085008C4058436399E500CA852285EFF0CE
:103060001FCE41016FD0EFCC014685452947C82BC3
:1030700063FCA50088476319850003A80400C843C2
:103080006314A80090A2D1BF05061376F60FE107DE
:10309000E31FE6FC4A86A6852285EFF09FD3D1B7D1
:1030A00093864182B9B7EFD2EFC4138701B4032BE3
:1030B00087004D472A8483490B0093F9F9008A0958
:1030C0006378370536250D476374D70458411423B8
:1030D0002147639FE602938A01B403A54A011307BF
:1030E000000E9376050F6385E602AE8483A501B4D6
:1030F000812519ED1A249D4763FCE70091C4DE3059
:1031000013974701635B07002285EF00B00711C5E5
:103110002285EF10E0346FD02FC1138AE900139994
:103120000901D285228513590901EF10002B63088C
:1031300005121E24B3852701C205C181E3EAF5FC0F
:10314000130600283945EF10C03B2A8A71D13A2571
:10315000938789006375F700EF10803055BF4841B1
:10316000DA854E86EF80803ECE855285EF10C027EF
:1031700001CDB7D5000037D50000938545FC130578
:10318000459EEF80C04701A0A2855285EF10607573
:1031900019C15285D1B72285EF10802C5284CE857B
:1031A0002285032A4400EF1040233DF183C74A01E2
:1031B000832944002386F90083C75A01A386F900B6
:1031C00083C76A012387F90083C77A01A387F900BF
:1031D00083C70A012388F90083C71A01A388F9006D
:1031E00083C72A012389F90083C73A01A389F9001B
:1031F00023000A0081C4DE30A18BC1C783473A0097
:1032000003472A00A207D98F41675D176379F70644
:10321000A507C207C1832301FA00A183A301FA0015
:10322000FD572384F90023850900A385090081C483
:10323000DE30858B91CBCA854E85EF006073238588
:10324000A9002181A385A900268885470147930607
:10325000F00F0146938541B522856D2955BDD28574
:103260002285EF10601805DDB7D5000037D50000C6
:103270009385C5FF1305459EEF80603801A0A10727
:1032800049BF23010A00A3010A0059BFEFD28FA64C
:1032900083598500ED4701112A842E8A63F3370193
:1032A000F149138989009315090113060028C1818A
:1032B00013052002EF10E024AA844DC13E2563FDD2
:1032C0002701B7D5000037D50000938585F9130590
:1032D000459EEF80C03201A00329440040418D4744
:1032E0004E861CA0CA85A300440123020400A30249
:1032F000040023030400A303040013058400EF80EB
:10330000E0240347D9008347C900680822075D8F7E
:103310008347E900C2075D8F8347F900E207D98F31
:103320003ECE85282A8805C95E3123010400A30109
:103330000400A18B89CBAE242AC62285152D3248E4
:1033400028A0218128B0854701479306F00F700817
:1033500081452685C1262685EF10801005616FD036
:10336000AF9C8347F502858B95C35841AA850145DB
:1033700005C383A741B50545630CF700EFD22F992C
:103380003E857D263335A0006FD0AF9A01458280FF
:103390008280B707002083A7C71495E7370700206E
:1033A0000327871419CF8346F7021546958A639A37
:1033B000C600544399C610219306F0076303D60054
:1033C000BA873E85828083C6F70213F716000DC3C5
:1033D00013D72600058B09CFD84319CB10418C4752
:1033E000318F6D8F79DF898A81E6D847E30BE6FC60
:1033F0009C4365B7EFD20F9040419147AA89834A19
:10340000040013D74A006308F7004E85EF1040050B
:1034100001456FD06F913C302820AE84A2075D8DAE
:10342000D52E93FAFA0083D789008A0A13990A01E4
:10343000135909012A8A6376F500AA854E85EF1093
:10344000602383D7A900E3E227FD83D78900E3EE59
:1034500047FBCD47E3FB27FB89C4DE3093F707101A
:1034600089C7CA85228529234DF118381C282207CF
:103470005D8F3C28138601B4138901B4C2075D8FA8
:103480003C38E207D98F5CCA5434582493F7070FAD
:10349000A206D98E78244207D98E78346207558FD8
:1034A00018CA1307000E6395E70883C7F402858BDB
:1034B00099E71834C5476309F70A014A21A0DC409F
:1034C000EDDB268A0325090101CDA685952415FD8E
:1034D000832709011307000E93F7070FE387E7F22D
:1034E000E3050AF27C20783093F7F7032207D98F9F
:1034F000E39D07F023A041B52322990023248900EE
:103500001C20D6854E85BD8B8A072316F900EF0057
:10351000B06D1C3419476387E70845476383E706A6
:1035200005476396E708A6854E85EFF0DFB7B1A89B
:103530002685EFF01FE31DE5034749019307F007D8
:10354000E309F7F6B707002003AAC714E3030AF656
:1035500063159A00032A0A00D5BF5285EFF07FE079
:1035600075D98DB7B9FCB1B7330754013C33342357
:103570001167A207D58F13070740E390E7F4268A67
:1035800085B7A6854E85EF40305223A001B4232293
:103590000900232409002316090023280900232AEF
:1035A0000900BDB5A6854E85EF20D07CF9BF032567
:1035B0004901D285B52A0DE1832749011307000E81
:1035C00093F7070F638AE700D6854E85EF00906773
:1035D00089454E85EFF09FCB4E85EF00706875B73B
:1035E000EFC25FF1AE8A6C25328905460111638D09
:1035F000C500B7D5000037D5000093850503130536
:10360000459EEF70D07F01A03EC63AC436C2AA8460
:10361000C289630E090CD145EF00305C9246224707
:10362000B24709C5795505616FC01FF0AE244D46FC
:10363000636DB600B7D5000037D500009385C5038C
:103640001305459EEF70B07B01A0C040370A0020F3
:10365000130A6A1014A41CB4834709001CA88347EA
:1036600019001CB8834729003CA88347390018B0CB
:103670003CB8930750041CA08A24692A28A0218101
:1036800028B003550A0023030400A30304005922B1
:1036900083570A0048A02181850748B02310FA000B
:1036A00063940A0483A7818313D787005CA458B46A
:1036B00013D70701E18378A47CB423050400A30594
:1036C00004006386090083D74902858B99C7D145D9
:1036D0002285792C28A4218128B483A749014A8610
:1036E000A6854E85829781B783A70A0075BF3A25C4
:1036F000CD47E3F9E7F254411309C101983A9C2AF6
:1037000022075D8FBC2AC2075D8FBC3AE207D98FC2
:103710003ECEE1B7EFC2BFDF01CA89C583A805006D
:103720006394080093054800EFF09FEB6FC07FE0C3
:103730009306F5FF7557AA876366D70203C7F5029C
:103740000145098B0DC3D841630FF70094453D8FA8
:10375000758F11EB93C6F6FF33F5F600158D133513
:1037600015008280054582801C414111AE8E3EC607
:1037700001457400294FA5429303F00F930FE00217
:1037800003C8060081473373E80393080101BE981C
:10379000138E1700137EFE0F3357E8031303030342
:1037A000238C68FE1377F70F63E7020398A22A8839
:1037B00076870505639477026353C8042300F701F5
:1037C00085061C08930E1700E39CF6FA23000700F9
:1037D0002E85410182803A88F28775B79388F7FF7A
:1037E00093F8F80F635DC80013080101C29783C7FF
:1037F00087FF05072A88A30FF7FEC6875DBF01452F
:10380000C9BFEFC2DFD04146938501B3EFF0DFF5CA
:103810006FC03FD29317850021815D8D42054181A4
:1038200082801357850193178501D98FB706FF0052
:1038300013178500758FD98F4167130707F0218112
:10384000798D5D8D828041112317010093761500DB
:1038500099C66356B0001C21FD150505DC8781471C
:103860000547634EB7026394E500182158872887FF
:1038700041677D173E9593570501798DAA9713D51A
:103880000701F98F3E9581CA9317850021817D8FAD
:103890001375F50F598D420541814101828009055B
:1038A0000356E5FFF915B2976DBFEFC2BFC41843C9
:1038B0009442C167FD173374F70041833A9433F79C
:1038C000F6003A94C182A29613D40601FD8EA29608
:1038D00013D40601FD8EAA892E8A32893694814A34
:1038E000BE8463960904638B0A00416793178400C2
:1038F0007D172180F98F1374F40F5D8C5285EFF0E2
:103900007FF1AA844A85EFF0FFF02695C167FD1785
:103910002A94135504017D8C2A94135504017D8C3F
:103920002A941345F4FF420541816FC0FFBF83D540
:10393000A90003A54900EFF01FF12A949357040151
:10394000658C3E9483D7A900858B91CB9317840017
:103950002180E58F1374F40F93CA1A005D8C83A93C
:10396000090041B7EFC2BFBAEFF03FF46FC07FBCB0
:10397000EFC2FFB9EFF03FED1345F5FF420541817E
:103980006FC03FBBEFC21FB74169AA8481490144A0
:103990007D1995E0638B09004167931784007D17BB
:1039A0002180F98F1374F40F5D8C1345F4FF4205E9
:1039B00041816FC07FB7AE24C840EFF0DFE82A94A2
:1039C00093570401337424013E94BE24858B99CB14
:1039D000931784002180B3F727011374F40F93C960
:1039E00019005D8C844075B7EFC27FB2EFD0AFD1C4
:1039F00019289D234D2DEF40B009EF10600CEF40CA
:103A0000E07A6FC01FB3EFC29FB0B7070020938763
:103A1000B73DF19B370700202328F710096793066D
:103A2000078094C337060020BE96232AD610B726F7
:103A300000183E9723820700938606802320D780B4
:103A40003705002085462302D7801305C5103707A8
:103A500000202324F710EFD0AFCD01CDB7D5000063
:103A600037D500009385C5131305459EEF70303997
:103A700001A06FC01FAC63080518EFC2BFA7937702
:103A800035002A8481CFB7D5000037D50000938553
:103A9000C5061305459EEF70903601A0B7090020BA
:103AA0009389091183A70900930485FF63ECF4004F
:103AB000B707002083A647111307C50013894711D4
:103AC00063FDE600B7D5000037D5000093850509F2
:103AD0001305459EEF70B03201A0370A0020130590
:103AE000CA10EFD00FC88347C4FF81EFB7D50000DD
:103AF00037D500009385C50A1305459EEF70303019
:103B000001A0835784FF096713070780636AF702E0
:103B10008356A4FF6366D70203A709003386E440F7
:103B2000420641826306D600BA969622639AC60080
:103B300083250900BA976380B702B623638DC60058
:103B4000B7D5000037D500009385450D1305459E78
:103B5000EF70F02A01A0B706002003A58610230EFF
:103B600004FE9386861063F3A40084C263FDE40020
:103B7000B7D5000037D50000938585101305459E05
:103B8000EF70F02701A063EDB400B7D5000037D582
:103B90000000938505121305459EEF70502601A085
:103BA0006385F402C82315E16381B7028C426393F5
:103BB000B70084C28E23231CB4FE9E23896593859F
:103BC00005806384B700BA97B2A30356A4FFB30776
:103BD000C7006384F402CC238DE18C426393B4006C
:103BE0009CC2835684FF96A3835684FF896793877C
:103BF00007806384F600369732A31305CA10EFD00E
:103C00000FBC6FC07F928280EFC2DF8E13843500BD
:103C1000719842044180AD47AA8463F9870089679F
:103C20009387078063F587008144EDA83144E36DF5
:103C3000B4FEB70900209389091103A7090063E8BE
:103C4000E400B707002083A7471163EDF400B7D560
:103C5000000037D500009385451D1305459EEF7084
:103C6000101A01A0938784FF03D984FF998F139AB8
:103C70000701135A0A0161193309494142091359CD
:103C80000901637D8900B7D5000037D50000938511
:103C9000C51E1305459EEF70901601A063048908A8
:103CA000B70A00201385CA10EFD0AFAB83D684FFCC
:103CB00083A709003386D700582225EB89659385B1
:103CC0000580639DB600B7D5000037D50000938509
:103CD000C5201305459EEF70901201A0B706002085
:103CE00013078A00938686103A9403A806004204BC
:103CF00041800E22338787006313C80098C22302D5
:103D000007000EA323114701239C84FE1A23896612
:103D1000938606806304D7003E9722A31385CA10BA
:103D2000EFD0EFA926856FC03F8013074401E367FA
:103D3000E9FE13078A003A940966420413060680D6
:103D40004180639DC600B7D5000037D5000093853C
:103D5000C5201305459EEF70900A01A0370600208C
:103D6000130686100C42338787006373B70018C2AE
:103D700016A32302070023114701239C84FE1A2364
:103D8000896693860680E30BD7F8BA97A2A379B722
:103D900063030516EFC2AFF71304350071984204B0
:103DA0004180AD4763FA870089679387078063F690
:103DB000870001456FC0EFF73144E36CA4FEB70400
:103DC00000201385C410EFD0CF99B7060020370725
:103DD000002083A78610032E0711096613060680AC
:103DE0003387C74142074183268593888610B305F0
:103DF000864061536367B7001305C510EFD02F9C51
:103E00004DBFB304EE00D42003D80400FDE2B30696
:103E1000E340C29663EF860C9305440163EFB60658
:103E200093068400BA96C206C182639DC600B7D5C8
:103E3000000037D500009385C5201305459EEF701F
:103E4000007C01A0B305DE0023900501BAA1238206
:103E50000500054796A0D8A09A216304C700729771
:103E600036A33709002013094911639E9702832660
:103E70000900D82319C36395F60223A0F8006384D0
:103E8000F60215C3B7D5000037D500009385851518
:103E90001305459EEF70A07601A00547D8A0D1B7C5
:103EA0009E23F297F9B71305C510EFD04F918327E2
:103EB00009002104269463FD8700B7D5000037D59B
:103EC0000000938545171305459EEF70407301A0D0
:103ED00093F7340013858400E38E07ECB7D5000018
:103EE00037D500009385451A1305459EEF70207164
:103EF00001A0428701B701458280EFC24FE12A84C9
:103F0000EFD06F811C4080430DC0184098C3937759
:103F1000340081CFB7D5000037D500009385052246
:103F20001305459EEF70A06D01A0EFC0BFFF228575
:103F30006FC02FE01C45544572218D0723A0060059
:103F4000F19B01476343C70082808C4205078CC305
:103F50004E219CC2AE97FDB7EFC26FDB35641304F0
:103F600004369304040308401104EFF0BFFCE31C83
:103F700094FE6FC00FDCEFC28FD9AD4763FBA70083
:103F800037D5000013050534EF70606701456FC039
:103F90004FDA931725003565130505363E95084120
:103FA0003105EFF09FF5E5B7EFC26FD6AD47411190
:103FB00063FBA70037D5000013054530EF70206480
:103FC00041016FC00FD7EDDD93F7350081CFB7D535
:103FD000000037D50000938505321305459EEF702C
:103FE000006201A0931725003565130505363E953F
:103FF00000412EC6EFC03FF25C44B245984398C1E1
:104000008CC3EFC03FF26DBF51558280EFC22FD0FD
:1040100001EDB7D5000037D500009385054B13059A
:10402000459EEF70C05D01A00347F50295461376EB
:104030005700631CD600858989C9544199C6218BD4
:1040400009C793054500EFE03FC76FC08FCEEFC2B1
:104050000FCC011181EDB7D5000037D50000938555
:10406000054A1305459EEF70805901A05C419841B7
:104070002A84AE8401456305F7021CC232856C08B0
:104080003ACE32C6EF00106E32466C083285EF40F1
:1040900060719C40228585455CC0EFF03FF7054587
:1040A00005616FC00FC98280EFC26FC60111AA847B
:1040B00032892E8499E11384818363140900138962
:1040C000818399E2938681831C4099C3814709A823
:1040D0007008A285268536C6EFF07FF7B246854781
:1040E0000327090090446303C70098C49842D4444E
:1040F0006303D700D8C491E77008A2852685EFF046
:104100001FF505616FC0EFC2EFC26FC041112A8475
:1041100019E937D500001305C541EF70404E2285DF
:1041200041016FC00FC189EB37D5000013058543EE
:10413000EF70E04C0144E5B799E19385818319E282
:104140001386818399E293868183B70400203745E3
:1041500000001305850058CC03C7041548C8416505
:104160007D1548D02309E402232804012285232257
:1041700004002324040023260400A30704022300D0
:104180000402A300040223010402A30104023EC6A8
:10419000EFF09FF1B247228593840415829759F975
:1041A000B707002083A5C7141387C7141305F00FA2
:1041B000834724036394A70023090402AE871306F0
:1041C000001099EF834724031306E00F81466385AF
:1041D000C700850793F6F70F0CC094A000C381B702
:1041E000631DF400B7D5000037D500009385C545A1
:1041F0001305459EEF70A04001A07D1601EEB7D5D6
:10420000000037D50000938505471305459EEF70E4
:10421000003F01A00348240383C6270363960601D9
:1042200085062309D40269B79C4361BFB707002004
:1042300023A4A7148280EFC28FAD09E937D500000F
:104240001305C551EF70A03B6FC0AFAE8347F502B9
:1042500093F61700F5FA93E71700A307F5028D45CB
:10426000EFF0DFDAD5B7EFC28FAA09E937D5000042
:104270001305854FEF70A0386FC0AFAB8347F502D1
:104280002A8413F747006DFB93E74700A307F50265
:10429000EFE00F888D452285EFF05FD7F1BF19E978
:1042A000EFC2EFA637D500001305454DEF7020355E
:1042B0006FC02FA88347F50213F7470009C7ED9B8E
:1042C000A307F50282808280814711C5B7070020CD
:1042D00083A7C71499E33E85828003C72703050798
:1042E0001377F70FE309A7FE9C43EDB7EFC22FA2A8
:1042F000EFC07FC2B7070020A3880714EFC09FC29A
:10430000B707002003A5471509C53C5D89C7EF0025
:10431000101D6FC00FA24845C5BF11EDEFC22F9F02
:10432000B7D5000037D500009385C5BD1305459E60
:10433000EF70E02C01A04167AA87054563F6E5040C
:104340000145B9C19A2793960501C1823697420764
:1043500041830545636AD7020385C700635B050097
:10436000D0430545B305B6401386070163F8C50081
:104370008280054511CAD043B305B640B227CCC3ED
:104380009AA7B296B6A701458280EFC24F981374E0
:10439000F6FB85474111630DF400B7D5000037D512
:1043A0000000938585581305459EEF70402501A0B8
:1043B000AA84294532C62EC4EFF0FFBB01CDA24529
:1043C00032462320050044C10EA52EA550A5A30604
:1043D000050062A541016FC0CF95EFC24F93014622
:1043E000EFF0BFF36FC0EF94EFC26F9201EDB7D55E
:1043F000000037D500009385C5BD1305459EEF70BD
:10440000002001A04167AA87054563F1E502014547
:1044100091CDBA2793960501C182637BD70037D52A
:1044200000001305457FEF70801D05456FC06F903C
:10443000158FD043BAA79A27B295CCC3158F9AA7E8
:104440000145EDB7EFC2AF8C63D80500B305B040AE
:10445000EFF09FF96FC0EF8D0546EFF01FECDDBF69
:10446000EFC24F89411115C5AA8581440949854983
:104470002EC6EFC05FAAB245E0251DE4B7D5000007
:1044800037D50000938585761305459EEF7020177C
:1044900001A0B7D5000037D500009385C5BD130531
:1044A000459EEF70C01501A07D141374F40FE0A5B4
:1044B0002EC6EFC03FA715E0B2452D45DC25804153
:1044C000BD8B63852701639E37012945EFF0DFAD82
:1044D000850493F4F40FA28541FC268541016FC049
:1044E000AF8489E72E85EFF00FD9DDB7B7D500008F
:1044F00037D50000938505781305459EEF70201091
:1045000001A0EFB23FFF9307100441116306F608C4
:1045100063E0C70285476301F608B7D5000037D5C9
:1045200000009385C5561305459EEF70400D01A010
:10453000131405019307201841806307F6069307BB
:104540000028E31CF6FC0D04938735007198F19B5D
:104550003E94420441802A891305040142052EC677
:1045600041816364F40A6362F50AEFF07F82AA84F2
:1045700005C9420913590901B2452A994D09C16774
:104580001379C9FF938707082320050023222501FB
:104590000EA52EA55CC529A00145EFF01FDFAA845A
:1045A000268541016FB05FF8416981498144130A52
:1045B000002013092908930A00202D452EC6EFF08C
:1045C0009F9BB24529E53704002013041415EFC062
:1045D0009F940349040085471CA01379F90FEFC08D
:1045E0007F94631009023745000081451305C52EED
:1045F000EF40A03E19C5EFC01F9223000400EFC09A
:104600007F9281C42685EFF0BFE5814451BF130737
:1046100034009377C7FFB307FA40BE86C207C18351
:1046200063F3F500AE862A944D04719893970601C2
:104630002320050040C10EA536A523262501719B28
:10464000C183631D5701B7D5000037D5000093859E
:1046500085531305459EEF60907A01A091C823A071
:10466000A9009D8DC205C1810144AA89B9F50DBF7C
:10467000AA84C5BFEFB2BFE901EDB7D5000037D5B9
:104680000000938545791305459EEF60507701A0A2
:104690001E252A8463FDF506AE84B387F5402E24DB
:1046A00063EC95025C24BD8BB9EB638A95044C40A6
:1046B0002285818DA695C205C181EFF0EFD42A84B1
:1046C0001DEDB7D5000037D500009385457C130557
:1046D000459EEF60D07201A01A248D8CC2043E97D3
:1046E0001AA40040C18045FCB7D5000037D50000B2
:1046F0009385C57A1305459EEF60707001A0084050
:1047000026A406A419C1EFF0BFD5232004006FB082
:104710005FE2814719E13E8582808507C207C18338
:104720000841CDBF15C9EFB29FDE2A84EFC0AFFEAE
:104730007C2485077CA4EFC0EFFE7C2481EFB7D5F5
:10474000000037D500009385057E1305459EEF6078
:10475000106B01A06FB0FFDD8280EFB25FDB11C193
:1047600089ED37D500001305C559EF6050696FB06A
:104770005FDC962536971AA53E851C411A25F5FB68
:104780003E25638DE700B7D5000037D5000093853F
:10479000455D1305459EEF60906601A09A250CC10A
:1047A000BA971EA5E9B7EFB29FD62E84EFF0FFFAB5
:1047B0002285EFF03FF76FB0DFD7EFB2BFD34111E3
:1047C00091C59E252E84328963FCC70037D5000031
:1047D00013058567EF60B062415541016FB0DFD4CA
:1047E000AA8419C51A25B387C60081496357F70003
:1047F00037D500001305C56AF1BFBE243A24958F52
:10480000330737416373F700BA874A8A6366F90052
:10481000139A0701135A0A01C8404C405286369534
:10482000CE9536C6EF609052B246BE243309494158
:104830004209D296D2991359090163FDD700B7D521
:10484000000037D500009385C56D1305459EEF60C8
:10485000105B01A03A24637D3701B7D5000037D53E
:1048600000009385456F1305459EEF60505901A0E8
:10487000631637070040814935E06305090437D5E1
:10488000000013050571B9B799C4BA249E246314B6
:10489000F7009C4091EFE31209F601453DBF8146C8
:1048A0006DD481463A241E24E310F7FE1C40E9DF54
:1048B00037D5000013050573EF607054695531BF9B
:1048C0006DF0E1BFCA89E392D7FC8440E9F8E309BF
:1048D00009FE37D5000013050572EDBDE394D7FC42
:1048E000EDB7EFB2DFC291E937D50000130585615E
:1048F000EF60F05041556FB0DFC392258146EFF075
:10490000DFEBD5BFEFB21FBF19E937D500001305A4
:104910004563EF60D04E014422856FB0FFC02A8905
:104920002E8AB284014495E137D500001305456510
:10493000EF60F04CD5B78355A90081CE63EBB6008C
:104940008D8EC206C18203290900F9D4E31509FE40
:10495000E1B7958DC205C181AE8963F3B400A68924
:1049600083254900C20993D90901B69533058A0008
:104970004E864E94B3843441EF60503D4204C204ED
:104980004180C1808146C1B7EFB2DFB611E937E59A
:10499000000013054581EF60904641556FB0DFB8C8
:1049A000AE8A91E537E500001305C582EDB71E25F7
:1049B0002A84328AB284814963F5C70437E500004E
:1049C00013058584EF60B0437D55C9BF01ECB7E5A1
:1049D000000037D50000938585861305459EEF605E
:1049E000104201A00359A40063F324012689484022
:1049F000B3853A014A86EF6070350040B3842441A4
:104A0000CA99E9F40145E38B49F9B7E5000037D5C8
:104A10000000938505881305459EEF60503E01A078
:104A2000EFB2FFAEB2842E868E24EFF09FAD2A84C3
:104A300005C1A685EFF0FFEA01CDB7D5000037D557
:104A40000000938545601305459EEF60503B01A033
:104A500022856FB01FAEEFB29FAB01EDB7E500004E
:104A600037D50000938585961305459EEF60303954
:104A700001A0584991472A846309F7009D476303C1
:104A8000F7028D468147631CD700EF20704BAA8741
:104A900005E195475CC82285EF20907C81473E85E3
:104AA0006FB03FA9EF20D049AA8719E1A547DDB72C
:104AB0007D57E396E7FE7E2C93E787007EACF9BF37
:104AC000EFB2FFA4EF60B0454A05F17749813E950A
:104AD0002396A1806FB0FFA5EFB27FA35849854709
:104AE000631DF700B7E5000037D500009385C59931
:104AF0001305459EEF60B03001A0AA850545EFF093
:104B0000AFCA6FB01FA3EFB29FA001EDB7E50000E1
:104B100037D50000938505D21305459EEF60302EF2
:104B200001A0AA874E3514591055FA3B3385D5405C
:104B30001308004032956374E800130700404207F1
:104B400041833307E54063450700EEB76FB07F9EB2
:104B50003307D6406356E000239707020145FDB7AF
:104B6000918E416763EDE600B7E5000037D50000A0
:104B7000938545D41305459EEF60702801A0F6B7D4
:104B8000F1BFEFB2DF9809E937E50000130585AF03
:104B9000EF60F0266FB0FF99584985472A84631D5E
:104BA000F700B7E5000037D50000938505B1130580
:104BB000459EEF60D02401A05A3585679387078012
:104BC000BA95C205C18163E4B70063F3E500BE8511
:104BD0004EB42285EFF03FF39307F01FE3FCA7FAF2
:104BE0007E2C228593E727007EACEF2070675DB7AF
:104BF0000DC1EFB2DF91AA854841411109C52EC60A
:104C0000EFF01F86B2450D45EFF00FBA41016FB0CE
:104C10005F92828011E18280EFB27F8F0041EFF0DE
:104C20003FFD228565FC6FB0DF90EFB25F8E4111D2
:104C300001EDB7E5000037D50000938585B3130576
:104C4000459EEF60D01B01A02AC60D45EFF0AFB224
:104C50002A8401C9B2455146EF60500F4840EFF039
:104C60007FAC228541016FB0DF8C11EDEFB23F8A3E
:104C7000B7E5000037D500009385459E1305459E96
:104C8000EF60F01701A093878180370700208843E9
:104C9000032747163A9588C3828011EEEFB23F870B
:104CA000B7E5000037D50000938545971305459E6D
:104CB000EF60F01401A09DC1FE318DC39306800208
:104CC000014763FAF600938787FDC207C1833E87D9
:104CD0006373F5002A8713150701418182803C5DCB
:104CE00099CBEFB2DF822A843E85EFF0BFF2232C0E
:104CF00004066FB01F848280EFB27F8109E937E537
:104D00000000130505A1EF60900F6FB09F825C4912
:104D100005472A84E37BF7FE2947E388E7FE685DC1
:104D200009C5EFF0EFF3232E04063C5C81C7228512
:104D3000EFF0FFFA2858FD575EB8EFF0BFED685866
:104D4000EFF05FED23280406232A04062316040649
:104D50006DBFEFB2CFFB81EDB7E5000037D50000A6
:104D60009385C5A21305459EEF60700901A001ED72
:104D7000B7E5000037D50000938585A41305459E4F
:104D8000EF60F00701A01C412E84639DF502DC4515
:104D90001CC1232604002285EFF01FF65C4829473A
:104DA0006399E7023C58A1EF7C58ADC7B7E5000016
:104DB00037D50000938505A81305459EEF603004A4
:104DC00001A0BA87F9D7D847E31DE4FE5844D8C7F5
:104DD000C9B78544638F97007E2C13F7170079D3EA
:104DE00093E727007EAC2285EF2090475C48E39B49
:104DF00097FA232A0400231D04006FB08FF3B7E550
:104E0000000037D50000938585A61305459EEF6009
:104E1000007F01A03C5CF1DFB7E5000037D5000062
:104E20009385C5A91305459EEF60607D01A0EFB293
:104E30008FEB09E937E5000013058589EF60207CD9
:104E40006FB0EFED5C49854B2A84639D7701B7E530
:104E5000000037D500009385458B1305459EEF6014
:104E6000007A01A02947639DE700AA853705002045
:104E70001305C516EFF0FFED2285EFF0FFC5C9B7AA
:104E8000832A4505032B850283294509032A050149
:104E9000262DB5EB014991CC370700201307C71524
:104EA0001C43639BA7045C451CC323260400814468
:104EB0000149685819C1EFF0FFD5285819C1EFF022
:104EC0007FD5285C19C1EFF0FFD4630D09000358AA
:104ED000C401A68713074400A2865A86D685228578
:104EE000EF20702A2285EFF03FBFE38B09F4CD5508
:104EF00052858299B1B7BA87CDDBD847E31D87FECB
:104F00005844D8C75DB72E89AA85370500201305F8
:104F10004515EFF01FE4B7070020238C771551BF2C
:104F2000EFB2EFDE8545EFF09FF06FB08FE0EFB2AC
:104F30000FDE2A840DE5B7E5000037D50000938524
:104F4000059B1305459EEF60806B01A098411C40B6
:104F5000C4456315F7002E85EFF09FFCA685FDF58F
:104F60006FB02FDD31C5EFB28FDA18412A841DC72B
:104F7000B7070020AE8483A54715EFF05FFBB707A6
:104F8000002083A5C7152285EFF07FFA81C89C40D9
:104F900091C7B707002083A7071699E36FB06FD9B1
:104FA000944318406394E600984098C3DC47F5B7F3
:104FB0008280B70700203707002083A74715832585
:104FC00047160146814691EB8DC6EFB24FD481451D
:104FD0003685EFF0DFE56FB0CFD5D84B6319A7006A
:104FE000D8533387E5406364C7003A86BE86DC4702
:104FF000D9BF8280EFB2AFD12A840545EFE0BFF779
:10500000AA872DE9370900200325491513094915F9
:1050100069EDB707002083A7C716B704002003A6D1
:105020004416814693844416639C070C19C1EFF023
:105030003FEF0545EFE03FF4AA870DED2545EFF082
:105040005FF70545EFE03FF3AA870DE52145EFF057
:105050005FF60545EFE03FF2AA8709ED13178401DB
:1050600061876348070A22875DE40545EFE0BFF0EA
:10507000AA872DC93E851306000A8145EFB02FCCC3
:105080000567130707802314E50637170008130781
:10509000078058D57D5738B519472312E5042311E9
:1050A000E504370701027D1758D937070020032789
:1050B0004716AA8700AD58D1370700200347971637
:1050C0002301E50237070008050778C537570000B8
:1050D0001307472F2324E50837E76D00130707D090
:1050E000232CE5083E856FB0CFC47E2D444513F7D1
:1050F000870009C7DD9B7EADEFF0FF95268509BFD0
:10510000D8533307E6406364D700BA863E85DC4750
:1051100021BF1307F0078326090003A804007D17A9
:105120001377F70F014691E6A9D33E85EFF05FDFD5
:105130002DBF8C2E63E9E500639CE500C852330562
:10514000A8406367C500D0522E87B6873306C84093
:10515000D446D1BFEFB2AFBB01EDB7E5000037D504
:105160000000938505911305459EEF60404901A01D
:105170002A845C49D1C911476385E7001D476395BF
:10518000E708785C09E75A341307078035CF7E2C8F
:10519000C18B81EFB7E5000037D5000093850593FB
:1051A0001305459EEF60A04501A03E2C0358C401A5
:1051B00010546C4813074400A2862285EF20A07C7F
:1051C0002285EFF07FB337070020130747151C43F4
:1051D000639587025C441CC3B70700200547238CF6
:1051E000E71483A741902326040063978704EF10F8
:1051F000D07401456FB0EFB3BA87F9DFD847E31D2C
:1052000087FE5844D8C7C9BF85446383970481CBC0
:105210000947638DE7082285EFF0FF83E1BF3E2C4D
:1052200081CF370700201307C7151C43639B8700F6
:105230005C441CC3232604002285EFF0FF8955BF80
:10524000BA87EDDBD847E31D87FE5844D8C7DDB7E2
:10525000B967938707A09386C700D843184315EB17
:105260009107E39CD7FE37050020A285130505169C
:10527000EFF03FAE584885476315F702B7E50000E9
:1052800037D500009385C5941305459EEF60203700
:1052900001A0032607086314C40023200708584709
:1052A0007DBFA2850945EFE03FD0A1B737050020BB
:1052B000A28513054515EFF0DFA9B7070020238C61
:1052C00097149DBFEFB2AFA411E937E500001305B5
:1052D000858FEF60C03241556FB0AFA55849854703
:1052E0006306F7007E2D93E707017EAD8545EFF05D
:1052F0007FE6DDB7EFB2AFA1411181ED37E50000E8
:105300001305C5ADEF60A02FC1573E8541016FB0B9
:105310004FA22E8519CA0E2632C6EFF09F8632465E
:105320003285EFF0EF938147CDB78147F9FEEFF07B
:105330007FF9AA87D9BFEFB2EF9B19E937E50000E3
:10534000130545ABEF60A02BC15426856FB0CF9DF0
:105350000329C507832785082A848349D900232E7A
:10536000050681464A86AA8585CF08498297AA8480
:1053700005ED93F90902E38A09FC5E34138707807F
:1053800019C385075EB483278408E1D308488146A2
:105390000146A2858297CD57E319F5FACD5475B72A
:1053A0000145EFF03FF5E1B7CD57E309F5FE232EB8
:1053B0002407ED5459BFEFB2EF93B70400201387D1
:1053C00094161C2393849416370A002085071CA387
:1053D000B70A002003244A1519E06FB0EF949C200F
:1053E00003472402630AF7042301F4027E2C13F717
:1053F000170011CB93E727007EAC2285EF20406693
:105400007E2CF19B7EAC7E2C13F7870011C7DD9BB1
:105410007EAC2285EFF02FE47C5C0329C40099CB9D
:1054200093898A15228523800900EFF0DFF083C776
:105430000900CDF34A844DB70329C400E5BFEFB29C
:105440000F8A37090020130749161C43B70A0020AA
:10545000B96B85071CC313879A161C234111850756
:105460001CA313094916938A9A16B70C0020938B34
:105470008B8E138C0184B7090020375B0A0003A4CC
:105480004915014A93894915054D130B8BCB19EC2E
:10549000B709002083A4C916294A9389C916930A1B
:1054A000000F6399043841016FB02F875C4881EF8A
:1054B000B7E5000037D50000938545B51305459E37
:1054C000EF60E01301A0639DA701B7E5000037D5A9
:1054D0000000938505B81305459EEF60401201A0BA
:1054E0002947639DE700B7E5000037D500009385A5
:1054F000C5BA1305459EEF60801001A003C70A00DE
:10550000834624026397E600832DC400228A6E84BA
:10551000BDBF2301E4028946034764046395D700B5
:10552000954763ECE7208D4763E9E7208344D4097E
:10553000638C0414785801CFB7E5000037D500001C
:105540009385C5BD1305459EEF60600B01A03858DB
:1055500001EFB7E5000037D50000938505C11305BD
:10556000459EEF60C00901A00347E40963E7E71C1B
:10557000E29403C7F4FF8347C40963EEE700835551
:105580004406E5C52285EF10106C65E52285EF2005
:10559000204D09C9F9A8850793F7F70F230EF408E2
:1055A000E3FFE7FC81445C4819476390E7027A2CEB
:1055B000418B01CF545003270900158F93068002B9
:1055C00063F5E600850493F4F40F1834814D218BC4
:1055D0000DCB11476385E7001D476394E7028325E0
:1055E00084091306401F03270900B3866501B3D65B
:1055F000C6025C501D8F63F4E614850493F4F40F27
:10560000854D3C5C99CF5C500327090099461D8F5E
:1056100083174404B387D7026365F7002285EFF050
:105620000FEC5C480D476394E7145850832709003A
:10563000998F130780026364F700638A041A228536
:1056400083244409EFF04FEB83A7090063000A1895
:105650006319F412B7E5000037D50000938585C4BF
:105660001305459EEF50B07901A02285EF20F00C84
:1056700015F98347D409230E04081947E364F7F2A8
:105680008507A30EF40839BF8317440363C0070AD4
:1056900021677D17639AE7082285EF20A01119C5BD
:1056A0007C58E39107F03C58E38E07EE5848894751
:1056B000630DF7028317040403172404B1468D8792
:1056C000BA970347640463F3E60031471377F70F93
:1056D0005E971823B397E70021679306E7FF63D42B
:1056E000F6009307F7FF2312F4040357C40483570B
:1056F0004406231A04026373F700BA877638C20798
:10570000C18313971600858342072317F40441834E
:1057100063F4E7002317E4042316D40423170406D4
:105720002285EF20007641B585075EB80317440354
:1057300083174404E348F7E685B78544ADB583474E
:10574000F409C9669386864FB387D702814DAE9719
:10575000B3D7C702E3F7E7EA2285EF20C078E31268
:1057600005EA8347F4098507A30FF40859BD2547C7
:10577000E395E7EC585083270900998F1307000F32
:105780005DBD5C442326FA00638D0D000358C401FF
:105790003E2C10546C4813074400A2862285EF204B
:1057A000801E1C48832DC400228513848C153EC6A0
:1057B000EFF08FB22300040081C8B247CD553E857B
:1057C00082941C20E39907CA528489B3630DF400C4
:1057D000B7E5000037D50000938545C71305459E02
:1057E000EF50F06101A05C4423A0F90071BF834732
:1057F000040203471402832DC400850793F7F70FB3
:105800002300F402E3E4E7D08327040993848C1592
:10581000230004022380040089E72285EF2040242E
:10582000F5B10848A28582979C20E39607C4E31F40
:1058300005CCE5B7DC48638D4701B7E5000037D5F7
:105840000000938505CA1305459EEF50505B01A0EB
:1058500083270900D850998F63F5FA022685EFF067
:10586000AFC91DE083A709006388F404B7E5000011
:1058700037D50000938585CF1305459EEF503058EE
:1058800001A02684C44431B983A70900639DF400B4
:10589000B7E5000037D50000938505CD1305459E7B
:1058A000EF50F05501A0DC445CC403ABC400268576
:1058B000EFF08FA2DA84F5B6DC4423A0F900F5B747
:1058C000EFA2FFC4EFF03FAF3707002013078716A2
:1058D0001C23850793F7F70F1CA3858B99C3EFF063
:1058E0001FB66FA01FC5138781901E2393861700D4
:1058F00016A303A7419109C783D6019163F7D70087
:1059000003A7C190BA97C82B8280958F93F7F70FA2
:10591000BA9788238280EFA2FFBD01EDB7E50000B2
:1059200037D50000938505FD1305459EEF50304D9A
:1059300001A01C49AA842E89C827DC37A2075D8DE7
:10594000EFD05FED058929E5630809040327090104
:1059500003A601909E2454334C23B297A206D58D02
:105960007423C206CD8E6C33E205D58D8356890033
:10597000AE96B386D74063D506028D8F635EF00086
:10598000918DC205C840C1818EA4EFE0BFCE29A091
:105990004A85EFF02FA8014923A024016FA0DFB8AA
:1059A0005C374827A2075D8DEFD0DFE6058905C18A
:1059B0009C48C037C8272204498C0545EFD09FE595
:1059C0009C48418D42054181C8A72181C8B7032465
:1059D00009004A85EFF0CFA12289BDB7EFA2BFB081
:1059E00001EDB7E5000037D50000938585FF13056D
:1059F000459EEF50D04001A003D981916300090278
:105A000023940190AA8993848190054A854A094B81
:105A1000914B130CF01F9E2063E427016FA03FB051
:105A2000EFF07FECE30945FF93178501E187FDD790
:105A300063106505EFF03FEBE31275FF9E208507CD
:105A4000E3DE27FDEFF03FEA220513140501418054
:105A5000EFF07FE9418D420541819307F5FFC207D1
:105A6000C1836374FC0013050020239BA90265B762
:105A7000EFF07FE7E3F4AAFA9E20F917AA979EA019
:105A800059BFEFA2DFA801EDB7E5000037D5000050
:105A9000938585FA1305459EEF50703601A0B70730
:105AA000002083C7C7172A840145C18B8DC77E2C70
:105AB000C18B99E78327440981C70848C555829758
:105AC00037050020A28513054515EFF08FA8228524
:105AD000EFF08F8005456FA0DFA5EFA2BFA12A8957
:105AE000328A2E84B7090020B70A002051C4184812
:105AF00048335C2322055D8D7C23C207C98F683340
:105B000062055D8DEFD0FFD11C482A8B0624C82783
:105B1000DC37A2075D8DEFD0FFCF83A709170D8972
